S01E00004F76696E67315F54544B343135355F4731375F4831372E7372656394
S11300000C940A020C9464020C94C2020C947D03B6
S11300100C9427020C9427020C9427020C942702B8
S11300200C9427020C9427020C9427020C942702A8
S11300300C9427020C9427020C9427020C94270298
S11300400C9427020C9427020C9427020C94270288
S11300500C9427020C9427020C9427020C94270278
S11300600C9427020C9427020C9427020C94270268
S1130070880083007E0078005249474854004C456C
S1130080465400444F574E00555000486F6C64204E
S11300904A6F79737469636B004C657420676F00F1
S11300A0557365206C65667420736C6964657200B1
S11300B02D3E525F42544E0043616C69627261741A
S11300C065006669742073637265656E00436F6EC4
S11300D07472617374004D75736963004F70746951
S11300E06F6E73004465627567004869676873637F
S11300F06F726500000000000000000000065F5FF2
S1130100060000000007070007070000147F7F14A3
S11301107F7F1400242E6B6B3A1200004666301861
S11301200C666200307A4F5D377A4800040703009A
S113013000000000001C3E63410000000041633EDB
S11301401C000000082A3E1C1C3E2A0808083E3EEB
S11301500808000000A0E06000000000080808088B
S11301600808000000006060000000006030180C07
S1130170060301003E7F594D7F3E000042427F7FCF
S113018040400000627359496F6600002263494988
S11301907F360000181C16137F7F10002767454523
S11301A07D3900003C7E4B497930000003637119AE
S11301B00F070000367F49497F360000064F496922
S11301C03F1E000000006C6C0000000000A0EC6CFE
S11301D000000000081C36634100000014141414CD
S11301E014140000004163361C0800000203515936
S11301F00F0600003E7F415D5D1F1E007C7E1313D1
S11302007E7C0000417F7F49497F36001C3E63416C
S113021041632200417F7F41637F1C00417F7F490E
S11302205D416300417F7F491D0103001C3E634122
S1130230517372007F7F08087F7F000000417F7F39
S113024041000000307040417F3F0100417F7F0842
S11302501C776300417F7F41406070007F7F060C04
S1130260067F7F007F7F060C187F7F001C3E634162
S1130270633E1C00417F7F49090F06001E3F217128
S11302807F5E0000417F7F19396F460026674D5914
S11302907B32000003417F7F410300007F7F4040A9
S11302A07F7F00001F3F60603F1F00007F7F30188A
S11302B0307F7F0063771C081C776300074F7878D2
S11302C04F0700006773594D47637100007F7F41FA
S11302D0410000000103060C183060000041417F1A
S11302E07F000000080C0603060C08008080808054
S11302F080808080000003070400000020745454B0
S11303003C784000413F7F44447C3800387C44447E
S11303106C280000307848493F7F4000387C5454B2
S11303205C180000487E7F490302000098BCA4A426
S1130330F87C0400417F7F08047C780000447D7DC4
S11303404000000040C484FD7D000000417F7F1018
S1130350386C440000417F7F400000007C7C0C1816
S11303600C7C78007C7C04047C780000387C444459
S11303707C38000084FCF8A4243C1800183C24A415
S1130380F8FC8400447C78441C180000485C5454F5
S11303907424000000043E7F442400003C7C404060
S11303A03C7C40001C3C60603C1C00003C7C603099
S11303B0607C3C00446C3810386C44009CBCA0A0A9
S11303C0FC7C00004C64745C4C64000008083E77BC
S11303D04141000000000077770000004141773E72
S11303E00808000002030103020301006686B070DE
S11303F070B08666007E424242427E00007E7E7E6F
S11304007E7E7E00FF8080808080808001010101EB
S1130410010101FF11241FBECFEFD4E0DEBFCDBF29
S113042013E0A0E0B1E0E4E9F4E202C005900D922B
S1130430A63AB107D9F724E0A6EAB3E001C01D92B9
S1130440A234B207E1F70E94EA050C9448120C9416
S113045000008230910571F01CF4019739F01CC042
S11304608330910559F0049769F016C084E18093B4
S113047000140BC085E18093001407C086E18093CB
S1130480001403C087E18093001482E58A95F1F794
S11304908091001490E0089580E090E00895BA9A65
S11304A0BB9A85B7816085BF85B7826085BF85B7F4
S11304B0846085BF85B7886085BF8BB780648BBF38
S11304C08BB780688BBF08951F920F920FB60F925F
S11304D01124EF92FF920F931F932F933F934F9307
S11304E05F936F937F938F939F93AF93BF93CF93B8
S11304F0DF93EF93FF938CE091E09F938F930E949F
S11305000E0E82E50E949E04F82EE92E8CE40E94D1
S11305109E04182F092F89E50E949E04C82FD92F05
S113052088E50E949E04EF92FF920F931F93DF933E
S1130530CF939F938F9385E391E09F938F930E9432
S11305400E0E0E94FD068DB79EB70C960FB6F8945A
S11305509EBF0FBE8DBFFF91EF91DF91CF91BF91F1
S1130560AF919F918F917F916F915F914F913F9147
S11305702F911F910F91FF90EF900F900FBE0F904E
S11305801F9018951F920F920FB60F9211242F935C
S11305903F934F935F936F937F938F939F93AF9307
S11305A0BF93EF93FF930E94F906FF91EF91BF91E0
S11305B0AF919F918F917F916F915F914F913F91F7
S11305C02F910F900FBE0F901F9018959093A70333
S11305D08093A6036093A803662341F089EA93E01D
S11305E0FC0111922E2F281B2617D8F3089586B7E5
S11305F08E7F86BF8BB780628BBF41E061E08BE268
S11306000E941E0668E088E290E00E94E6020895D7
S11306100E940C060895CF93DF931F92CDB7DEB7E7
S11306208CE20E940C068983898181FD0DC0898139
S113063082FD0AC08CE20E940C068983898181FDB7
S113064003C0898182FFF6CF898181FD05C089813C
S113065082FF04C081E003C080E001C08FEF0F90EF
S1130660DF91CF9108951F93CF93DF930E940B03E3
S1130670882361F1C82FC295C07F82E68C0F0E9447
S1130680080381E68C0F0E94080328E0829FC001C2
S113069011249093B2038093B10385E68C0F0E94DA
S11306A008038F708093B303882381F010E0C3EBB9
S11306B0D3E086E6810F0E940803E12FF0E0EF54B7
S11306C0FC4F83831F5F8881181798F38091B403CC
S11306D01F928F938EE491E09F938F930E940E0E4E
S11306E040E06FEF8CE20E941E060F900F900F9077
S11306F00F90DF91CF911F9108951F920F920FB623
S11307000F9211242F933F934F935F936F937F9393
S11307108F939F93AF93BF93EF93FF930E94330301
S1130720FF91EF91BF91AF919F918F917F916F91C5
S11307305F914F913F912F910F900FBE0F901F909B
S113074018950F931F93CF93DF93C4E6D0E00091E5
S1130750C6031091C70381E090E00E94290201586A
S11307601F4F081B190B1093C7030093C603009176
S1130770C4031091C50382E090E00E94290201584D
S11307801F4F081B190B1093C5030093C403219733
S11307902097E9F68091C6039091C70324E630E0E0
S11307A0B9010E94530D7093C7036093C6038091EF
S11307B0C4039091C503B9010E94530D7093C503FE
S11307C06093C403DF91CF911F910F9108952F92ED
S11307D03F924F925F926F927F928F929F92AF92CD
S11307E0BF92CF92DF92EF92FF920F931F93CF931A
S11307F0DF9300D000D000D0CDB7DEB73C017A83C0
S113080069835C834B833E832D8318018501B90181
S1130810882777FD8095982F0E94640C4B015C011A
S1130820B3016E0D7F1D29813A81621B730B8827EA
S113083077FD8095982F0E94640C2B013C01B10137
S11308408D819E81681B790B882777FD8095982F71
S11308500E94640C9B01AC01C301B2010E94F00C24
S11308602B013C016B817C81E981FA816E1B7F0B3A
S1130870882777FD8095982F0E94640C9B01AC011A
S1130880C301B2010E94C90B9B01AC01C501B401B3
S11308900E94650B0E94310CC101801B910B6817EB
S11308A0790774F58D819E81800F911F86179707B4
S11308B04CF5F80111230CF43196F595E795D80120
S11308C012C08A0F9B1FAC014E0F5F1F6417750780
S11308D014F069010BC0C6018E1B9F0B8617970786
S11308E014F0C01AD10AC601801B910B9601200F87
S11308F0311F621773072CF78617970714F704C084
S1130900610102C0CD80DE80C60126960FB6F89440
S1130910DEBF0FBECDBFDF91CF911F910F91FF902E
S1130920EF90DF90CF90BF90AF909F908F907F908B
S11309306F905F904F903F902F900895AF92BF9229
S1130940CF92DF92EF92FF920F931F93823509F4B7
S113095074C020F48C3409F44EC091C0883519F069
S1130960893529F18CC0C090C203D090C303E090B4
S1130970C603F090C70381E090E00E9429020F2E85
S1130980FAE0AF2EB12CF02D04E610E02CE93FEF95
S11309904FEF50E060E070E00E94E7039093C303E0
S11309A08093C2038091C2039091C3036AC0C09034
S11309B0C003D090C103E090C403F090C50382E06B
S11309C090E00E9429020F2EFAE0AF2EB12CF02DF8
S11309D004E610E02CE93FEF4FEF50E060E070E0F8
S11309E00E94E7039093C1038093C0038091C003E6
S11309F09091C10346C0C090BE03D090BF0383E072
S1130A0090E00E9429020F2EFAE0AF2EB12CF02DB7
S1130A10E12CF12C04E610E020E030E04FEF50E050
S1130A2060E070E00E94E7039093BF038093BE03ED
S1130A308091BE039091BF0324C0C090BC03D090AA
S1130A40BD0384E090E00E9429020F2EFAE0AF2E4D
S1130A50B12CF02DE12CF12C04E610E020E030E084
S1130A604FEF50E060E070E00E94E7039093BD0315
S1130A708093BC038091BC039091BD0302C080E0CD
S1130A8090E01F910F91FF90EF90DF90CF90BF9077
S1130A90AF9008950E94A10388E50E949E0490935C
S1130AA0C3038093C20389E50E949E049093C1030B
S1130AB08093C0038CE40E949E049093BF038093B0
S1130AC0BE0382E50E949E049093BD038093BC0301
S1130AD02091C4033091C5038091C6039091C7034C
S1130AE03F932F939F938F9381E591E09F938F93EF
S1130AF00E940E0E6091BC037091BD034091BE0331
S1130B005091BF032091C0033091C1038091C2036F
S1130B109091C3037F936F935F934F933F932F936E
S1130B209F938F938AE791E09F938F930E940E0E79
S1130B308DB79EB740960FB6F8949EBF0FBE8DBF7B
S1130B400895F8948FE190E00E94590B83EA91E0B4
S1130B509F938F938CEA91E09F938F9388EB91E01E
S1130B609F938F938DEB91E09F938F930E940E0E32
S1130B7085B7806885BF80B7806280BF0E942E09D8
S1130B800E94230A83E092E00E94220E0E944B06F8
S1130B900E944A0581E292E00E94220E89E492E0DA
S1130BA00E94220E0E944F0287E692E00E94220ECB
S1130BB08BE892E00E94220E80EA92E00E94220ECC
S1130BC078948DB79EB708960FB6F8949EBF0FBE63
S1130BD08DBF08950E94A1050E94230A87E090E03A
S1130BE00E94E3088CE30E943D0B0E9438060E9499
S1130BF0F7027894789487E090E00E94E30889EB08
S1130C0092E00E94180A8FEF9FE50197F1F700C068
S1130C1000000E944E08F7CFCF93C82F0E942F0BDD
S1130C2083E00E94240B8C2F0E94240B0E94280B2B
S1130C30C82F0E94310B8C2FCF9108951F93CF930F
S1130C40DF93182FD62FC42F0E942F0B85E00E940C
S1130C50240B812F0E94240B8D2F0E94240B8C2F98
S1130C600E94240B0E94310BDF91CF911F910895B4
S1130C700E94330B0E942F0B80EC0E94240B0E94D5
S1130C80310B0E942F0B40E460EE8FE00E941E06A1
S1130C900E94310B0895CF93DF93C1E2D4E0D09347
S1130CA00804C093070410920A04109209041092D5
S1130CB00C0410920B04E3E0F4E08AEE90E09183DC
S1130CC0808383E090E0909306048093050425EDEF
S1130CD033E030932604209325046DE074E0709390
S1130CE028046093270410922A041092290444EEE5
S1130CF050E0598348839093240480932304F09311
S1130D00DA03E093D903CFEED3E0D093DC03C093AE
S1130D10DB031092DE031092DD034CED50E0D901A9
S1130D204D935C939093D8038093D70329EF33E0DA
S1130D303093F4032093F3031092F6031092F50317
S1130D40F093F803E093F70386ED90E099838883AA
S1130D5082E090E09093F2038093F103D093FE033A
S1130D60C093FD03109200041092FF03F093020459
S1130D70E09301044DEC50E0D9014D935C939093C2
S1130D80FC038093FB03C7E1D4E0D0931204C09327
S1130D9011041092140410921304F0931604E093B7
S1130DA0150422EC30E0DB012D933C939093100466
S1130DB080930F0470931C0460931B0410921E0410
S1130DC010921D04F0932004E0931F0428EB30E0FC
S1130DD03983288390931A0480931904F093D203DF
S1130DE0E093D103F093D403E093D303DF91CF9145
S1130DF0089581E08093CA03089581E08093CB0332
S1130E00089580E090E00E94E30860EA70E08FEDCE
S1130E1093E00E94BC0D8FED93E00E94180A81E0DC
S1130E2090E00E94760A82E090E00E94E30860EB82
S1130E3070E08FED93E00E94BC0D8FED93E00E9473
S1130E40180A0E94430A8091CB0381110FC081E8E4
S1130E500E94B20883E090E00E942902969587954B
S1130E600E94B2088091CB03882389F31092CB03AC
S1130E7008950F931F93CF93DF93C0E0D0E0CE018A
S1130E800E94760A2196C730D105C9F780E090E028
S1130E900E94E30869E970E08FED93E00E94BC0DC5
S1130EA08FED93E00E94180A82E090E00E94E3082C
S1130EB060EB70E08FED93E00E94BC0D8FED93E04A
S1130EC00E94180A0E94430A8091CB0381110AC030
S1130ED08CEC94E00197F1F700C000008091CB0303
S1130EE08823B1F31092CB0380E090E00E940C09B8
S1130EF06BE870E08FED93E00E94BC0D8FED93E002
S1130F000E94180AC0E7D0E008E710E081E090E012
S1130F100E940C09FE01659174918FED93E00E948B
S1130F20BC0D8FED93E00E94180A0E94430A809141
S1130F30CB0381110AC08CEC94E00197F1F700C057
S1130F4000008091CB038823B1F31092CB03229647
S1130F50C017D107D9F6DF91CF911F910F91089552
S1130F608091D3039091D40323E0893F920719F42D
S1130F700E94010708958751944011F40E94390793
S1130F80089589E50E949E04873491054CF12091CF
S1130F90C8033091C9032734310514F5E091D30314
S1130FA0F091D403828193810197181619068CF469
S1130FB080E090E00480F581E02D01962281338168
S1130FC02150310982179307ACF3F093D403E093D3
S1130FD0D30384E690E09093C9038093C80325C0AB
S1130FE08A3B2FEF9207C4F42091C8033091C903C0
S1130FF02A3B3F4F8CF0E091D303F091D4038481DA
S113100095819093D4038093D3038CE99FEF9093BD
S1131010C9038093C80309C08B5B9F4F8B3891052C
S113102020F41092C9031092C8038091CB0381303D
S1131030B1F41092CB03E091D303F091D4038681F1
S11310409781009749F09093D2038093D1039093B2
S1131050D4038093D3031FC00E94B0071CC08091A7
S1131060CA038130C1F41092CA03E091D303F09112
S1131070D40380859185009771F0E091D103F091BC
S1131080D203208531853093D2032093D1039093EA
S1131090D4038093D30380E090E008950F931F93CB
S11310A0CF93DF930E94C107892B09F04CC0C0E0A5
S11310B0D0E0CE010E94760A2196C730D105C9F747
S11310C0E091D103F091D20382819381181619061D
S11310D0D4F5C0E0D0E010E801E8CE010E94E308B6
S11310E080E090E00E940509E091D103F091D203E1
S11310F0608171818FED93E00E94BC0D2091D1033A
S11311003091D2038091D3039091D40328173907E7
S113111011F4802F01C0812F0E94BB098FED93E051
S11311200E94180AE091D103F091D2030480F58162
S1131130E02DF093D203E093D10321968281938131
S1131140C817D90754F287E090E00E94E30861E0F1
S113115087E00E94A60A0E94430ADF91CF911F9163
S11311600F910895E0910A01F0910B018083089595
S11311701092D0031092CF031092CE031092CD039D
S1131180E0910A01F0910B0181E28083E0910A0170
S1131190F0910B011082E0910A01F0910B018FE7AD
S11311A08083E0910A01F0910B0182E28083E09157
S11311B00A01F0910B011082E0910A01F0910B01F8
S11311C087E080830895CF93DF93EC010E94B808F1
S11311D0D093D003C093CF03CE0187709927892B76
S11311E089F0E0910A01F0910B011082E0910A016B
S11311F0F0910B0180E18083C06BE0910A01F091D2
S11312000B01C083DF91CF9108958F779927909335
S1131210CE038093CD030895CF93DF93EC010E9416
S1131220E308289750F480E890E0E0910801F091F9
S11312300901108201970097C1F7DF91CF910895BA
S1131240CF93DF93C0E0D0E0CE010E940C09219639
S1131250C830D105C9F7DF91CF91089585B780686B
S113126085BF80B7806280BFE0910A01F0910B01D5
S11312708EEA8083E0910A01F0910B0181EA808378
S1131280E0910A01F0910B018AED8083E0910A015B
S1131290F0910B0182E18083E0910A01F0910B014E
S11312A088EC8083E0910A01F0910B0188EA808345
S11312B0E0910A01F0910B018FE38083E0910A0130
S11312C0F0910B0185ED8083E0910A01F0910B010F
S11312D080E88083E0910A01F0910B0181E880832A
S11312E0E0910A01F0910B0180E58083E0910A010D
S11312F0F0910B0189ED8083E0910A01F0910B01DB
S113130081E28083E0910A01F0910B0180E2808305
S1131310E0910A01F0910B011082E0910A01F09131
S11313200B018BED8083E0910A01F0910B0180E3C6
S11313308083E0910A01F0910B018DEA8083E091B2
S11313400A01F0910B011082E0910A01F0910B0166
S113135084EA8083E0910A01F0910B0186EA80839C
S1131360E0910A01F0910B018FEA80830E94200929
S11313700E94B80808958A3091F48091CF03909127
S1131380D0030196877099279093D0038093CF035D
S11313901092CE031092CD0381E090E0089588234B
S11313A009F443C0E82FF0E0EE0FFF1FEE0FFF1F1C
S11313B0EE0FFF1FEC50F04080E090E0A091CF03CF
S11313C0B091D003B695BA2FAA27B795A7952091C7
S11313D0CD033091CE03A20FB31F209106013091AB
S11313E00701A20FB31F24912C932091CD033091B8
S11313F0CE032F5F3F4F3093CE032093CD0301964E
S1131400319688309105D1F681E090E00090CF03C9
S113141002C0880F991F0A94E2F79091CC03892B9C
S11314208093CC0381E090E0089580E090E00895FB
S1131430CF93DF93EC0189910E94BB09892BD9F7E3
S1131440DF91CF91089540E050E070E060E014C077
S11314509C01240F351FE0910601F0910701E20F72
S1131460F31F108201968038910591F740585F4F21
S1131470411584E0580719F0872F962FE9CF8FEF95
S11314808093CC030895EF92FF920F931F93CF9311
S1131490DF93C0E0D0E000E010E0E12CF12CC801C3
S11314A00E94E3082E2D3F2DA9014C0F5D1FE091F2
S11314B00601F0910701E40FF51F8081E091080116
S11314C0F091090180832F5F3F4F2038310561F788
S11314D00F5F1F4FC058DF4F0830110501F7DF9130
S11314E0CF911F910F91FF90EF900895CF93DF93C9
S11314F0EC010E94E308C830D10528F5BE017695B9
S1131500762F66277795679520E030E0A901460F8E
S1131510571FE0910601F0910701E40FF51F1082B7
S11315202F5F3F4F2038310589F781E090E09C011F
S113153002C0220F331FCA95E2F7E9018091CC0360
S1131540C82BC093CC03DF91CF910895EF92FF9203
S11315501F93CF93DF93D82FC62F693020F0C85044
S11315606C2F0E94A60ACC2309F45CC0A09106014A
S1131570B091070120E8D29FA00DB11D11248BE288
S113158094E0FC012D9121932E2F281B2C17D0F3CE
S11315908C2F90E060E870E0681B790B1616170634
S11315A00CF444C018C040910601509107012E0D5F
S11315B03F1DFA01E20FF31F280F391F420F531F7B
S11315C0DA012C9120831F5F212F30E02617370783
S11315D054F3CC23D1F0B0E8DB9F90011124281BF5
S11315E0390B4BE254E0FA012C5A3340C9018E0FF7
S11315F09F1FA0910601B0910701A80FB91F819107
S11316008C938E2F841B8C1788F381E090E002C0AA
S1131610880F991FDA95E2F7D091CC038D2B809334
S1131620CC030CC060E870E080E090E020E8D29F3A
S11316307001112420E030E010E0B5CFDF91CF91AC
S11316401F91FF90EF9008958FB9779BFECF089577
S113165080E00E94240B779BFECF8FB10895C4983D
S11316600895C49A089587B3806B87BBBE986C9A1B
S11316706E9A709A0E94310B0895282F12BE83B778
S1131680856383BF30E040E050E060EC72E180E0CD
S113169090E00E94670D21BF81E080933704FFCF63
S11316A05D9BFECF8CB908955F9BFECF8CB190E01B
S11316B0089590BD89B988E18AB964E57BE080E545
S11316C09BE00E94C30D08955058BB27AA270ED053
S11316D04DC13ED130F043D120F031F49F3F11F49D
S11316E01EF433C10EF4E095E7FB29C1E92F4FD175
S11316F080F3BA17620773078407950718F071F42B
S11317009EF567C10EF4E0950B2EBA2FA02D0B01A8
S1131710B90190010C01CA01A0011124FF27591B32
S113172099F0593F50F4503E68F11A16F040A22F38
S1131730232F342F4427585FF3CF469537952795A9
S1131740A795F0405395C9F77EF41F16BA0B620BA8
S1131750730B840BBAF09150A1F0FF0FBB1F661FEF
S1131760771F881FC2F70EC0BA0F621F731F841F32
S113177048F4879577956795B795F7959E3F08F058
S1131780B3CF9395880F08F09927EE0F9795879517
S113179008950CD0EBC0E3D040F0DAD030F021F45F
S11317A05F3F19F0CCC0511115C1CFC0F0D098F3F0
S11317B09923C9F35523B1F3951B550BBB27AA27CE
S11317C062177307840738F09F5F5F4F220F331F40
S11317D0441FAA1FA9F333D00E2E3AF0E0E830D00C
S11317E091505040E695001CCAF729D0FE2F27D00F
S11317F0660F771F881FBB1F261737074807AB07DD
S1131800B0E809F0BB0B802DBF01FF2793585F4F51
S11318102AF09E3F510568F092C0DCC05F3FECF3B4
S1131820983EDCF3869577956795B795F7959F5F16
S1131830C9F7880F911D9695879597F90895E1E06A
S1131840660F771F881FBB1F621773078407BA07C9
S113185020F0621B730B840BBA0BEE1F88F7E09524
S1131860089504D06894B111B5C0089598D088F053
S11318709F5790F0B92F9927B751A0F0D1F0660F78
S1131880771F881F991F1AF0BA95C9F712C0B13093
S113189081F09FD0B1E008959CC0672F782F8827EE
S11318A0B85F39F0B93FCCF3869577956795B395D2
S11318B0D9F73EF490958095709561957F4F8F4F41
S11318C09F4F0895E89409C097FB3EF49095809546
S11318D0709561957F4F8F4F9F4F9923A9F0F92FF2
S11318E096E9BB279395F695879577956795B79570
S11318F0F111F8CFFAF4BB0F11F460FF1BC06F5F56
S11319007F4F8F4F9F4F16C0882311F096E911C067
S1131910772321F09EE8872F762F05C0662371F088
S113192096E8862F70E060E02AF09A95660F771F9C
S1131930881FDAF7880F9695879597F9089597F990
S11319409F6780E870E060E008959FEF80EC089561
S113195000240A941616170618060906089500248A
S11319600A9412161306140605060895092E039404
S1131970000C11F4882352F0BB0F40F4BF2B11F478
S113198060FF04C06F5F7F4F8F4F9F4F089557FDD7
S11319909058440F551F59F05F3F71F04795880FD9
S11319A097FB991F61F09F3F79F087950895121670
S11319B013061406551FF2CF4695F1DF08C016161C
S11319C017061806991FF1CF8695710561050894CD
S11319D00895E894BB2766277727CB0197F90895E4
S11319E00BD0C4CFB5DF28F0BADF18F0952309F087
S11319F0A6CFABCF1124EECFCADFA0F3959FD1F3CE
S1131A00950F50E0551F629FF001729FBB27F00DA8
S1131A10B11D639FAA27F00DB11DAA1F649F6627FD
S1131A20B00DA11D661F829F2227B00DA11D621F4C
S1131A30739FB00DA11D621F839FA00D611D221F06
S1131A40749F3327A00D611D231F849F600D211DEA
S1131A50822F762F6A2F11249F5750408AF0E1F08D
S1131A6088234AF0EE0FFF1FBB1F661F771F881FD6
S1131A7091505040A9F79E3F510570F060CFAACF16
S1131A805F3FECF3983EDCF3869577956795B795C1
S1131A90F795E7959F5FC1F7FE2B880F911D9695EB
S1131AA0879597F9089597FB072E16F4009407D0AD
S1131AB077FD09D00E94860D07FC05D03EF4909571
S1131AC081959F4F0895709561957F4F0895052ED8
S1131AD097FB1EF400940E947E0D57FD07D00E94D0
S1131AE09A0D07FC03D04EF40C947E0D509540954E
S1131AF0309521953F4F4F4F5F4F089590958095B6
S1131B00709561957F4F8F4F9F4F0895AA1BBB1B04
S1131B1051E107C0AA1FBB1FA617B70710F0A61BE9
S1131B20B70B881F991F5A95A9F780959095BC010A
S1131B30CD010895A1E21A2EAA1BBB1BFD010DC005
S1131B40AA1FBB1FEE1FFF1FA217B307E407F50769
S1131B5020F0A21BB30BE40BF50B661F771F881F45
S1131B60991F1A9469F760957095809590959B01DB
S1131B70AC01BD01CF010895FB01DC0105900D927C
S1131B800020E1F708950F931F93CF93DF93EC01A7
S1131B908B01009731F46115710519F480E090E030
S1131BA038C06EE070E081E090E00E942110FC01FA
S1131BB00097A1F380E883830115110571F0138761
S1131BC0028781E883838091380490913904892BBA
S1131BD021F4F0933904E09338042097C9F0D187B5
S1131BE0C08783818260838380913A0490913B040F
S1131BF0892B71F4F0933B04E0933A0480913C0404
S1131C0090913D04892B21F4F0933D04E0933C042E
S1131C10CF01DF91CF911F910F910895A0E0B0E023
S1131C20E4E1FEE00C942112FE013596619171917C
S1131C30AF0180913A0490913B040E944F0EE2E080
S1131C400C943D120F931F93CF93DF93E0913A04CA
S1131C50F0913B04238121FF1BC0EC0100E010E064
S1131C60899160913A0470913B04DB011896ED91DF
S1131C70FC911997882331F00995892B89F30FEF8B
S1131C801FEFEECF8AE00995892B11F4C80102C039
S1131C908FEF9FEFDF91CF911F910F910895ACE0EB
S1131CA0B0E0E5E5FEE00C9411127C016B018A01C1
S1131CB0FC0117821682838181FFBDC1CE0101968A
S1131CC04C01F7019381F60193FD859193FF819176
S1131CD06F01882309F4ABC1853239F493FD8591F2
S1131CE093FF81916F01853229F4B70190E00E943E
S1131CF08111E7CF512C312C20E02032A0F48B321B
S1131D0069F030F4803259F0833269F420612CC0D8
S1131D108D3239F0803339F4216026C0226024608A
S1131D2023C0286021C027FD27C030ED380F3A308A
S1131D3078F426FF06C0FAE05F9E300D1124532E7E
S1131D4013C08AE0389E300D1124332E20620CC05B
S1131D508E3221F426FD6BC1206406C08C3611F44A
S1131D60206802C0883641F4F60193FD859193FF03
S1131D7081916F018111C1CF982F9F7D955493302C
S1131D8028F40C5F1F4FFFE3F9830DC0833631F055
S1131D90833771F0833509F05BC022C0F80180817C
S1131DA089830E5F1F4F44244394512C540115C062
S1131DB03801F2E06F0E711CF801A080B18026FF9B
S1131DC003C0652D70E002C06FEF7FEFC5012C8763
S1131DD00E9476112C0183012C852F77222E17C0A7
S1131DE03801F2E06F0E711CF801A080B18026FF6B
S1131DF003C0652D70E002C06FEF7FEFC5012C8733
S1131E000E9464112C012C852068222E830123FC5E
S1131E101BC0832D90E048165906B0F4B70180E248
S1131E2090E00E9481113A94F4CFF50127FC85914A
S1131E3027FE81915F01B70190E00E94811131106A
S1131E403A94F1E04F1A51084114510471F7E5C076
S1131E50843611F0893639F5F80127FF07C060810F
S1131E607181828193810C5F1F4F08C060817181F1
S1131E70882777FD8095982F0E5F1F4F2F76B22EFF
S1131E8097FF09C090958095709561957F4F8F4F0E
S1131E909F4F2068B22E2AE030E0A4010E94B311C3
S1131EA0A82EA81844C0853729F42F7EB22E2AE024
S1131EB030E025C0F22FF97FBF2E8F36C1F018F421
S1131EC0883579F0B4C0803719F0883721F0AFC075
S1131ED02F2F2061B22EB4FE0DC08B2D8460B82E3E
S1131EE009C024FF0AC09F2F9660B92E06C028E0BF
S1131EF030E005C020E130E002C020E132E0F8012A
S1131F00B7FE07C060817181828193810C5F1F4F8E
S1131F1006C06081718180E090E00E5F1F4FA401D4
S1131F200E94B311A82EA818FB2DFF77BF2EB6FE72
S1131F300BC02B2D2E7FA51450F4B4FE0AC0B2FCA6
S1131F4008C02B2D2E7E05C07A2C2B2D03C07A2C95
S1131F5001C0752C24FF0DC0FE01EA0DF11D808126
S1131F60803311F4297E09C022FF06C07394739450
S1131F7004C0822F867809F0739423FD13C020FFD8
S1131F8006C05A2C731418F4530C5718732C73147A
S1131F9068F4B70180E290E02C870E948111739469
S1131FA02C85F5CF731410F4371801C0312C24FF9D
S1131FB012C0B70180E390E02C870E9481112C8528
S1131FC022FF17C021FF03C088E590E002C088E724
S1131FD090E0B7010CC0822F867859F021FD02C031
S1131FE080E201C08BE227FD8DE2B70190E00E9400
S1131FF08111A51438F4B70180E390E00E948111A7
S11320005A94F7CFAA94F401EA0DF11D8081B70127
S113201090E00E948111A110F5CF332009F451CE34
S1132020B70180E290E00E9481113A94F6CFF70163
S11320308681978102C08FEF9FEF2C96E2E10C948A
S11320402D120F931F93CF93DF93869F8001879F59
S1132050100D969F100D1124C8010E943D10EC0133
S1132060009729F0A80160E070E00E946F11CE0192
S1132070DF91CF911F910F910895CF93DF93823019
S1132080910510F482E090E0E0914004F091410465
S113209020E030E0A0E0B0E0309739F14081518198
S11320A048175907B8F04817590771F4828193818A
S11320B0109729F013969C938E9312972CC09093AB
S11320C041048093400427C02115310531F04217A3
S11320D0530718F0A901DB0101C0EF019A01BD010A
S11320E0DF010280F381E02DD7CF21153105F9F00E
S11320F0281B390B2430310580F48A819B816115BA
S1132100710521F0FB019383828304C09093410401
S113211080934004FE01329644C0FE01E20FF31F97
S11321208193919322503109398328833AC02091B5
S11321303E0430913F04232B41F42091020130915D
S1132140030130933F0420933E0420910001309119
S113215001012115310541F42DB73EB74091040129
S113216050910501241B350BE0913E04F0913F048E
S1132170E217F307A0F42E1B3F0B2817390778F05A
S1132180AC014E5F5F4F2417350748F04E0F5F1FB9
S113219050933F0440933E048193919302C0E0E046
S11321A0F0E0CF01DF91CF910895CF93DF930097B3
S11321B009F487C0FC01329713821282C091400453
S11321C0D0914104209781F420813181280F391F57
S11321D080913E0490913F048217930779F5F09320
S11321E03F04E0933E046DC0DE0120E030E0AE1712
S11321F0BF0750F412964D915C9113979D014115C0
S1132200510509F1DA01F3CFB383A28340815181EF
S1132210840F951F8A179B0771F48D919C911197D8
S1132220840F951F02969183808312968D919C91C1
S11322301397938382832115310529F4F093410484
S1132240E09340043EC0D9011396FC93EE93129799
S11322504D915D91A40FB51FEA17FB0779F48081B6
S11322609181840F951F0296D90111969C938E93A8
S11322708281938113969C938E931297E0E0F0E011
S11322808A819B81009719F0FE01EC01F9CFCE0100
S1132290029628813981820F931F20913E04309148
S11322A03F042817390769F4309729F41092410440
S11322B01092400402C013821282D0933F04C09350
S11322C03E04DF91CF910895FC0105906150704068
S11322D00110D8F7809590958E0F9F1F0895DC010B
S11322E001C06D9341505040E0F70895FC016150E6
S11322F0704001900110D8F7809590958E0F9F1F24
S113230008950F931F93CF93DF93182F092FEB0199
S11323108B8181FD03C08FEF9FEF20C082FF10C02F
S11323204E815F812C813D81421753077CF4E88103
S1132330F9819F012F5F3F4F39832883108306C0A3
S1132340E885F985812F0995892B29F72E813F810D
S11323502F5F3F4F3F832E83812F902FDF91CF91AB
S11323601F910F910895FA01AA27283051F12031C5
S113237081F1E8946F936E7F6E5F7F4F8F4F9F4F15
S1132380AF4FB1E03ED0B4E03CD0670F781F891F57
S11323909A1FA11D680F791F8A1F911DA11D6A0F25
S11323A0711D811D911DA11D20D009F468943F91D8
S11323B02AE0269F11243019305D3193DEF6CF01D7
S11323C00895462F4770405D4193B3E00FD0C9F79D
S11323D0F6CF462F4F70405D4A3318F0495D31FD0A
S11323E04052419302D0A9F7EACFB4E0A69597955D
S11323F0879577956795BA95C9F700976105710533
S113240008959B01AC010A2E06945795479537957C
S11324102795BA95C9F7620F731F841F951FA01DD6
S113242008952F923F924F925F926F927F928F9274
S11324309F92AF92BF92CF92DF92EF92FF920F934F
S11324401F93CF93DF93CDB7DEB7CA1BDB0B0FB659
S1132450F894DEBF0FBECDBF09942A883988488816
S11324605F846E847D848C849B84AA84B984C884AC
S1132470DF80EE80FD800C811B81AA81B981CE0FA3
S1132480D11D0FB6F894DEBF0FBECDBFED01089588
S1072490F894FFCFEA
S1132494000042042000001800120010526967680A
S11324A47420627574746F6E2070726573736564DE
S11324B42C207072696E74696E672076616C756520
S11324C4733A090900583A20256909593A202569BB
S11324D4094C3A20256909523A2025690A002569DC
S11324E40043616C6962726174696F6E2076616C19
S11324F47565733A200963616C5F583A202569094C
S113250463616C5F593A25690A00526566657265B0
S11325146E63652056616C7565733A2009582025ED
S1132524690959202569094C20256909522025691E
S1132534090A0031363A32343A3435004F63742090
S113254431372032303137006C366432004C4F411D
S113255444494E47206731375F257320257320256E
S1132564730A494E495449414C495A494E472E2EFF
S11325742E0A0A5541525420737563636573736656
S1132584756C6C7920696E697469616C697A6564C7
S11325940A0A004F4C45442073756363657373667C
S11325A4756C6C7920696E697469616C697A6564A7
S11325B400636F6E74726F6C20696E70757420732F
S11325C475636365737366756C6C7920696E69747D
S11325D469616C697A65640A005352414D207375CC
S11325E4636365737366756C6C7920696E69746969
S11325F4616C697A656400496E746572727570748D
S113260473207375636365737366756C6C79206981
S11326146E697469616C697A656400496E74657283
S1132624727570747320616374697661746564008F
S11326340A494E495449414C495A4154494F4E2040
S1132644434F4D504C455445003C2D2D2D2D3C3CC1
S11326543C005374617274696E67205352414D2077
S1132664746573742E2E2E00577269746520706815
S1132674617365206572726F723A206578745F7253
S1132684616D5B2534645D203D202530325820285B
S113269473686F756C642062652025303258290A8A
S11326A40052657472696576616C20706861736543
S11326B4206572726F723A206578745F72616D5B23
S11326C42534645D203D2025303258202873686FFA
S11326D4756C642062652025303258290A005352EF
S11326E4414D207465737420636F6D706C657465FB
S11326F46420776974680A253464206572726F7281
S11327047320696E207772697465207068617365DB
S113271420616E640A253464206572726F727309D1
S1132724696E2072657472696576616C2070686183
S109273473650A0A0000AF
S9030000FC
