:100000000C94E6010C9440020C949E020C943D0367
:100010000C9403020C9403020C9403020C9403024C
:100020000C9403020C9403020C9403020C9403023C
:100030000C9403020C9403020C9403020C9403022C
:100040000C9403020C9403020C9403020C9403021C
:100050000C9403020C9403020C9403020C9403020C
:100060000C9403020C9403020C9403020C940302FC
:1000700043616C69627261746500666974207363C0
:100080007265656E00436F6E7472617374004D75B6
:10009000736963004F7074696F6E730044656275B5
:1000A00067004869676873636F726500000000004D
:1000B0000000000000065F5F060000000007070068
:1000C00007070000147F7F147F7F1400242E6B6BC2
:1000D0003A120000466630180C666200307A4F5DB6
:1000E000377A48000407030000000000001C3E634C
:1000F000410000000041633E1C000000082A3E1C35
:100100001C3E2A0808083E3E0808000000A0E060E7
:1001100000000000080808080808000000006060EF
:10012000000000006030180C060301003E7F594DAE
:100130007F3E000042427F7F404000006273594989
:100140006F660000226349497F360000181C1613B1
:100150007F7F1000276745457D3900003C7E4B4975
:1001600079300000036371190F070000367F494999
:100170007F360000064F49693F1E000000006C6C8E
:100180000000000000A0EC6C00000000081C3663BA
:1001900041000000141414141414000000416336CC
:1001A0001C080000020351590F0600003E7F415D0C
:1001B0005D1F1E007C7E13137E7C0000417F7F4903
:1001C000497F36001C3E634141632200417F7F41ED
:1001D000637F1C00417F7F495D416300417F7F4910
:1001E0001D0103001C3E6341517372007F7F0808AC
:1001F0007F7F000000417F7F410000003070404160
:100200007F3F0100417F7F081C776300417F7F4172
:10021000406070007F7F060C067F7F007F7F060CAA
:10022000187F7F001C3E6341633E1C00417F7F4975
:10023000090F06001E3F21717F5E0000417F7F197C
:10024000396F460026674D597B32000003417F7F9E
:10025000410300007F7F40407F7F00001F3F6060C0
:100260003F1F00007F7F3018307F7F0063771C08BE
:100270001C776300074F78784F0700006773594D6C
:1002800047637100007F7F41410000000103060CBD
:10029000183060000041417F7F000000080C060319
:1002A000060C08008080808080808080000003072A
:1002B00004000000207454543C784000413F7F44C7
:1002C000447C3800387C44446C280000307848492D
:1002D0003F7F4000387C54545C180000487E7F49C2
:1002E0000302000098BCA4A4F87C0400417F7F08AE
:1002F000047C780000447D7D4000000040C484FD03
:100300007D000000417F7F10386C440000417F7FFA
:10031000400000007C7C0C180C7C78007C7C040481
:100320007C780000387C44447C38000084FCF8A4CD
:10033000243C1800183C24A4F8FC8400447C784435
:100340001C180000485C54547424000000043E7FD4
:10035000442400003C7C40403C7C40001C3C6060ED
:100360003C1C00003C7C6030607C3C00446C3810DD
:10037000386C44009CBCA0A0FC7C00004C64745C05
:100380004C64000008083E774141000000000077FF
:10039000770000004141773E080800000203010396
:1003A000020301006686B07070B08666007E42422D
:1003B00042427E00007E7E7E7E7E7E00FF808080C8
:1003C0008080808001010101010101FF11241FBE15
:1003D000CFEFD4E0DEBFCDBF13E0A0E0B1E0E0E0BE
:1003E000FFE102C005900D92A23AB107D9F724E0CF
:1003F000A2EAB3E001C01D92A532B207E1F70E9464
:10040000C8050C947E0F0C9400008230910571F0A9
:100410001CF4019739F01CC08330910559F0049702
:1004200069F016C084E1809300140BC085E18093CD
:10043000001407C086E18093001403C087E1809315
:10044000001482E58A95F1F78091001490E00895F8
:1004500080E090E00895BA9ABB9A85B7816085BF25
:1004600085B7826085BF85B7846085BF85B78860A2
:1004700085BF8BB780648BBF8BB780688BBF0895B7
:100480001F920F920FB60F921124EF92FF920F93CB
:100490001F932F933F934F935F936F937F938F930C
:1004A0009F93AF93BF93CF93DF93EF93FF938CE032
:1004B00091E09F938F930E94440B82E50E945E041B
:1004C000F82EE92E8CE40E945E04182F092F89E58E
:1004D0000E945E04C82FD92F88E50E945E04EF9227
:1004E000FF920F931F93DF93CF939F938F9385E397
:1004F00091E09F938F930E94440B0E94B1068DB7A9
:100500009EB70C960FB6F8949EBF0FBE8DBFFF919D
:10051000EF91DF91CF91BF91AF919F918F917F919B
:100520006F915F914F913F912F911F910F91FF908C
:10053000EF900F900FBE0F901F9018951F920F9283
:100540000FB60F9211242F933F934F935F936F93A6
:100550007F938F939F93AF93BF93EF93FF930E94EB
:10056000AD06FF91EF91BF91AF919F918F917F91D8
:100570006F915F914F913F912F910F900FBE0F9010
:100580001F9018950E94D3050895CF93DF931F9273
:10059000CDB7DEB78CE20E94D3058983898181FDC6
:1005A0000DC0898182FD0AC08CE20E94D305898337
:1005B000898181FD03C0898182FFF6CF898181FD18
:1005C00005C0898182FF04C081E003C080E001C0D2
:1005D0008FEF0F90DF91CF910895FF920F931F93AC
:1005E000CF93DF930E94C502882371F1C82FC29573
:1005F000C07F82E68C0F0E94C20281E68C0F0E94AF
:10060000C20228E0829FC00111249093A30380932B
:10061000A20385E68C0F0E94C2028F70E4EAF3E029
:1006200080838081882381F0F12C8F01CF2DD0E051
:1006300086E68F0D0E94C202CE55DC4F8B83F39469
:10064000F8018081F81690F38091A5031F928F9393
:100650008EE491E09F938F930E94440B40E06FEFF4
:100660008CE20E94E5050F900F900F900F90DF91A4
:10067000CF911F910F91FF9008951F920F920FB687
:100680000F9211242F933F934F935F936F937F9318
:100690008F939F93AF93BF93EF93FF930E94ED02CD
:1006A000FF91EF91BF91AF919F918F917F916F914A
:1006B0005F914F913F912F910F900FBE0F901F9020
:1006C00018950F931F93CF93DF93C4E6D0E000916A
:1006D000B7031091B80381E090E00E940502015831
:1006E0001F4F081B190B1093B8030093B703009119
:1006F000B5031091B60382E090E00E940502015814
:100700001F4F081B190B1093B6030093B5032197D5
:100710002097E9F68091B7039091B80324E630E082
:10072000B9010E94900A7093B8036093B703809157
:10073000B5039091B603B9010E94900A7093B60375
:100740006093B503DF91CF911F910F9108952F9280
:100750003F924F925F926F927F928F929F92AF9251
:10076000BF92CF92DF92EF92FF920F931F93CF939E
:10077000DF9300D000D000D0CDB7DEB73C017A8344
:1007800069835C834B833E832D8318018501B90106
:10079000882777FD8095982F0E94A1094B015C0165
:1007A000B3016E0D7F1D29813A81621B730B88276F
:1007B00077FD8095982F0E94A1092B013C01B10182
:1007C0008D819E81681B790B882777FD8095982FF6
:1007D0000E94A1099B01AC01C301B2010E942D0A34
:1007E0002B013C016B817C81E981FA816E1B7F0BBF
:1007F000882777FD8095982F0E94A1099B01AC0165
:10080000C301B2010E9406099B01AC01C501B401FC
:100810000E94A2080E946E09C101801B910B6817FB
:10082000790774F58D819E81800F911F8617970738
:100830004CF5F80111230CF43196F595E795D801A4
:1008400012C08A0F9B1FAC014E0F5F1F6417750704
:1008500014F069010BC0C6018E1B9F0B861797070A
:1008600014F0C01AD10AC601801B910B9601200F0B
:10087000311F621773072CF78617970714F704C008
:10088000610102C0CD80DE80C60126960FB6F894C5
:10089000DEBF0FBECDBFDF91CF911F910F91FF90B3
:1008A000EF90DF90CF90BF90AF909F908F907F9010
:1008B0006F905F904F903F902F900895AF92BF92AE
:1008C000CF92DF92EF92FF920F931F93823509F43C
:1008D00074C020F48C3409F44EC091C0883519F0EE
:1008E000893529F18CC0C090B303D090B403E09057
:1008F000B703F090B80381E090E00E9405020F2E4C
:10090000FAE0AF2EB12CF02D04E610E02CE93FEF19
:100910004FEF50E060E070E00E94A7039093B403B3
:100920008093B3038091B3039091B4036AC0C090E5
:10093000B103D090B203E090B503F090B60382E02B
:1009400090E00E9405020F2EFAE0AF2EB12CF02DA0
:1009500004E610E02CE93FEF4FEF50E060E070E07C
:100960000E94A7039093B2038093B1038091B103D7
:100970009091B20346C0C090AF03D090B00383E023
:1009800090E00E9405020F2EFAE0AF2EB12CF02D60
:10099000E12CF12C04E610E020E030E04FEF50E0D5
:1009A00060E070E00E94A7039093B0038093AF03D0
:1009B0008091AF039091B00324C0C090AD03D0905C
:1009C000AE0384E090E00E9405020F2EFAE0AF2E05
:1009D000B12CF02DE12CF12C04E610E020E030E009
:1009E0004FEF50E060E070E00E94A7039093AE03E9
:1009F0008093AD038091AD039091AE0302C080E07F
:100A000090E01F910F91FF90EF90DF90CF90BF90FB
:100A1000AF9008950E94610388E50E945E04909360
:100A2000B4038093B30389E50E945E049093B203FC
:100A30008093B1038CE40E945E049093B003809392
:100A4000AF0382E50E945E049093AE038093AD03F2
:100A50002091B5033091B6038091B7039091B8030C
:100A60003F932F939F938F9381E591E09F938F9373
:100A70000E94440B6091AD037091AE034091AF03AF
:100A80005091B0032091B1033091B2038091B30330
:100A90009091B4037F936F935F934F933F932F9302
:100AA0009F938F938AE791E09F938F930E94440BCB
:100AB0008DB79EB740960FB6F8949EBF0FBE8DBF00
:100AC0000895F8948FE190E00E94960883EA91E0FF
:100AD0009F938F938CEA91E09F938F9388EB91E0A3
:100AE0009F938F938DEB91E09F938F930E94440B84
:100AF00085B7806885BF80B7806280BF0E94240769
:100B00000E942B0883E092E00E94580B0E94FF0590
:100B10000E940A0581E292E00E94580B89E492E06B
:100B20000E94580B0E942B0287E692E00E94580B0D
:100B30008BE892E00E94580B80EA92E00E94580BEA
:100B400078948DB79EB708960FB6F8949EBF0FBEE7
:100B50008DBF0895C82F12BE83B7856383BF81E020
:100B60008093C0032C2F30E040E050E060EC72E155
:100B700080E090E00E94A40A21BF8CE993E00E94EB
:100B80000E088C2F90E00E9419080E944B08FFCF9E
:100B90000E9461050E942B0887E090E00E94E00619
:100BA0008CE30E94AA05CF93C82F0E94890883E096
:100BB0000E947E088C2F0E947E080E948208C82F07
:100BC0000E948B088C2FCF9108951F93CF93DF93B2
:100BD000182FD62FC42F0E94890885E00E947E0816
:100BE000812F0E947E088D2F0E947E088C2F0E94EC
:100BF0007E080E948B08DF91CF911F910895CF93BB
:100C0000DF93C1E1D4E0D093F803C093F7031092CF
:100C1000FA031092F9031092FC031092FB03E3EF26
:100C2000F3E082EA90E09183808383E090E0909308
:100C3000F6038093F50325EC33E0309316042093FC
:100C400015046DEF73E0709318046093170410920D
:100C50001A04109219044CE950E059834883909388
:100C6000140480931304F093CA03E093C903CFEDF7
:100C7000D3E0D093CC03C093CB031092CE03109259
:100C8000CD0344E950E0D9014D935C939093C803A0
:100C90008093C70329EE33E03093E4032093E3030A
:100CA0001092E6031092E503F093E803E093E70364
:100CB0008EE890E09983888382E090E09093E2034D
:100CC0008093E103D093EE03C093ED031092F00301
:100CD0001092EF03F093F203E093F10345E850E044
:100CE000D9014D935C939093EC038093EB03C7E0A1
:100CF000D4E0D0930204C093010410920404109233
:100D00000304F0930604E09305042AE730E0DB01D6
:100D10002D933C93909300048093FF0370930C04F5
:100D200060930B0410920E0410920D04F0931004C3
:100D3000E0930F0420E730E03983288390930A047E
:100D400080930904F093C203E093C103F093C403BA
:100D5000E093C303DF91CF91089581E08093B903BD
:100D6000089581E08093BA0308951092BF03109212
:100D7000BE031092BD031092BC03E0910A01F091F2
:100D80000B0181E28083E0910A01F0910B01108256
:100D9000E0910A01F0910B018FE78083E0910A0155
:100DA000F0910B0182E28083E0910A01F0910B0146
:100DB0001082E0910A01F0910B0187E08083089591
:100DC000CF93DF93EC010E94B506D093BF03C0938D
:100DD000BE03CE0187709927892B89F0E0910A0123
:100DE000F0910B011082E0910A01F0910B0180E17A
:100DF0008083C06BE0910A01F0910B01C083DF9109
:100E0000CF910895CF93DF93EC010E94E0062897DD
:100E100050F480E890E0E0910801F091090110821F
:100E200001970097C1F7DF91CF910895CF93DF939A
:100E3000C0E0D0E0CE010E9402072196C830D10563
:100E4000C9F7DF91CF91089585B7806885BF80B7D6
:100E5000806280BFE0910A01F0910B018EEA8083ED
:100E6000E0910A01F0910B0181EA8083E0910A018F
:100E7000F0910B018AED8083E0910A01F0910B0162
:100E800082E18083E0910A01F0910B0188EC80837C
:100E9000E0910A01F0910B0188EA8083E0910A0158
:100EA000F0910B018FE38083E0910A01F0910B0137
:100EB00085ED8083E0910A01F0910B0180E8808349
:100EC000E0910A01F0910B0181E88083E0910A0131
:100ED000F0910B0180E58083E0910A01F0910B0114
:100EE00089ED8083E0910A01F0910B0181E280831A
:100EF000E0910A01F0910B0180E28083E0910A0108
:100F0000F0910B011082E0910A01F0910B018BED41
:100F10008083E0910A01F0910B0180E38083E091EE
:100F20000A01F0910B018DEA8083E0910A01F091B2
:100F30000B011082E0910A01F0910B0184EA808399
:100F4000E0910A01F0910B0186EA8083E0910A01A9
:100F5000F0910B018FEA80830E9416070E94B5066C
:100F600008958A3091F48091BE039091BF03019659
:100F7000877099279093BF038093BE031092BD039F
:100F80001092BC0381E090E00895882309F443C0E7
:100F9000E82FF0E0EE0FFF1FEE0FFF1FEE0FFF1F19
:100FA000E455F04080E090E0A091BE03B091BF0313
:100FB000B695BA2FAA27B795A7952091BC03309173
:100FC000BD03A20FB31F2091060130910701A20FAC
:100FD000B31F24912C932091BC033091BD032F5F4C
:100FE0003F4F3093BD032093BC0301963196883068
:100FF0009105D1F681E090E00090BE0302C0880F19
:10100000991F0A94E2F79091BB03892B8093BB034D
:1010100081E090E0089580E090E00895CF93DF9321
:10102000EC0189910E94B107892BD9F7DF91CF910B
:101030000895CF931816190664F46AE070E00E94D0
:10104000900AC82FCB010E94190880E38C0F0E94E0
:10105000B107CF91089540E050E070E060E014C027
:101060009C01240F351FE0910601F0910701E20F6A
:10107000F31F108201968038910591F740585F4F19
:10108000411584E0580719F0872F962FE9CF8FEF8D
:101090008093BB030895EF92FF920F931F93CF931A
:1010A000DF93C0E0D0E000E010E0E12CF12CC801BB
:1010B0000E94E0062E2D3F2DA9014C0F5D1FE091EF
:1010C0000601F0910701E40FF51F8081E09108010E
:1010D000F091090180832F5F3F4F2038310561F780
:1010E0000F5F1F4FC058DF4F0830110501F7DF9128
:1010F000CF911F910F91FF90EF9008958FB9779B3B
:10110000FECF089580E00E947E08779BFECF8FB1CE
:101110000895C4980895C49A08955D9BFECF8CB934
:1011200008955F9BFECF8CB190E0089590BD89B982
:1011300088E18AB961E978E08DE898E00E94F90ACF
:1011400008955058BB27AA270ED04DC13ED130F08C
:1011500043D120F031F49F3F11F41EF433C10EF45B
:10116000E095E7FB29C1E92F4FD180F3BA17620759
:1011700073078407950718F071F49EF567C10EF4A4
:10118000E0950B2EBA2FA02D0B01B90190010C0197
:10119000CA01A0011124FF27591B99F0593F50F4AF
:1011A000503E68F11A16F040A22F232F342F442707
:1011B000585FF3CF469537952795A795F0405395FF
:1011C000C9F77EF41F16BA0B620B730B840BBAF0CF
:1011D0009150A1F0FF0FBB1F661F771F881FC2F73A
:1011E0000EC0BA0F621F731F841F48F4879577954E
:1011F0006795B795F7959E3F08F0B3CF9395880F05
:1012000008F09927EE0F9795879508950CD0EBC0BD
:10121000E3D040F0DAD030F021F45F3F19F0CCC0D9
:10122000511115C1CFC0F0D098F39923C9F35523BC
:10123000B1F3951B550BBB27AA27621773078407C9
:1012400038F09F5F5F4F220F331F441FAA1FA9F37F
:1012500033D00E2E3AF0E0E830D091505040E69571
:10126000001CCAF729D0FE2F27D0660F771F881FD2
:10127000BB1F261737074807AB07B0E809F0BB0BC1
:10128000802DBF01FF2793585F4F2AF09E3F5105E5
:1012900068F092C0DCC05F3FECF3983EDCF38695CB
:1012A00077956795B795F7959F5FC9F7880F911D5B
:1012B0009695879597F90895E1E0660F771F881F47
:1012C000BB1F621773078407BA0720F0621B730BFA
:1012D000840BBA0BEE1F88F7E095089504D068944C
:1012E000B111B5C0089598D088F09F5790F0B92FEC
:1012F0009927B751A0F0D1F0660F771F881F991F6B
:101300001AF0BA95C9F712C0B13081F09FD0B1E0A0
:1013100008959CC0672F782F8827B85F39F0B93FB0
:10132000CCF3869577956795B395D9F73EF490956C
:101330008095709561957F4F8F4F9F4F0895E894EA
:1013400009C097FB3EF490958095709561957F4F0D
:101350008F4F9F4F9923A9F0F92F96E9BB279395BB
:10136000F695879577956795B795F111F8CFFAF4CB
:10137000BB0F11F460FF1BC06F5F7F4F8F4F9F4FFC
:1013800016C0882311F096E911C0772321F09EE85A
:10139000872F762F05C0662371F096E8862F70E0C0
:1013A00060E02AF09A95660F771F881FDAF7880F9A
:1013B0009695879597F9089597F99F6780E870E06B
:1013C00060E008959FEF80EC089500240A941616BB
:1013D000170618060906089500240A941216130623
:1013E000140605060895092E0394000C11F48823B1
:1013F00052F0BB0F40F4BF2B11F460FF04C06F5FCD
:101400007F4F8F4F9F4F089557FD9058440F551FA2
:1014100059F05F3F71F04795880F97FB991F61F076
:101420009F3F79F087950895121613061406551FED
:10143000F2CF4695F1DF08C0161617061806991F59
:10144000F1CF86957105610508940895E894BB274E
:1014500066277727CB0197F908950BD0C4CFB5DF66
:1014600028F0BADF18F0952309F0A6CFABCF1124EE
:10147000EECFCADFA0F3959FD1F3950F50E0551F33
:10148000629FF001729FBB27F00DB11D639FAA27D9
:10149000F00DB11DAA1F649F6627B00DA11D661F28
:1014A000829F2227B00DA11D621F739FB00DA11D49
:1014B000621F839FA00D611D221F749F3327A00D03
:1014C000611D231F849F600D211D822F762F6A2F9F
:1014D00011249F5750408AF0E1F088234AF0EE0F24
:1014E000FF1FBB1F661F771F881F91505040A9F731
:1014F0009E3F510570F060CFAACF5F3FECF3983E5E
:10150000DCF3869577956795B795F795E7959F5F97
:10151000C1F7FE2B880F911D9695879597F9089531
:1015200097FB072E16F4009407D077FD09D00E9490
:10153000C30A07FC05D03EF4909581959F4F08950E
:10154000709561957F4F0895052E97FB1EF40094CA
:101550000E94BB0A57FD07D00E94D70A07FC03D0A0
:101560004EF40C94BB0A50954095309521953F4F11
:101570004F4F5F4F089590958095709561957F4F7F
:101580008F4F9F4F0895AA1BBB1B51E107C0AA1F95
:10159000BB1FA617B70710F0A61BB70B881F991F14
:1015A0005A95A9F780959095BC01CD010895A1E2C7
:1015B0001A2EAA1BBB1BFD010DC0AA1FBB1FEE1FCD
:1015C000FF1FA217B307E407F50720F0A21BB30B18
:1015D000E40BF50B661F771F881F991F1A9469F794
:1015E00060957095809590959B01AC01BD01CF01F0
:1015F00008950F931F93CF93DF93EC018B01009716
:1016000031F46115710519F480E090E038C06EE0A6
:1016100070E081E090E00E94570DFC010097A1F37B
:1016200080E883830115110571F01387028781E833
:10163000838380911B0490911C04892B21F4F093E7
:101640001C04E0931B042097C9F0D187C0878381D5
:101650008260838380911D0490911E04892B71F414
:10166000F0931E04E0931D0480911F0490912004C8
:10167000892B21F4F0932004E0931F04CF01DF9124
:10168000CF911F910F910895A0E0B0E0EAE4FBE054
:101690000C94570FFE01359661917191AF018091C5
:1016A0001D0490911E040E94850BE2E00C94730FC0
:1016B0000F931F93CF93DF93E0911D04F0911E04CD
:1016C000238121FF1BC0EC0100E010E089916091B3
:1016D0001D0470911E04DB011896ED91FC91199781
:1016E000882331F00995892B89F30FEF1FEFEECF97
:1016F0008AE00995892B11F4C80102C08FEF9FEF92
:10170000DF91CF911F910F910895ACE0B0E0EBE82D
:10171000FBE00C94470F7C016B018A01FC011782EE
:101720001682838181FFBDC1CE0101964C01F70174
:101730009381F60193FD859193FF81916F01882339
:1017400009F4ABC1853239F493FD859193FF819102
:101750006F01853229F4B70190E00E94B70EE7CF00
:10176000512C312C20E02032A0F48B3269F030F47F
:10177000803259F0833269F420612CC08D3239F007
:10178000803339F4216026C02260246023C02860A1
:1017900021C027FD27C030ED380F3A3078F426FFFE
:1017A00006C0FAE05F9E300D1124532E13C08AE06C
:1017B000389E300D1124332E20620CC08E3221F45D
:1017C00026FD6BC1206406C08C3611F4206802C06F
:1017D000883641F4F60193FD859193FF81916F0165
:1017E0008111C1CF982F9F7D9554933028F40C5FC1
:1017F0001F4FFFE3F9830DC0833631F0833771F05B
:10180000833509F05BC022C0F801808189830E5FB7
:101810001F4F44244394512C540115C03801F2E069
:101820006F0E711CF801A080B18026FF03C0652DEA
:1018300070E002C06FEF7FEFC5012C870E94AC0EF5
:101840002C0183012C852F77222E17C03801F2E05E
:101850006F0E711CF801A080B18026FF03C0652DBA
:1018600070E002C06FEF7FEFC5012C870E949A0ED7
:101870002C012C852068222E830123FC1BC0832D84
:1018800090E048165906B0F4B70180E290E00E945B
:10189000B70E3A94F4CFF50127FC859127FE81918C
:1018A0005F01B70190E00E94B70E31103A94F1E069
:1018B0004F1A51084114510471F7E5C0843611F0F4
:1018C000893639F5F80127FF07C06081718182816F
:1018D00093810C5F1F4F08C060817181882777FD5D
:1018E0008095982F0E5F1F4F2F76B22E97FF09C05D
:1018F00090958095709561957F4F8F4F9F4F206891
:10190000B22E2AE030E0A4010E94E90EA82EA81809
:1019100044C0853729F42F7EB22E2AE030E025C05E
:10192000F22FF97FBF2E8F36C1F018F4883579F089
:10193000B4C0803719F0883721F0AFC02F2F206155
:10194000B22EB4FE0DC08B2D8460B82E09C024FFCA
:101950000AC09F2F9660B92E06C028E030E005C06F
:1019600020E130E002C020E132E0F801B7FE07C01C
:1019700060817181828193810C5F1F4F06C06081FD
:10198000718180E090E00E5F1F4FA4010E94E90E7C
:10199000A82EA818FB2DFF77BF2EB6FE0BC02B2D4F
:1019A0002E7FA51450F4B4FE0AC0B2FC08C02B2D43
:1019B0002E7E05C07A2C2B2D03C07A2C01C0752CED
:1019C00024FF0DC0FE01EA0DF11D8081803311F46A
:1019D000297E09C022FF06C07394739404C0822F2D
:1019E000867809F0739423FD13C020FF06C05A2C9B
:1019F000731418F4530C5718732C731468F4B7014C
:101A000080E290E02C870E94B70E73942C85F5CF6E
:101A1000731410F4371801C0312C24FF12C0B70121
:101A200080E390E02C870E94B70E2C8522FF17C020
:101A300021FF03C088E590E002C088E790E0B7018D
:101A40000CC0822F867859F021FD02C080E201C0CF
:101A50008BE227FD8DE2B70190E00E94B70EA5143E
:101A600038F4B70180E390E00E94B70E5A94F7CFA4
:101A7000AA94F401EA0DF11D8081B70190E00E9463
:101A8000B70EA110F5CF332009F451CEB70180E293
:101A900090E00E94B70E3A94F6CFF70186819781C5
:101AA00002C08FEF9FEF2C96E2E10C94630F0F932F
:101AB0001F93CF93DF93869F8001879F100D969F82
:101AC000100D1124C8010E94730DEC01009729F03C
:101AD000A80160E070E00E94A50ECE01DF91CF91D9
:101AE0001F910F910895CF93DF938230910510F4E9
:101AF00082E090E0E0912304F091240420E030E0C3
:101B0000A0E0B0E0309739F1408151814817590782
:101B1000B8F04817590771F482819381109729F022
:101B200013969C938E9312972CC0909324048093C9
:101B3000230427C02115310531F04217530718F04F
:101B4000A901DB0101C0EF019A01BD01DF010280A3
:101B5000F381E02DD7CF21153105F9F0281B390B82
:101B60002430310580F48A819B816115710521F053
:101B7000FB019383828304C0909324048093230405
:101B8000FE01329644C0FE01E20FF31F8193919350
:101B900022503109398328833AC0209121043091A1
:101BA0002204232B41F42091020130910301309350
:101BB000220420932104209100013091010121157C
:101BC000310541F42DB73EB7409104015091050114
:101BD000241B350BE0912104F0912204E217F30756
:101BE000A0F42E1B3F0B2817390778F0AC014E5F8D
:101BF0005F4F2417350748F04E0F5F1F50932204A4
:101C0000409321048193919302C0E0E0F0E0CF0182
:101C1000DF91CF910895CF93DF93009709F487C0A8
:101C2000FC01329713821282C0912304D0912404C4
:101C3000209781F420813181280F391F8091210460
:101C4000909122048217930779F5F0932204E09390
:101C500021046DC0DE0120E030E0AE17BF0750F474
:101C600012964D915C9113979D014115510509F113
:101C7000DA01F3CFB383A28340815181840F951F92
:101C80008A179B0771F48D919C911197840F951F72
:101C900002969183808312968D919C9113979383E2
:101CA00082832115310529F4F0932404E093230461
:101CB0003EC0D9011396FC93EE9312974D915D911E
:101CC000A40FB51FEA17FB0779F480819181840F77
:101CD000951F0296D90111969C938E9382819381D0
:101CE00013969C938E931297E0E0F0E08A819B819B
:101CF000009719F0FE01EC01F9CFCE010296288180
:101D00003981820F931F20912104309122042817DA
:101D1000390769F4309729F41092240410922304AF
:101D200002C013821282D0932204C0932104DF9157
:101D3000CF910895FC010590615070400110D8F7D3
:101D4000809590958E0F9F1F0895DC0101C06D93C3
:101D500041505040E0F70895FC01615070400190FF
:101D60000110D8F7809590958E0F9F1F08950F93BF
:101D70001F93CF93DF93182F092FEB018B8181FDE8
:101D800003C08FEF9FEF20C082FF10C04E815F81A4
:101D90002C813D81421753077CF4E881F9819F0132
:101DA0002F5F3F4F39832883108306C0E885F9856C
:101DB000812F0995892B29F72E813F812F5F3F4F76
:101DC0003F832E83812F902FDF91CF911F910F9111
:101DD0000895FA01AA27283051F1203181F1E894C1
:101DE0006F936E7F6E5F7F4F8F4F9F4FAF4FB1E00E
:101DF0003ED0B4E03CD0670F781F891F9A1FA11D09
:101E0000680F791F8A1F911DA11D6A0F711D811D09
:101E1000911DA11D20D009F468943F912AE0269FCE
:101E200011243019305D3193DEF6CF010895462F2D
:101E30004770405D4193B3E00FD0C9F7F6CF462F0E
:101E40004F70405D4A3318F0495D31FD4052419377
:101E500002D0A9F7EACFB4E0A69597958795779534
:101E60006795BA95C9F700976105710508959B01BB
:101E7000AC010A2E06945795479537952795BA9544
:101E8000C9F7620F731F841F951FA01D08952F921D
:101E90003F924F925F926F927F928F929F92AF92FA
:101EA000BF92CF92DF92EF92FF920F931F93CF9347
:101EB000DF93CDB7DEB7CA1BDB0B0FB6F894DEBFDE
:101EC0000FBECDBF09942A88398848885F846E8404
:101ED0007D848C849B84AA84B984C884DF80EE804E
:101EE000FD800C811B81AA81B981CE0FD11D0FB657
:101EF000F894DEBF0FBECDBFED010895F894FFCF7B
:101F000000002504200000180012001052696768C4
:101F10007420627574746F6E20707265737365647B
:101F20002C207072696E74696E672076616C7565BD
:101F3000733A090900583A20256909593A20256958
:101F4000094C3A20256909523A2025690A00256979
:101F50000043616C6962726174696F6E2076616CB6
:101F60007565733A200963616C5F583A20256909E9
:101F700063616C5F593A25690A005265666572654E
:101F80006E63652056616C7565733A20095820258B
:101F9000690959202569094C2025690952202569BC
:101FA000090A0031343A32323A3230004F63742039
:101FB00031372032303137006C346432004C4F41BD
:101FC00044494E47206731375F257320257320250C
:101FD000730A494E495449414C495A494E472E2E9D
:101FE0002E0A0A55415254207375636365737366F4
:101FF000756C6C7920696E697469616C697A656465
:102000000A0A004F4C454420737563636573736619
:10201000756C6C7920696E697469616C697A656444
:1020200000636F6E74726F6C20696E7075742073CC
:1020300075636365737366756C6C7920696E69741A
:1020400069616C697A65640A005352414D20737569
:10205000636365737366756C6C7920696E69746906
:10206000616C697A656400496E746572727570742A
:1020700073207375636365737366756C6C7920691F
:102080006E697469616C697A656400496E74657221
:10209000727570747320616374697661746564002D
:1020A0000A494E495449414C495A4154494F4E20DE
:1020B000434F4D504C455445005374617274696EE2
:1020C00067205352414D20746573742E2E2E005795
:1020D00072697465207068617365206572726F72D1
:1020E0003A206578745F72616D5B2534645D203DD4
:1020F0002025303258202873686F756C6420626523
:102100002025303258290A0052657472696576615B
:102110006C207068617365206572726F723A206519
:1021200078745F72616D5B2534645D203D202530DD
:102130003258202873686F756C64206265202530E2
:102140003258290A005352414D207465737420633C
:102150006F6D706C6574656420776974680A2534E6
:1021600064206572726F727320696E207772697471
:102170006520706861736520616E640A253464208F
:102180006572726F727309696E2072657472696527
:1021900076616C2070686173650A0A004650533A94
:0221A00020001D
:00000001FF
