:100000000C940A020C9464020C9488020C94D002A2
:100010000C9427020C9427020C9427020C942702BC
:100020000C9427020C9427020C9427020C942702AC
:100030000C9427020C9427020C9427020C9427029C
:100040000C94AE0C0C9427020C9427020C942702FB
:100050000C9427020C9427020C9427020C9427027C
:100060000C9427020C9427020C9427020C9427026C
:10007000880083007E0078005249474854004C4570
:10008000465400444F574E00555000486F6C642052
:100090004A6F79737469636B004C657420676F00F5
:1000A000557365206C65667420736C6964657200B5
:1000B0002D3E525F42544E0043616C69627261741E
:1000C00065006669742073637265656E00436F6EC8
:1000D0007472617374004D75736963004F70746955
:1000E0006F6E730044656275670048696768736383
:1000F0006F726500000000000000000000065F5FF6
:10010000060000000007070007070000147F7F14A7
:100110007F7F1400242E6B6B3A1200004666301865
:100120000C666200307A4F5D377A4800040703009E
:1001300000000000001C3E63410000000041633EDF
:100140001C000000082A3E1C1C3E2A0808083E3EEF
:100150000808000000A0E06000000000080808088F
:100160000808000000006060000000006030180C0B
:10017000060301003E7F594D7F3E000042427F7FD3
:1001800040400000627359496F660000226349498C
:100190007F360000181C16137F7F10002767454527
:1001A0007D3900003C7E4B497930000003637119B2
:1001B0000F070000367F49497F360000064F496926
:1001C0003F1E000000006C6C0000000000A0EC6C02
:1001D00000000000081C36634100000014141414D1
:1001E00014140000004163361C080000020351593A
:1001F0000F0600003E7F415D5D1F1E007C7E1313D5
:100200007E7C0000417F7F49497F36001C3E634170
:1002100041632200417F7F41637F1C00417F7F4912
:100220005D416300417F7F491D0103001C3E634126
:10023000517372007F7F08087F7F000000417F7F3D
:1002400041000000307040417F3F0100417F7F0846
:100250001C776300417F7F41406070007F7F060C08
:10026000067F7F007F7F060C187F7F001C3E634166
:10027000633E1C00417F7F49090F06001E3F21712C
:100280007F5E0000417F7F19396F460026674D5918
:100290007B32000003417F7F410300007F7F4040AD
:1002A0007F7F00001F3F60603F1F00007F7F30188E
:1002B000307F7F0063771C081C776300074F7878D6
:1002C0004F0700006773594D47637100007F7F41FE
:1002D000410000000103060C183060000041417F1E
:1002E0007F000000080C0603060C08008080808058
:1002F00080808080000003070400000020745454B4
:100300003C784000413F7F44447C3800387C444482
:100310006C280000307848493F7F4000387C5454B6
:100320005C180000487E7F490302000098BCA4A42A
:10033000F87C0400417F7F08047C780000447D7DC8
:100340004000000040C484FD7D000000417F7F101C
:10035000386C440000417F7F400000007C7C0C181A
:100360000C7C78007C7C04047C780000387C44445D
:100370007C38000084FCF8A4243C1800183C24A419
:10038000F8FC8400447C78441C180000485C5454F9
:100390007424000000043E7F442400003C7C404064
:1003A0003C7C40001C3C60603C1C00003C7C60309D
:1003B000607C3C00446C3810386C44009CBCA0A0AD
:1003C000FC7C00004C64745C4C64000008083E77C0
:1003D0004141000000000077770000004141773E76
:1003E0000808000002030103020301006686B070E2
:1003F00070B08666007E424242427E00007E7E7E73
:100400007E7E7E00FF8080808080808001010101EF
:10041000010101FF11241FBECFEFD4E0DEBFCDBF2D
:1004200012E0A0E0B1E0E4E6F7E202C005900D9230
:10043000A23BB107D9F723E0A2EBB2E001C01D92C5
:10044000A434B207E1F70E94E1050C94B0130C94B8
:1004500000008230910571F01CF4019739F01CC046
:100460008330910559F0049769F016C084E18093B8
:1004700000140BC085E18093001407C086E18093CF
:10048000001403C087E18093001482E58A95F1F798
:100490008091001490E0089580E090E00895BA9A69
:1004A000BB9A85B7816085BF85B7826085BF85B7F8
:1004B000846085BF85B7886085BF8BB780648BBF3C
:1004C0008BB780688BBF08951F920F920FB60F9263
:1004D00011242F933F934F935F936F937F938F9349
:1004E0009F93AF93BF93EF93FF930E94CD06FF912D
:1004F000EF91BF91AF919F918F917F916F915F919C
:100500004F913F912F910F900FBE0F901F90189514
:100510001F920F920FB60F9211242F933F934F9378
:100520005F936F937F938F939F93AF93BF93EF935B
:10053000FF930E94C906FF91EF91BF91AF919F91E8
:100540008F917F916F915F914F913F912F910F907C
:100550000FBE0F901F9018959093B4028093B30232
:100560006093B502662341F086EB92E0FC011192A4
:100570002E2F281B2617D8F308950E94080686B749
:100580008E7F86BF8BB780628BBF41E061E08BE2DC
:100590000E94EE0568E088E290E00E94AC020895B7
:1005A0001F920F920FB60F9211248F93F89481E04F
:1005B0008093B20278948F910F900FBE0F901F908E
:1005C00018950F931F93CF93DF93C4E6D0E000916B
:1005D000C8021091C90281E090E00E9429020158EE
:1005E0001F4F081B190B1093C9020093C8020091FA
:1005F000C6021091C70282E090E00E9429020158D1
:100600001F4F081B190B1093C7020093C6022197B6
:100610002097E9F68091C8029091C90224E630E063
:10062000B9010E94E80E7093C9026093C8028091DC
:10063000C6029091C702B9010E94E80E7093C702EA
:100640006093C602DF91CF911F910F9108952F9271
:100650003F924F925F926F927F928F929F92AF9252
:10066000BF92CF92DF92EF92FF920F931F93CF939F
:10067000DF9300D000D000D0CDB7DEB73C017A8345
:1006800069835C834B833E832D8318018501B90107
:10069000882777FD8095982F0E94D50D4B015C012E
:1006A000B3016E0D7F1D29813A81621B730B882770
:1006B00077FD8095982F0E94D50D2B013C01B1014B
:1006C0008D819E81681B790B882777FD8095982FF7
:1006D0000E94D50D9B01AC01C301B2010E94850EA1
:1006E0002B013C016B817C81E981FA816E1B7F0BC0
:1006F000882777FD8095982F0E94D50D9B01AC012E
:10070000C301B2010E943A0D9B01AC01C501B401C5
:100710000E94D20C0E94A20DC101801B910B681790
:10072000790774F58D819E81800F911F8617970739
:100730004CF5F80111230CF43196F595E795D801A5
:1007400012C08A0F9B1FAC014E0F5F1F6417750705
:1007500014F069010BC0C6018E1B9F0B861797070B
:1007600014F0C01AD10AC601801B910B9601200F0C
:10077000311F621773072CF78617970714F704C009
:10078000610102C0CD80DE80C60126960FB6F894C6
:10079000DEBF0FBECDBFDF91CF911F910F91FF90B4
:1007A000EF90DF90CF90BF90AF909F908F907F9011
:1007B0006F905F904F903F902F900895AF92BF92AF
:1007C000CF92DF92EF92FF920F931F93823509F43D
:1007D00074C020F48C3409F44EC091C0883519F0EF
:1007E000893529F18CC0C090C402D090C502E09038
:1007F000C802F090C90281E090E00E9429020F2E09
:10080000FAE0AF2EB12CF02D04E610E02CE93FEF1A
:100810004FEF50E060E070E00E9427039093C50224
:100820008093C4028091C4029091C5026AC0C090B6
:10083000C202D090C302E090C602F090C70282E0EC
:1008400090E00E9429020F2EFAE0AF2EB12CF02D7D
:1008500004E610E02CE93FEF4FEF50E060E070E07D
:100860000E9427039093C3028093C2028091C20228
:100870009091C30246C0C090C002D090C10283E0F4
:1008800090E00E9429020F2EFAE0AF2EB12CF02D3D
:10089000E12CF12C04E610E020E030E04FEF50E0D6
:1008A00060E070E00E9427039093C1028093C00231
:1008B0008091C0029091C10224C0C090BE02D0902D
:1008C000BF0284E090E00E9429020F2EFAE0AF2ED2
:1008D000B12CF02DE12CF12C04E610E020E030E00A
:1008E0004FEF50E060E070E00E9427039093BF025A
:1008F0008093BE028091BE029091BF0202C080E050
:1009000090E01F910F91FF90EF90DF90CF90BF90FC
:10091000AF9008950E94E10288E50E94DE03909363
:10092000C5028093C40289E50E94DE039093C3024E
:100930008093C2028CE40E94DE039093C1028093F4
:10094000C00282E50E94DE039093BF028093BE0244
:100950002091C6023091C7028091C8029091C902CD
:100960003F932F939F938F938CE091E09F938F936E
:100970000E94A30F6091BE027091BF024091C0021D
:100980005091C1022091C2023091C3028091C402F1
:100990009091C5027F936F935F934F933F932F93F3
:1009A0009F938F9385E391E09F938F930E94A30F72
:1009B0008DB79EB740960FB6F8949EBF0FBE8DBF01
:1009C000089521E030E049E050E06DE370E088E117
:1009D00090E00E942F0A21E030E047E250E061E021
:1009E00070E089E090E00E942F0A2DE030E044E2C0
:1009F00050E061E070E087E290E00E942F0A2DE075
:100A000030E042E150E06DE070E084E290E00E946E
:100A10002F0A25E230E048E150E06DE070E082E12D
:100A200090E00E942F0A29E130E04BE150E065E2BE
:100A300070E088E190E00E942F0A29E130E041E275
:100A400050E069E170E08BE190E00E942F0A2DE315
:100A500030E048E150E069E170E081E290E00E941E
:100A60002F0A21E045E46DE38BE30E94500C21E066
:100A700030E047E750E06DE370E088E690E00E94E8
:100A80002F0A21E030E047E750E061E070E089E5BF
:100A900090E00E942F0A2DE030E04CE550E061E04C
:100AA00070E089E590E00E942F0A2DE030E04EE6EC
:100AB00050E06DE070E08CE590E00E942F0A29E1A3
:100AC00030E04BE650E06DE070E08EE690E00E9492
:100AD0002F0A29E130E04FE550E069E170E08BE654
:100AE00090E00E942F0A25E230E042E650E069E102
:100AF00070E08FE590E00E942F0A25E230E048E6A2
:100B000050E065E270E082E690E00E942F0A21E367
:100B100030E045E650E065E270E088E690E00E9453
:100B20002F0A2DE330E048E650E061E370E085E60F
:100B300090E00E942F0A0E94800B2FEF8FEF9EE023
:100B4000215080409040E1F700C000000895F894E3
:100B50008FE190E00E94C60C81E492E09F938F9316
:100B60008AE492E09F938F9386E592E09F938F9320
:100B70008BE592E09F938F930E94A30F85B78068C7
:100B800085BF80B7806280BF0E94FB080E948A0BED
:100B90000E94E1040E94800B0E941B060E948A04AE
:100BA0000E944F028CE30E94930C0E94BD02789435
:100BB0008DB79EB708960FB6F8949EBF0FBE8DBF37
:100BC00008950E94A70587E090E00E94B00881EA9E
:100BD00092E00E94D4090E941B08FDCF1F93CF937F
:100BE000DF93182FD62FC42F0E94850C85E00E941A
:100BF000810C812F0E94810C8D2F0E94810C8C2FE3
:100C00000E94810C0E94870CDF91CF911F91089563
:100C10000E94890C0E94850C80EC0E94810C0E942D
:100C2000870C0E94850C40E460EE8FE00E94EE0588
:100C30000E94870C0895CF93DF93C3E2D3E0D09353
:100C40000A03C093090310920C0310920B03109235
:100C50000E0310920D03E5E0F3E08AEE90E091833D
:100C6000808383E090E0909308038093070327ED4F
:100C700032E030932803209327036FE073E07093F2
:100C80002A036093290310922C0310922B0344EE45
:100C900050E0598348839093260380932503F09373
:100CA000DC02E093DB02C1EFD2E0D093DE02C0931E
:100CB000DD021092E0021092DF024CED50E0D9010B
:100CC0004D935C939093DA028093D9022BEF32E03C
:100CD0003093F6022093F5021092F8021092F70278
:100CE000F093FA02E093F90286ED90E0998388830D
:100CF00082E090E09093F4028093F302D09300039B
:100D0000C093FF021092020310920103F0930403B8
:100D1000E09303034DEC50E0D9014D935C93909325
:100D2000FE028093FD02C9E1D3E0D0931403C09387
:100D300013031092160310921503F0931803E09317
:100D4000170322EC30E0DB012D933C9390931203C8
:100D50008093110370931E0360931D031092200370
:100D600010921F03F0932203E093210328EB30E05D
:100D70003983288390931C0380931B03F093D40240
:100D8000E093D302F093D602E093D502DF91CF91A6
:100D9000089581E08093CC02089581E08093CD0294
:100DA000089580E090E00E94B00860EA70E081EE73
:100DB00092E00E94510F81EE92E00E94D40981E0FE
:100DC0000E94A90B82E090E00E94B00860EB70E006
:100DD00081EE92E00E94510F81EE92E00E94D409D0
:100DE0000E94800B8091CD0281110FC081E80E948A
:100DF0007F0883E090E00E942902969587950E94E3
:100E00007F088091CD02882389F31092CD02089546
:100E10000F931F93CF93DF93C0E08C2F0E94A90BF9
:100E2000CF5FC730D1F780E090E00E94B00869E959
:100E300070E081EE92E00E94510F81EE92E00E94FC
:100E4000D40982E090E00E94B00860EB70E081EE8F
:100E500092E00E94510F81EE92E00E94D4090E941C
:100E6000800B8091CD0281110AC08CEC94E0019737
:100E7000F1F700C000008091CD028823B1F31092F9
:100E8000CD0280E090E00E94D9086BE870E081EE2E
:100E900092E00E94510F81EE92E00E94D409C0E7D7
:100EA000D0E008E710E081E090E00E94D908FE0160
:100EB0006591749181EE92E00E94510F81EE92E073
:100EC0000E94D4090E94800B8091CD0281110AC03A
:100ED0008CEC94E00197F1F700C000008091CD0206
:100EE0008823B1F31092CD022296C017D107D9F60C
:100EF000DF91CF911F910F9108958091D50290912C
:100F0000D60222E08B3F920719F40E94D106089581
:100F10008951934011F40E940807089589E50E94C1
:100F2000DE03873491054CF12091CA023091CB0247
:100F30002734310514F5E091D502F091D602828173
:100F400093810197181619068CF480E090E00480D4
:100F5000F581E02D019622813381215031098217DC
:100F60009307ACF3F093D602E093D50284E690E0C9
:100F70009093CB028093CA0225C08A3B2FEF920741
:100F8000C4F42091CA023091CB022A3B3F4F8CF02F
:100F9000E091D502F091D602848195819093D6029A
:100FA0008093D5028CE99FEF9093CB028093CA0285
:100FB00009C08B5B9F4F8B38910520F41092CB02B8
:100FC0001092CA028091CD028130B1F41092CD020C
:100FD000E091D502F091D60286819781009749F081
:100FE0009093D4028093D3029093D6028093D5023B
:100FF0001FC00E947D071CC08091CC028130C1F4CB
:101000001092CC02E091D502F091D60280859185B4
:10101000009771F0E091D302F091D40220853185E0
:101020003093D4022093D3029093D6028093D502BA
:1010300080E090E008950F931F93CF93DF930E9479
:101040008E07892B09F04AC0C0E08C2F0E94A90BA3
:10105000CF5FC730D1F7E091D302F091D402828103
:10106000938118161906D4F5C0E0D0E010E801E825
:10107000CE010E94B00880E090E00E94D208E0918A
:10108000D302F091D4026081718181EE92E00E94DE
:10109000510F2091D3023091D4028091D5029091CA
:1010A000D6022817390711F4802F01C0812F0E9422
:1010B000880981EE92E00E94D409E091D302F09178
:1010C000D4020480F581E02DF093D402E093D302A2
:1010D000219682819381C817D90754F20E94A80CE7
:1010E000882341F00E94800B0E94AB0C61E087E0F6
:1010F0000E94D20BDF91CF911F910F910895E09143
:101100000A01F0910B01808308951092D20210928F
:10111000D1021092D0021092CF02E0910A01F09118
:101120000B0181E28083E0910A01F0910B011082B2
:10113000E0910A01F0910B018FE78083E0910A01B1
:10114000F0910B0182E28083E0910A01F0910B01A2
:101150001082E0910A01F0910B0187E080830895ED
:10116000CF93DF93EC010E948508D093D202C09305
:10117000D102CE0187709927892B89F0E0910A016D
:10118000F0910B011082E0910A01F0910B0180E1D6
:101190008083C06BE0910A01F0910B01C083DF9165
:1011A000CF9108958F7799279093D0028093CF02A3
:1011B0000895CF93DF93EC010E94B008289750F474
:1011C00080E890E0E0910801F09109011082019718
:1011D0000097C1F7DF91CF910895CF93DF93C0E0DF
:1011E000D0E0CE010E94D9082196C830D105C9F7B8
:1011F000DF91CF91089585B7806885BF80B7806201
:1012000080BFE0910A01F0910B018EEA8083E091AA
:101210000A01F0910B0181EA8083E0910A01F091CB
:101220000B018AED8083E0910A01F0910B0182E1CC
:101230008083E0910A01F0910B0188EC8083E091BA
:101240000A01F0910B0188EA8083E0910A01F09194
:101250000B018FE38083E0910A01F0910B0185ED92
:101260008083E0910A01F0910B0180E88083E09196
:101270000A01F0910B0181E88083E0910A01F0916D
:101280000B0180E58083E0910A01F0910B0189ED6B
:101290008083E0910A01F0910B0181E28083E0916B
:1012A0000A01F0910B0180E28083E0910A01F09144
:1012B0000B011082E0910A01F0910B018BED80830C
:1012C000E0910A01F0910B0180E38083E0910A0133
:1012D000F0910B018DEA8083E0910A01F0910B01FE
:1012E0001082E0910A01F0910B0184EA8083E09181
:1012F0000A01F0910B0186EA8083E0910A01F091E6
:101300000B018FEA80830E94ED080E9485080895F2
:101310008A3089F48091D1029091D202019687702F
:1013200099279093D2028093D1021092D00210920A
:10133000CF0281E00895882399F1E82FF0E0EE0FC5
:10134000FF1FEE0FFF1FEE0FFF1FEC50F04080E07D
:1013500090E0A091D102B091D202B695BA2FAA27FF
:10136000B795A7952091CF023091D002A20FB31F5D
:101370002091060130910701A20FB31F24912C93F5
:101380002091CF023091D0022F5F3F4F3093D00297
:101390002093CF020196319688309105D1F602C094
:1013A00080E0089581E00895CF93DF93EC01899167
:1013B0000E9488098111FBCFDF91CF91089587703A
:1013C0009078992324F40197886F9F6F0196FC0110
:1013D000F695FE2FEE27F795E7956F7770787723D0
:1013E00034F46150710960687F6F6F5F7F4F6E0FDB
:1013F0007F1FE0910601F0910701E60FF71F808142
:10140000482B408308958038910528F56034710594
:1014100020F59B0127703078332334F421503109B3
:10142000286F3F6F2F5F3F4F41E050E002C0440FF5
:10143000551F2A95E2F7FB01FF230CF43796BC01F8
:10144000CF019595879595958795959587950E9458
:10145000DF0981E0089580E0089580E008952F92EB
:101460003F924F925F926F927F928F929F92AF9234
:10147000BF92CF92DF92EF92FF920F931F93CF9381
:10148000DF93CDB7DEB760970FB6F894DEBF0FBE1F
:10149000CDBF1C017A8769875C874B8738872F838C
:1014A000481759070CF4BEC08417950709F493C078
:1014B000B90129853A85621B730B882777FD8095D2
:1014C000982F0E94D50D6B017C016B857C8562197C
:1014D0007309882777FD8095982F0E94D50D9B0171
:1014E000AC01C701B6010E943A0D6B837C838D83EA
:1014F0009E83B101882777FD8095982F0E94D50D96
:1015000069837A83E82EF92EEB85FC85BF01882755
:1015100077FD8095982F0E94D50D4B015C019B01B2
:10152000AC0169817A818E2D9F2D0E94360D882312
:101530000CF051C01981CA800F2D29853A852901E7
:10154000662457FC6094762C3E862D862E2C3F2CEC
:10155000C88AEF8629813A81422D532D612F7889DF
:101560008F85902F0E94D10C2B813C814D815E8113
:101570000E94850E6B017C01C301B2010E94D50D52
:101580009B01AC01C701B6010E94D20C0E94A20DC2
:101590006B017C01612F78898F85902F0E94A20DAD
:1015A000DC01CB01B6010E94030A2DEC3CEC4CECB3
:1015B0005DE3612F78898F85902F0E94D20C162FC2
:1015C000788B8F87092FA50194010E94360D8823FF
:1015D0000CF22D843E8489859A85EF81F885E81781
:1015E000F90734F499858A85FA87E9879F83888784
:1015F0002B853C852216330609F046C0F98469859F
:101600007A8577278F81988568177907ECF58C01A3
:10161000C1010E94030AF3946F2D70E060177107F7
:10162000BCF332C069857A85EF81F8856E1B7F0B2C
:10163000882777FD8095982F0E94D50D6B017C013E
:10164000B1012B853C85621B730B882777FD809544
:10165000982F0E94D50D9B01AC01C701B6010E94D5
:101660003A0D6B837C838D839E8399858A85EF8178
:10167000F885FA87E9879F838887922D832D2B84AD
:101680003C849B878C8735CF60960FB6F894DEBF7D
:101690000FBECDBFDF91CF911F910F91FF90EF90C3
:1016A000DF90CF90BF90AF909F908F907F906F9082
:1016B0005F904F903F902F900895CF93DF93C82F66
:1016C000D0E0CE010E94B008CE019695982F8827D1
:1016D000979587959C0120583F4FE0910601F09126
:1016E0000701E80FF91F4081E0910801F09109011D
:1016F000408301968217930781F7DF91CF91089578
:10170000CF93C0E08C2F0E945D0BCF5FC830D1F724
:10171000CF91089540E050E070E060E014C09C017B
:10172000240F351FE0910601F0910701E20FF31F2E
:10173000108201968038910591F740585F4F41150E
:1017400084E0580719F0872F962FE9CF0E94800B6D
:101750000895CF93C82F90E00E94B008C83000F5DC
:1017600080E8C89F90011124A90140585F4FE09183
:101770000601F0910701E20FF31F10822F5F3F4F28
:1017800024173507A1F721E030E0C90102C0880F16
:10179000991FCA95E2F79091CE02892B8093CE02D1
:1017A000CF910895EF92FF921F93CF93DF93D82F9D
:1017B000C62F693020F0C8506C2F0E94D20BCC236A
:1017C00009F45CC0A0910601B091070120E8D29F06
:1017D000A00DB11D11248DE293E0FC012D91219308
:1017E0002E2F281B2C17D0F38C2F90E060E870E090
:1017F000681B790B161617060CF444C018C04091EC
:101800000601509107012E0D3F1DFA01E20FF31F53
:10181000280F391F420F531FDA012C9120831F5FBD
:10182000212F30E02617370754F3CC23D1F0B0E84E
:10183000DB9F90011124281B390B4DE253E0FA0184
:101840002E5A3240C9018E0F9F1FA0910601B09100
:101850000701A80FB91F81918C938E2F841B8C17C1
:1018600088F381E090E002C0880F991FDA95E2F7D3
:10187000D091CE028D2B8093CE020CC060E870E038
:1018800080E090E020E8D29F7001112420E030E059
:1018900010E0B5CFDF91CF911F91FF90EF900895A9
:1018A000CF92DF92EF92FF920F931F93CF93DF932C
:1018B000C42FE22EF12C062F10E0C82ED12C970158
:1018C000A601B801C6010E942F0AD0E09801AE011E
:1018D000B801C6010E942F0A9701AE01B701C601E7
:1018E0000E942F0A9701AE01B801CE010E942F0A73
:1018F000DF91CF911F910F91FF90EF90DF90CF90EC
:1019000008958FB9779BFECF0895C4980895C49A1F
:10191000089587B3806B87BBBE986C9A6E9A709A55
:101920000E94870C0895282F89B7816089BF83B7EB
:101930008D6083BF30E040E050E060EC72E180E019
:1019400090E00E94FC0E21BF81E08093390308954E
:101950008091390308951092390308951F920F92D0
:101960000FB60F9211248F9381E0809339038F91EA
:101970000F900FBE0F901F9018955D9BFECF8CB9F6
:1019800008955F9BFECF8CB190E0089590BD89B91A
:1019900088E18AB961EC7CE08DEB9CE00E94580FF5
:1019A00008955058BB27AA270ED075C166D130F0D4
:1019B0006BD120F031F49F3F11F41EF45BC10EF4A3
:1019C000E095E7FB51C1E92F77D180F3BA176207A1
:1019D00073078407950718F071F49EF58FC10EF414
:1019E000E0950B2EBA2FA02D0B01B90190010C012F
:1019F000CA01A0011124FF27591B99F0593F50F447
:101A0000503E68F11A16F040A22F232F342F44279E
:101A1000585FF3CF469537952795A795F040539596
:101A2000C9F77EF41F16BA0B620B730B840BBAF066
:101A30009150A1F0FF0FBB1F661F771F881FC2F7D1
:101A40000EC0BA0F621F731F841F48F487957795E5
:101A50006795B795F7959E3F08F0B3CF9395880F9C
:101A600008F09927EE0F979587950895D9D008F437
:101A700081E008950CD00FC107D140F0FED030F0C6
:101A800021F45F3F19F0F0C0511139C1F3C014D1F6
:101A900098F39923C9F35523B1F3951B550BBB2735
:101AA000AA2762177307840738F09F5F5F4F220FE2
:101AB000331F441FAA1FA9F333D00E2E3AF0E0E8DB
:101AC00030D091505040E695001CCAF729D0FE2F27
:101AD00027D0660F771F881FBB1F261737074807B9
:101AE000AB07B0E809F0BB0B802DBF01FF2793586F
:101AF0005F4F2AF09E3F510568F0B6C000C15F3FBE
:101B0000ECF3983EDCF3869577956795B795F79556
:101B10009F5FC9F7880F911D9695879597F908954E
:101B2000E1E0660F771F881FBB1F621773078407EA
:101B3000BA0720F0621B730B840BBA0BEE1F88F7F9
:101B4000E095089504D06894B111D9C00895BCD02F
:101B500088F09F5790F0B92F9927B751A0F0D1F096
:101B6000660F771F881F991F1AF0BA95C9F712C020
:101B7000B13081F0C3D0B1E00895C0C0672F782F95
:101B80008827B85F39F0B93FCCF38695779567958C
:101B9000B395D9F73EF490958095709561957F4FF8
:101BA0008F4F9F4F0895E89409C097FB3EF490959E
:101BB0008095709561957F4F8F4F9F4F9923A9F026
:101BC000F92F96E9BB279395F695879577956795B5
:101BD000B795F111F8CFFAF4BB0F11F460FF1BC0F9
:101BE0006F5F7F4F8F4F9F4F16C0882311F096E98C
:101BF00011C0772321F09EE8872F762F05C066233A
:101C000071F096E8862F70E060E02AF09A95660FF2
:101C1000771F881FDAF7880F9695879597F90895AB
:101C2000990F0008550FAA0BE0E8FEEF16161706ED
:101C3000E807F907C0F012161306E407F50798F055
:101C4000621B730B840B950B39F40A2661F0232B6E
:101C5000242B252B21F408950A2609F4A140A695EA
:101C60008FEF811D811D089597F99F6780E870E0CF
:101C700060E008959FEF80EC089500240A94161602
:101C8000170618060906089500240A94121613066A
:101C9000140605060895092E0394000C11F48823F8
:101CA00052F0BB0F40F4BF2B11F460FF04C06F5F14
:101CB0007F4F8F4F9F4F089557FD9058440F551FEA
:101CC00059F05F3F71F04795880F97FB991F61F0BE
:101CD0009F3F79F087950895121613061406551F35
:101CE000F2CF4695F1DF08C0161617061806991FA1
:101CF000F1CF86957105610508940895E894BB2796
:101D000066277727CB0197F908950BD0C4CFB5DFAD
:101D100028F0BADF18F0952309F0A6CFABCF112435
:101D2000EECFCADFA0F3959FD1F3950F50E0551F7A
:101D3000629FF001729FBB27F00DB11D639FAA2720
:101D4000F00DB11DAA1F649F6627B00DA11D661F6F
:101D5000829F2227B00DA11D621F739FB00DA11D90
:101D6000621F839FA00D611D221F749F3327A00D4A
:101D7000611D231F849F600D211D822F762F6A2FE6
:101D800011249F5750408AF0E1F088234AF0EE0F6B
:101D9000FF1FBB1F661F771F881F91505040A9F778
:101DA0009E3F510570F060CFAACF5F3FECF3983EA5
:101DB000DCF3869577956795B795F795E7959F5FDF
:101DC000C1F7FE2B880F911D9695879597F9089579
:101DD00097FB072E16F4009407D077FD09D00E94D8
:101DE0001B0F07FC05D03EF4909581959F4F0895F9
:101DF000709561957F4F0895052E97FB1EF4009412
:101E00000E94130F57FD07D00E942F0F07FC03D02D
:101E10004EF40C94130F50954095309521953F4FFB
:101E20004F4F5F4F089590958095709561957F4FC6
:101E30008F4F9F4F0895AA1BBB1B51E107C0AA1FDC
:101E4000BB1FA617B70710F0A61BB70B881F991F5B
:101E50005A95A9F780959095BC01CD010895A1E20E
:101E60001A2EAA1BBB1BFD010DC0AA1FBB1FEE1F14
:101E7000FF1FA217B307E407F50720F0A21BB30B5F
:101E8000E40BF50B661F771F881F991F1A9469F7DB
:101E900060957095809590959B01AC01BD01CF0137
:101EA0000895FB01DC0105900D920020E1F70895F3
:101EB0000F931F93CF93DF93EC018B01009731F4C5
:101EC0006115710519F480E090E038C06EE070E0B3
:101ED00081E090E00E948911FC010097A1F380E865
:101EE00083830115110571F01387028781E88383CD
:101EF00080913A0390913B03892B21F4F0933B03AB
:101F0000E0933A032097C9F0D187C087838182602C
:101F1000838380913C0390913D03892B71F4F0936E
:101F20003D03E0933C0380913E0390913F03892B56
:101F300021F4F0933F03E0933E03CF01DF91CF9173
:101F40001F910F910895A0E0B0E0E9EAFFE00C9442
:101F50008913FE01359661917191AF0180913C0327
:101F600090913D030E94B70FE2E00C94A513ACE002
:101F7000B0E0EDEBFFE00C9479137C016B018A017A
:101F8000FC0117821682838181FFBDC1CE010196BB
:101F90004C01F7019381F60193FD859193FF8191A7
:101FA0006F01882309F4ABC1853239F493FD859123
:101FB00093FF81916F01853229F4B70190E00E946F
:101FC000E912E7CF512C312C20E02032A0F48B32E3
:101FD00069F030F4803259F0833269F420612CC00A
:101FE0008D3239F0803339F4216026C022602460BC
:101FF00023C0286021C027FD27C030ED380F3A30BC
:1020000078F426FF06C0FAE05F9E300D1124532EAF
:1020100013C08AE0389E300D1124332E20620CC08C
:102020008E3221F426FD6BC1206406C08C3611F47B
:10203000206802C0883641F4F60193FD859193FF34
:1020400081916F018111C1CF982F9F7D955493305D
:1020500028F40C5F1F4FFFE3F9830DC0833631F086
:10206000833771F0833509F05BC022C0F8018081AD
:1020700089830E5F1F4F44244394512C540115C093
:102080003801F2E06F0E711CF801A080B18026FFCC
:1020900003C0652D70E002C06FEF7FEFC5012C8794
:1020A0000E94DE122C0183012C852F77222E17C06F
:1020B0003801F2E06F0E711CF801A080B18026FF9C
:1020C00003C0652D70E002C06FEF7FEFC5012C8764
:1020D0000E94CC122C012C852068222E830123FC27
:1020E0001BC0832D90E048165906B0F4B70180E27A
:1020F00090E00E94E9123A94F4CFF50127FC859113
:1021000027FE81915F01B70190E00E94E912311032
:102110003A94F1E04F1A51084114510471F7E5C0A7
:10212000843611F0893639F5F80127FF07C0608140
:102130007181828193810C5F1F4F08C06081718122
:10214000882777FD8095982F0E5F1F4F2F76B22E30
:1021500097FF09C090958095709561957F4F8F4F3F
:102160009F4F2068B22E2AE030E0A4010E941B138A
:10217000A82EA81844C0853729F42F7EB22E2AE055
:1021800030E025C0F22FF97FBF2E8F36C1F018F452
:10219000883579F0B4C0803719F0883721F0AFC0A6
:1021A0002F2F2061B22EB4FE0DC08B2D8460B82E6F
:1021B00009C024FF0AC09F2F9660B92E06C028E0F0
:1021C00030E005C020E130E002C020E132E0F8015B
:1021D000B7FE07C060817181828193810C5F1F4FC0
:1021E00006C06081718180E090E00E5F1F4FA40106
:1021F0000E941B13A82EA818FB2DFF77BF2EB6FE3A
:102200000BC02B2D2E7FA51450F4B4FE0AC0B2FCD7
:1022100008C02B2D2E7E05C07A2C2B2D03C07A2CC6
:1022200001C0752C24FF0DC0FE01EA0DF11D808157
:10223000803311F4297E09C022FF06C07394739481
:1022400004C0822F867809F0739423FD13C020FF09
:1022500006C05A2C731418F4530C5718732C7314AB
:1022600068F4B70180E290E02C870E94E912739431
:102270002C85F5CF731410F4371801C0312C24FFCE
:1022800012C0B70180E390E02C870E94E9122C85F0
:1022900022FF17C021FF03C088E590E002C088E755
:1022A00090E0B7010CC0822F867859F021FD02C062
:1022B00080E201C08BE227FD8DE2B70190E00E9431
:1022C000E912A51438F4B70180E390E00E94E91206
:1022D0005A94F7CFAA94F401EA0DF11D8081B70159
:1022E00090E00E94E912A110F5CF332009F451CEFD
:1022F000B70180E290E00E94E9123A94F6CFF7012C
:102300008681978102C08FEF9FEF2C96E2E10C94BB
:1023100095130F931F93CF93DF93869F8001879F21
:10232000100D969F100D1124C8010E94A511EC01FB
:10233000009729F0A80160E070E00E94D712CE015A
:10234000DF91CF911F910F910895CF93DF9382304A
:10235000910510F482E090E0E0914203F091430394
:1023600020E030E0A0E0B0E0309739F140815181C9
:1023700048175907B8F04817590771F482819381BB
:10238000109729F013969C938E9312972CC09093DC
:1023900043038093420327C02115310531F04217D2
:1023A000530718F0A901DB0101C0EF019A01BD013B
:1023B000DF010280F381E02DD7CF21153105F9F03F
:1023C000281B390B2430310580F48A819B816115EB
:1023D000710521F0FB019383828304C09093430332
:1023E00080934203FE01329644C0FE01E20FF31FC8
:1023F0008193919322503109398328833AC02091E7
:10240000400330914103232B41F42091020130918C
:102410000301309341032093400320910001309148
:1024200001012115310541F42DB73EB7409104015A
:1024300050910501241B350BE0914003F0914103BD
:10244000E217F307A0F42E1B3F0B2817390778F08B
:10245000AC014E5F5F4F2417350748F04E0F5F1FEA
:1024600050934103409340038193919302C0E0E075
:10247000F0E0CF01DF91CF910895CF93DF930097E4
:1024800009F487C0FC01329713821282C091420383
:10249000D0914303209781F420813181280F391F87
:1024A00080914003909141038217930779F5F0934F
:1024B0004103E09340036DC0DE0120E030E0AE1741
:1024C000BF0750F412964D915C9113979D014115F1
:1024D000510509F1DA01F3CFB383A2834081518121
:1024E000840F951F8A179B0771F48D919C9111970A
:1024F000840F951F02969183808312968D919C91F3
:102500001397938382832115310529F4F0934303B4
:10251000E09342033EC0D9011396FC93EE931297C9
:102520004D915D91A40FB51FEA17FB0779F48081E7
:102530009181840F951F0296D90111969C938E93D9
:102540008281938113969C938E931297E0E0F0E042
:102550008A819B81009719F0FE01EC01F9CFCE0131
:10256000029628813981820F931F20914003309178
:1025700041032817390769F4309729F4109243036F
:102580001092420302C013821282D0934103C0937F
:102590004003DF91CF910895FC0105906150704098
:1025A0000110D8F7809590958E0F9F1F0895DC013C
:1025B00001C06D9341505040E0F70895FC01615017
:1025C000704001900110D8F7809590958E0F9F1F55
:1025D00008950F931F93CF93DF93182F092FEB01CB
:1025E0008B8181FD03C08FEF9FEF20C082FF10C061
:1025F0004E815F812C813D81421753077CF4E88135
:10260000F9819F012F5F3F4F39832883108306C0D4
:10261000E885F985812F0995892B29F72E813F813E
:102620002F5F3F4F3F832E83812F902FDF91CF91DC
:102630001F910F910895FA01AA27283051F12031F6
:1026400081F1E8946F936E7F6E5F7F4F8F4F9F4F46
:10265000AF4FB1E03ED0B4E03CD0670F781F891F88
:102660009A1FA11D680F791F8A1F911DA11D6A0F56
:10267000711D811D911DA11D20D009F468943F9109
:102680002AE0269F11243019305D3193DEF6CF0108
:102690000895462F4770405D4193B3E00FD0C9F7CE
:1026A000F6CF462F4F70405D4A3318F0495D31FD3B
:1026B0004052419302D0A9F7EACFB4E0A69597958E
:1026C000879577956795BA95C9F700976105710564
:1026D00008959B01AC010A2E0694579547953795AE
:1026E0002795BA95C9F7620F731F841F951FA01D08
:1026F00008952F923F924F925F926F927F928F92A6
:102700009F92AF92BF92CF92DF92EF92FF920F9380
:102710001F93CF93DF93CDB7DEB7CA1BDB0B0FB68A
:10272000F894DEBF0FBECDBF09942A883988488847
:102730005F846E847D848C849B84AA84B984C884DD
:10274000DF80EE80FD800C811B81AA81B981CE0FD4
:10275000D11D0FB6F894DEBF0FBECDBFED010895B9
:04276000F894FFCF1B
:1027640000004403200000180012001043616C694B
:1027740062726174696F6E2076616C7565733A205C
:102784000963616C5F583A2025690963616C5F597C
:102794003A25690A005265666572656E636520565E
:1027A400616C7565733A20095820256909592025FB
:1027B40069094C2025690952202569090A005374C6
:1027C400617274696E67205352414D20746573744D
:1027D4002E2E2E005772697465207068617365200F
:1027E4006572726F723A206578745F72616D5B25F1
:1027F40034645D203D2025303258202873686F757D
:102804006C642062652025303258290A00526574B0
:1028140072696576616C2070686173652065727297
:102824006F723A206578745F72616D5B2534645D04
:10283400203D2025303258202873686F756C642041
:1028440062652025303258290A005352414D2074C4
:1028540065737420636F6D706C657465642077694B
:1028640074680A253464206572726F727320696E0D
:1028740020777269746520706861736520616E6485
:102884000A253464206572726F727309696E20724E
:10289400657472696576616C2070686173650A0A93
:1028A4000032313A30353A3135004F6374203138D3
:1028B4002032303137006C366432004C4F41444989
:1028C4004E47206731375F25732025732025730A0F
:1028D400494E495449414C495A494E472E2E2E0AD5
:1028E4000A55415254207375636365737366756C3E
:1028F4006C7920696E697469616C697A65640A0A25
:1029040000202D204259474745524E202D20473163
:0229140037008A
:00000001FF
