:100000000C940A020C9464020C94C2020C94270211
:100010000C9427020C9427020C9427020C942702BC
:100020000C9427020C9427020C9427020C942702AC
:100030000C9427020C9427020C9427020C9427029C
:100040000C9427020C9427020C9427020C9427028C
:100050000C9427020C9427020C9427020C9427027C
:100060000C9427020C9427020C9427020C9427026C
:10007000880083007E0078005249474854004C4570
:10008000465400444F574E00555000486F6C642052
:100090004A6F79737469636B004C657420676F00F5
:1000A000557365206C65667420736C6964657200B5
:1000B0002D3E525F42544E0043616C69627261741E
:1000C00065006669742073637265656E00436F6EC8
:1000D0007472617374004D75736963004F70746955
:1000E0006F6E730044656275670048696768736383
:1000F0006F726500000000000000000000065F5FF6
:10010000060000000007070007070000147F7F14A7
:100110007F7F1400242E6B6B3A1200004666301865
:100120000C666200307A4F5D377A4800040703009E
:1001300000000000001C3E63410000000041633EDF
:100140001C000000082A3E1C1C3E2A0808083E3EEF
:100150000808000000A0E06000000000080808088F
:100160000808000000006060000000006030180C0B
:10017000060301003E7F594D7F3E000042427F7FD3
:1001800040400000627359496F660000226349498C
:100190007F360000181C16137F7F10002767454527
:1001A0007D3900003C7E4B497930000003637119B2
:1001B0000F070000367F49497F360000064F496926
:1001C0003F1E000000006C6C0000000000A0EC6C02
:1001D00000000000081C36634100000014141414D1
:1001E00014140000004163361C080000020351593A
:1001F0000F0600003E7F415D5D1F1E007C7E1313D5
:100200007E7C0000417F7F49497F36001C3E634170
:1002100041632200417F7F41637F1C00417F7F4912
:100220005D416300417F7F491D0103001C3E634126
:10023000517372007F7F08087F7F000000417F7F3D
:1002400041000000307040417F3F0100417F7F0846
:100250001C776300417F7F41406070007F7F060C08
:10026000067F7F007F7F060C187F7F001C3E634166
:10027000633E1C00417F7F49090F06001E3F21712C
:100280007F5E0000417F7F19396F460026674D5918
:100290007B32000003417F7F410300007F7F4040AD
:1002A0007F7F00001F3F60603F1F00007F7F30188E
:1002B000307F7F0063771C081C776300074F7878D6
:1002C0004F0700006773594D47637100007F7F41FE
:1002D000410000000103060C183060000041417F1E
:1002E0007F000000080C0603060C08008080808058
:1002F00080808080000003070400000020745454B4
:100300003C784000413F7F44447C3800387C444482
:100310006C280000307848493F7F4000387C5454B6
:100320005C180000487E7F490302000098BCA4A42A
:10033000F87C0400417F7F08047C780000447D7DC8
:100340004000000040C484FD7D000000417F7F101C
:10035000386C440000417F7F400000007C7C0C181A
:100360000C7C78007C7C04047C780000387C44445D
:100370007C38000084FCF8A4243C1800183C24A419
:10038000F8FC8400447C78441C180000485C5454F9
:100390007424000000043E7F442400003C7C404064
:1003A0003C7C40001C3C60603C1C00003C7C60309D
:1003B000607C3C00446C3810386C44009CBCA0A0AD
:1003C000FC7C00004C64745C4C64000008083E77C0
:1003D0004141000000000077770000004141773E76
:1003E0000808000002030103020301006686B070E2
:1003F00070B08666007E424242427E00007E7E7E73
:100400007E7E7E00FF8080808080808001010101EF
:10041000010101FF11241FBECFEFD4E0DEBFCDBF2D
:1004200013E0A0E0B1E0EAECF9E202C005900D9221
:10043000AE3AB107D9F724E0AEEAB3E001C01D92AD
:10044000A133B207E1F70E9475060C94E3140C94F3
:1004500000008230910571F01CF4019739F01CC046
:100460008330910559F0049769F016C084E18093B8
:1004700000140BC085E18093001407C086E18093CF
:10048000001403C087E18093001482E58A95F1F798
:100490008091001490E0089580E090E00895BA9A69
:1004A000BB9A85B7816085BF85B7826085BF85B7F8
:1004B000846085BF85B7886085BF8BB780648BBF3C
:1004C0008BB780688BBF08951F920F920FB60F9263
:1004D0001124EF92FF920F931F932F933F934F930B
:1004E0005F936F937F938F939F93AF93BF93CF93BC
:1004F000DF93EF93FF9380E191E09F938F930E94AE
:10050000461082E50E94E303F82EE92E8CE40E9457
:10051000E303182F092F89E50E94E303C82FD92F81
:1005200088E50E94E303EF92FF920F931F93DF93FE
:10053000CF939F938F9389E391E09F938F930E9432
:1005400046100E9448078DB79EB70C960FB6F894D8
:100550009EBF0FBE8DBFFF91EF91DF91CF91BF91F5
:10056000AF919F918F917F916F915F914F913F914B
:100570002F911F910F91FF90EF900F900FBE0F9052
:100580001F9018951F920F920FB60F9211242F9360
:100590003F934F935F936F937F938F939F93AF930B
:1005A000BF93EF93FF930E944407FF91EF91BF9198
:1005B000AF919F918F917F916F915F914F913F91FB
:1005C0002F910F900FBE0F901F9018950F931F93B0
:1005D000CF93DF93C4E6D0E00091B8031091B90344
:1005E00081E090E00E94290201581F4F081B190B5F
:1005F0001093B9030093B8030091B6031091B703A9
:1006000082E090E00E94290201581F4F081B190B3D
:100610001093B7030093B60321972097E9F68091D2
:10062000B8039091B90324E630E0B9010E946E0F3F
:100630007093B9036093B8038091B6039091B703A8
:10064000B9010E946E0F7093B7036093B603DF91F8
:10065000CF911F910F9108952F923F924F925F92E9
:100660006F927F928F929F92AF92BF92CF92DF92C2
:10067000EF92FF920F931F93CF93DF9300D000D0A0
:1006800000D0CDB7DEB73C017A8369835C834B83AE
:100690003E832D8318018501B901882777FD809558
:1006A000982F0E945B0E4B015C01B3016E0D7F1D04
:1006B00029813A81621B730B882777FD8095982FDB
:1006C0000E945B0E2B013C01B1018D819E81681B54
:1006D000790B882777FD8095982F0E945B0E9B01F0
:1006E000AC01C301B2010E940B0F2B013C016B81D5
:1006F0007C81E981FA816E1B7F0B882777FD8095CD
:10070000982F0E945B0E9B01AC01C301B2010E94B5
:10071000C00D9B01AC01C501B4010E94580D0E949F
:10072000280EC101801B910B6817790774F58D8124
:100730009E81800F911F861797074CF5F8011123B2
:100740000CF43196F595E795D80112C08A0F9B1FDE
:10075000AC014E0F5F1F6417750714F069010BC0E1
:10076000C6018E1B9F0B8617970714F0C01AD10A7B
:10077000C601801B910B9601200F311F6217730772
:100780002CF78617970714F704C0610102C0CD80CB
:10079000DE80C60126960FB6F894DEBF0FBECDBF31
:1007A000DF91CF911F910F91FF90EF90DF90CF904D
:1007B000BF90AF909F908F907F906F905F904F9081
:1007C0003F902F900895AF92BF92CF92DF92EF9219
:1007D000FF920F931F93823509F474C020F48C3478
:1007E00009F44EC091C0883519F0893529F18CC0C3
:1007F000C090B403D090B503E090B803F090B90373
:1008000081E090E00E9429020F2EFAE0AF2EB12C79
:10081000F02D04E610E02CE93FEF4FEF50E060E0F0
:1008200070E00E942C039093B5038093B4038091F1
:10083000B4039091B5036AC0C090B203D090B303E3
:10084000E090B603F090B70382E090E00E942902A6
:100850000F2EFAE0AF2EB12CF02D04E610E02CE9BB
:100860003FEF4FEF50E060E070E00E942C03909368
:10087000B3038093B2038091B2039091B30346C057
:10088000C090B003D090B10383E090E00E942902B1
:100890000F2EFAE0AF2EB12CF02DE12CF12C04E656
:1008A00010E020E030E04FEF50E060E070E00E94A8
:1008B0002C039093B1038093B0038091B003909187
:1008C000B10324C0C090AE03D090AF0384E090E0A9
:1008D0000E9429020F2EFAE0AF2EB12CF02DE12C50
:1008E000F12C04E610E020E030E04FEF50E060E053
:1008F00070E00E942C039093AF038093AE0380912D
:10090000AE039091AF0302C080E090E01F910F9181
:10091000FF90EF90DF90CF90BF90AF9008950E942E
:10092000E60288E50E94E3039093B5038093B40345
:1009300089E50E94E3039093B3038093B2038CE4B0
:100940000E94E3039093B1038093B00382E50E9479
:10095000E3039093AF038093AE032091B6033091ED
:10096000B7038091B8039091B9033F932F939F935E
:100970008F9382E591E09F938F930E944610609140
:10098000AE037091AF034091B0035091B103209139
:10099000B2033091B3038091B4039091B5037F9378
:1009A0006F935F934F933F932F939F938F938BE717
:1009B00091E09F938F930E9446108DB79EB740960B
:1009C0000FB6F8949EBF0FBE8DBF0895CF92DF92F1
:1009D000EF92FF920F931F93CF93DF9384EA91E0FE
:1009E0000E945A100E94E40F6C010E94E90FC0E0BF
:1009F000D0E000E010E00F2EFAEBEF2EF1E0FF2E3A
:100A0000F02D0E94E40FFE01F85E808320812817FC
:100A1000A9F099279F938F931F922F93DF93CF93E2
:100A2000FF92EF920E9446100F5F1F4F8DB79EB747
:100A300008960FB6F8949EBF0FBE8DBF2196C115C4
:100A400098E0D907F1F6C6010E94E90FC0E0D0E0B6
:100A5000E12CF12C0F2EF3EFCF2EF1E0DF2EF02D55
:100A60000E94E40FFE01F85E20812817B1F099275B
:100A70009F938F931F922F93DF93CF93DF92CF9209
:100A80000E9446108FEFE81AF80A8DB79EB70896B5
:100A90000FB6F8949EBF0FBE8DBF2196C11598E08A
:100AA000D907F1F6FF92EF921F930F9380E392E044
:100AB0009F938F930E9446100F900F900F900F906E
:100AC0000F900F90DF91CF911F910F91FF90EF90BA
:100AD000DF90CF90089521E030E049E050E06DE3F1
:100AE00070E088E190E00E94BA0A21E030E047E23D
:100AF00050E061E070E089E090E00E94BA0A2DE0E9
:100B000030E044E250E061E070E087E290E00E9473
:100B1000BA0A2DE030E042E150E06DE070E084E29E
:100B200090E00E94BA0A25E230E048E150E06DE032
:100B300070E082E190E00E94BA0A29E130E04BE1E6
:100B400050E065E270E088E190E00E94BA0A29E195
:100B500030E041E250E069E170E08BE190E00E941A
:100B6000BA0A2DE330E048E150E069E170E081E24B
:100B700090E00E94BA0A21E045E46DE38BE30E9415
:100B8000120D21E030E047E750E06DE370E088E6C9
:100B900090E00E94BA0A21E030E047E750E061E0CF
:100BA00070E089E590E00E94BA0A2DE030E04CE563
:100BB00050E061E070E089E590E00E94BA0A2DE023
:100BC00030E04EE650E06DE070E08CE590E00E9491
:100BD000BA0A29E130E04BE650E06DE070E08EE6C5
:100BE00090E00E94BA0A29E130E04FE550E069E167
:100BF00070E08BE690E00E94BA0A25E230E042E61F
:100C000050E069E170E08FE590E00E94BA0A25E2C9
:100C100030E048E650E065E270E082E690E00E9455
:100C2000BA0A21E330E045E650E065E270E088E68C
:100C300090E00E94BA0A2DE330E048E650E061E31C
:100C400070E085E690E00E94BA0A0895F8948FE17A
:100C500090E00E944C0D87E892E09F938F9380E98B
:100C600092E09F938F938CE992E09F938F9381EA18
:100C700092E09F938F930E94461085B7806885BF4E
:100C800080B7806280BF0E9456090E944B0A0E9472
:100C90006B050E940C0C87EE92E00E945A100E9495
:100CA00096060E948F0485E093E00E945A100E94ED
:100CB000E6048DE293E00E945A100E944F028BE4FA
:100CC00093E00E945A108FE693E00E945A1084E845
:100CD00093E00E945A1078948DB79EB708960FB68D
:100CE000F8949EBF0FBE8DBF08950E9426062FEF79
:100CF0008FEF9EE0215080409040E1F700C000005F
:100D00000E944B0A87E090E00E940B098DE993E076
:100D10000E94400A2FEF8FE791E0215080409040E1
:100D2000E1F700C000C00E947608F4CFCF93DF93B4
:100D3000C1E1D4E0D093F803C093F7031092FA0313
:100D40001092F9031092FC031092FB03E3EFF3E01F
:100D50008AEE90E09183808383E090E09093F603A5
:100D60008093F50325EC33E03093160420931504AB
:100D70006DEF73E0709318046093170410921A04D7
:100D80001092190444EE50E0598348839093140460
:100D900080931304F093CA03E093C903CFEDD3E02B
:100DA000D093CC03C093CB031092CE031092CD030B
:100DB0004CED50E0D9014D935C939093C803809320
:100DC000C70329EE33E03093E4032093E30310924A
:100DD000E6031092E503F093E803E093E70386ED62
:100DE00090E09983888382E090E09093E20380937F
:100DF000E103D093EE03C093ED031092F003109241
:100E0000EF03F093F203E093F1034DEC50E0D901CE
:100E10004D935C939093EC038093EB03C7E0D4E095
:100E2000D0930204C09301041092040410920304AE
:100E3000F0930604E093050422EC30E0DB012D93EF
:100E40003C93909300048093FF0370930C04609391
:100E50000B0410920E0410920D04F0931004E09312
:100E60000F0428EB30E03983288390930A048093A1
:100E70000904F093C203E093C103F093C403E09329
:100E8000C303DF91CF91089581E08093BA03089561
:100E900081E08093BB03089580E090E00E940B09FD
:100EA00060EA70E08FEC93E00E94F40F8FEC93E027
:100EB0000E94400A81E090E00E94640C82E090E091
:100EC0000E940B0960EB70E08FEC93E00E94F40F3E
:100ED0008FEC93E00E94400A0E940C0C8091BB03AF
:100EE00081110FC081E80E94DA0883E090E00E943F
:100EF0002902969587950E94DA088091BB03882382
:100F000089F31092BB0308950F931F93CF93DF9340
:100F1000C0E0D0E0CE010E94640C2196C730D1051C
:100F2000C9F780E090E00E940B0969E970E08FEC5E
:100F300093E00E94F40F8FEC93E00E94400A82E05D
:100F400090E00E940B0960EB70E08FEC93E00E9450
:100F5000F40F8FEC93E00E94400A0E940C0C8091E9
:100F6000BB0381110AC08CEC94E00197F1F700C03B
:100F700000008091BB038823B1F31092BB0380E093
:100F800090E00E9434096BE870E08FEC93E00E94DF
:100F9000F40F8FEC93E00E94400AC0E7D0E008E72E
:100FA00010E081E090E00E943409FE0165917491A7
:100FB0008FEC93E00E94F40F8FEC93E00E94400AC4
:100FC0000E940C0C8091BB0381110AC08CEC94E050
:100FD0000197F1F700C000008091BB038823B1F3B3
:100FE0001092BB032296C017D107D9F6DF91CF919B
:100FF0001F910F9108958091C3039091C40323E042
:10100000893E920719F40E944C0708958750944036
:1010100011F40E948407089589E50E94E303873450
:101020009105ECF0E091C303F091C40382819381B8
:101030000197181619060CF056C080E090E0048065
:10104000F581E02D019622813381215031098217EB
:101050009307ACF3F093C403E093C30344C08A3B0B
:101060009F4F5CF4E091C303F091C40384819581A8
:101070009093C4038093C30336C08091BB03813037
:10108000B1F41092BB03E091C303F091C4038681D5
:101090009781009749F09093C2038093C103909386
:1010A000C4038093C3031FC00E94FB071CC0809130
:1010B000BA038130C1F41092BA03E091C303F091F6
:1010C000C40380859185009771F0E091C103F09190
:1010D000C203208531853093C2032093C1039093CE
:1010E000C4038093C30380E090E008950F931F939F
:1010F000CF93DF930E940C08892B09F04CC0C0E00D
:10110000D0E0CE010E94640C2196C730D105C9F70A
:10111000E091C103F091C2038281938118161906F0
:10112000D4F5C0E0D0E010E801E8CE010E940B0940
:1011300080E090E00E942D09E091C103F091C2038C
:10114000608171818FEC93E00E94F40F2091C103C4
:101150003091C2038091C3039091C40328173907CB
:1011600011F4802F01C0812F0E94E3098FEC93E0DE
:101170000E94400AE091C103F091C2030480F5810E
:10118000E02DF093C203E093C10321968281938105
:10119000C817D90754F287E090E00E940B0968E075
:1011A00087E00E94940C0E940C0CDF91CF911F915C
:1011B0000F910895E0910E01F0910F018083089541
:1011C0001092C0031092BF031092BE031092BD0391
:1011D000E0910E01F0910F0181E28083E0910E0118
:1011E000F0910F011082E0910E01F0910F018FE755
:1011F0008083E0910E01F0910F0182E28083E09103
:101200000E01F0910F011082E0910E01F0910F019B
:1012100087E080830895CF93DF93EC010E94E0087C
:10122000D093C003C093BF03CE0187709927892B49
:1012300089F0E0910E01F0910F011082E0910E0112
:10124000F0910F0180E18083C06BE0910E01F0917D
:101250000F01C083DF91CF9108958F7799279093E5
:10126000BE038093BD030895CF93DF93EC010E94EA
:101270000B09289750F480E890E0E0910C01F09180
:101280000D01108201970097C1F7DF91CF9108956A
:10129000CF93DF93C0E0D0E0CE010E9434092196C5
:1012A000C830D105C9F7DF91CF91089585B780681F
:1012B00085BF80B7806280BFE0910E01F0910F0181
:1012C0008EEA8083E0910E01F0910F0181EA808324
:1012D000E0910E01F0910F018AED8083E0910E0103
:1012E000F0910F0182E18083E0910E01F0910F01F6
:1012F00088EC8083E0910E01F0910F0188EA8083F1
:10130000E0910E01F0910F018FE38083E0910E01D7
:10131000F0910F0185ED8083E0910E01F0910F01B6
:1013200080E88083E0910E01F0910F0181E88083D5
:10133000E0910E01F0910F0180E58083E0910E01B4
:10134000F0910F0189ED8083E0910E01F0910F0182
:1013500081E28083E0910E01F0910F0180E28083B1
:10136000E0910E01F0910F011082E0910E01F091D9
:101370000F018BED8083E0910E01F0910F0180E36E
:101380008083E0910E01F0910F018DEA8083E0915E
:101390000E01F0910F011082E0910E01F0910F010A
:1013A00084EA8083E0910E01F0910F0186EA808348
:1013B000E0910E01F0910F018FEA80830E944809AD
:1013C0000E94E00808958A3091F48091BF039091C3
:1013D000C0030196877099279093C0038093BF0341
:1013E0001092BE031092BD0381E090E0089588231F
:1013F00009F443C0E82FF0E0EE0FFF1FEE0FFF1FD0
:10140000EE0FFF1FEC50F04080E090E0A091BF0392
:10141000B091C003B695BA2FAA27B795A79520918A
:10142000BD033091BE03A20FB31F20910A0130917A
:101430000B01A20FB31F24912C932091BD03309177
:10144000BE032F5F3F4F3093BE032093BD03019631
:10145000319688309105D1F681E090E00090BF038D
:1014600002C0880F991F0A94E2F79091BC03892B60
:101470008093BC0381E090E0089580E090E00895BF
:10148000CF93DF93EC0189910E94E309892BD9F76F
:10149000DF91CF91089540E050E070E060E014C02B
:1014A0009C01240F351FE0910A01F0910B01E20F1E
:1014B000F31F108201968038910591F740585F4FD5
:1014C000411584E0580719F0872F962FE9CF8FEF49
:1014D0008093BC030895FC01F695FE2FEE27F79547
:1014E000E7956E0F7F1FE0910A01F0910B01E60F67
:1014F000F71F9081492B408321E030E0A90102C011
:10150000440F551F8A95E2F7CA019091BC03892BBD
:101510008093BC0308958038910530F560347105DF
:1015200030F59B0127703078332334F42150310992
:10153000286F3F6F2F5F3F4F41E050E002C0440FE4
:10154000551F2A95E2F7FB01FF230CF43796BC01E7
:10155000CF019595879595958795959587950E9447
:101560006B0A81E090E0089580E090E0089580E0CB
:1015700090E008952F923F924F925F926F927F92E8
:101580008F929F92AF92BF92CF92DF92EF92FF9293
:101590000F931F93CF93DF93CDB7DEB760970FB64E
:1015A000F894DEBF0FBECDBF9C878B877C836B8397
:1015B0005A8749871901481759070CF4DDC0841769
:1015C000950709F497C0B9012B813C81621B730B0D
:1015D000882777FD8095982F0E945B0E6B017C0118
:1015E00069857A854B855C85641B750B882777FD3B
:1015F0008095982F0E945B0E9B01AC01C701B6013C
:101600000E94C00D6D837E838F839887EB85FC8558
:10161000BF01882777FD8095982F0E945B0E698314
:101620007A83E82EF92E29853A85B901882777FD36
:101630008095982F0E945B0E4B015C019B01AC01D1
:1016400069817A818E2D9F2D0E94BC0D88230CF01C
:1016500051C01981CA800F2D4B815C812A016624FB
:1016600057FC6094762C3E862D862E2C3F2CC88A03
:10167000EF8629813A81422D532D612F78898F85FC
:10168000902F0E94570D2D813E814F8158850E94D9
:101690000B0F6B017C01C301B2010E945B0E9B0129
:1016A000AC01C701B6010E94580D0E94280E6B01C3
:1016B0007C01612F78898F85902F0E94280EDC0194
:1016C000CB01B6010E948B0A2DEC3CEC4CEC5DE3A7
:1016D000612F78898F85902F0E94580D162F788B57
:1016E0008F87092FA50194010E94BC0D88230CF25D
:1016F0002D843E848B819C812816390634F49B818D
:101700008C813C822B82292E382EEB85FC85298505
:101710003A85E217F307B9F41B81EB80FC80FF24C4
:10172000E214F3040CF05FC0B701012F67017F01E1
:10173000C7010E948B0A0F5F602F70E0621573056E
:10174000BCF376014AC01B81EB80FC80FF24E214CD
:10175000F3040CF442C047C0AC0102C0440F551F53
:101760006A95E2F7242B1F5F612F70E06215730505
:101770009CF32093BC0337C06B817C81621B730B8D
:10178000882777FD8095982F0E945B0E6B017C0166
:101790006B857C8589859A85681B790B882777FD01
:1017A0008095982F0E945B0E9B01AC01C701B6018A
:1017B0000E94C00D6D837E838F8398879B818C816F
:1017C0003C822B82292E382E9B858C85E985FA85D3
:1017D000FC87EB8799878A8719CF2091BC0381E02A
:1017E00090E0B701B9CF60960FB6F894DEBF0FBE98
:1017F000CDBFDF91CF911F910F91FF90EF90DF90C0
:10180000CF90BF90AF909F908F907F906F905F90A0
:101810004F903F902F900895AF92BF92CF92DF925A
:10182000EF92FF920F931F93CF93DF938091BC03AE
:10183000882309F43EC0E12CF12CC0E0D0E0CC2498
:10184000C394D12C6894AA24A7F8B12C86010C2E3D
:1018500002C0000F111F0A94E2F78023E1F0CE01CD
:101860000E940B092A2D3B2DA70140585F4FCA014A
:10187000821B930BE0910A01F0910B01E80FF91F15
:101880008081E0910C01F0910D018083215031099C
:101890002115310561F700958091BC030823009361
:1018A000BC03219680E8E80EF11C002311F0802F84
:1018B000CDCFDF91CF911F910F91FF90EF90DF90EF
:1018C000CF90BF90AF900895CF93DF93EC010E942B
:1018D0000B09C830D10528F5BE017695762F66270D
:1018E0007795679520E030E0A901460F571FE091FA
:1018F0000A01F0910B01E40FF51F10822F5F3F4F9B
:101900002038310589F781E090E09C0102C0220F68
:10191000331FCA95E2F7E9018091BC03C82BC0933D
:10192000BC03DF91CF910895EF92FF921F93CF9365
:10193000DF93D82FC62F693020F0C8506C2F0E943B
:10194000940CCC2309F45CC0A0910A01B0910B0166
:1019500020E8D29FA00DB11D11248BE194E0FC0181
:101960002D9121932E2F281B2C17D0F38C2F90E034
:1019700060E870E0681B790B161617060CF444C07B
:1019800018C040910A0150910B012E0D3F1DFA0124
:10199000E20FF31F280F391F420F531FDA012C915A
:1019A00020831F5F212F30E02617370754F3CC2305
:1019B000D1F0B0E8DB9F90011124281B390B4BE1DB
:1019C00054E0FA012C593340C9018E0F9F1FA0919A
:1019D0000A01B0910B01A80FB91F81918C938E2F32
:1019E000841B8C1788F381E090E002C0880F991F58
:1019F000DA95E2F7D091BC038D2B8093BC030CC029
:101A000060E870E080E090E020E8D29F700111244F
:101A100020E030E010E0B5CFDF91CF911F91FF9033
:101A2000EF900895CF92DF92EF92FF920F931F9362
:101A3000CF93DF93C42FE22EF12C062F10E0C82E97
:101A4000D12C9701A601B801C6010E94BA0AD0E0C4
:101A50009801AE01B801C6010E94BA0A9701AE0111
:101A6000B701C6010E94BA0A9701AE01B801CE01C2
:101A70000E94BA0ADF91CF911F910F91FF90EF90D2
:101A8000DF90CF9008955D9BFECF8CB908955F9B4A
:101A9000FECF8CB190E0089590BD89B988E18AB9F4
:101AA00067E47DE083E49DE00E94FB0F08955058B9
:101AB000BB27AA270ED075C166D130F06BD120F0BC
:101AC00031F49F3F11F41EF45BC10EF4E095E7FB87
:101AD00051C1E92F77D180F3BA17620773078407E2
:101AE000950718F071F49EF58FC10EF4E0950B2E5A
:101AF000BA2FA02D0B01B90190010C01CA01A00160
:101B00001124FF27591B99F0593F50F4503E68F1BA
:101B10001A16F040A22F232F342F4427585FF3CFFB
:101B2000469537952795A795F0405395C9F77EF4CC
:101B30001F16BA0B620B730B840BBAF09150A1F015
:101B4000FF0FBB1F661F771F881FC2F70EC0BA0F9B
:101B5000621F731F841F48F4879577956795B79523
:101B6000F7959E3F08F0B3CF9395880F08F099271B
:101B7000EE0F979587950895D9D008F481E00895E0
:101B80000CD00FC107D140F0FED030F021F45F3F00
:101B900019F0F0C0511139C1F3C014D198F3992351
:101BA000C9F35523B1F3951B550BBB27AA27621721
:101BB0007307840738F09F5F5F4F220F331F441F66
:101BC000AA1FA9F333D00E2E3AF0E0E830D091509E
:101BD0005040E695001CCAF729D0FE2F27D0660F8B
:101BE000771F881FBB1F261737074807AB07B0E8CA
:101BF00009F0BB0B802DBF01FF2793585F4F2AF0E0
:101C00009E3F510568F0B6C000C15F3FECF3983EBF
:101C1000DCF3869577956795B795F7959F5FC9F73C
:101C2000880F911D9695879597F90895E1E0660FC5
:101C3000771F881FBB1F621773078407BA0720F03E
:101C4000621B730B840BBA0BEE1F88F7E0950895A7
:101C500004D06894B111D9C00895BCD088F09F57C2
:101C600090F0B92F9927B751A0F0D1F0660F771FE8
:101C7000881F991F1AF0BA95C9F712C0B13081F0C8
:101C8000C3D0B1E00895C0C0672F782F8827B85F10
:101C900039F0B93FCCF3869577956795B395D9F729
:101CA0003EF490958095709561957F4F8F4F9F4F33
:101CB0000895E89409C097FB3EF49095809570953F
:101CC00061957F4F8F4F9F4F9923A9F0F92F96E988
:101CD000BB279395F695879577956795B795F111FD
:101CE000F8CFFAF4BB0F11F460FF1BC06F5F7F4F9A
:101CF0008F4F9F4F16C0882311F096E911C07723AC
:101D000021F09EE8872F762F05C0662371F096E8B4
:101D1000862F70E060E02AF09A95660F771F881F83
:101D2000DAF7880F9695879597F90895990F000827
:101D3000550FAA0BE0E8FEEF16161706E807F9079D
:101D4000C0F012161306E407F50798F0621B730B38
:101D5000840B950B39F40A2661F0232B242B252BB9
:101D600021F408950A2609F4A140A6958FEF811D5C
:101D7000811D089597F99F6780E870E060E00895FD
:101D80009FEF80EC089500240A9416161706180693
:101D90000906089500240A9412161306140605066F
:101DA0000895092E0394000C11F4882352F0BB0F00
:101DB00040F4BF2B11F460FF04C06F5F7F4F8F4F63
:101DC0009F4F089557FD9058440F551F59F05F3F9E
:101DD00071F04795880F97FB991F61F09F3F79F04D
:101DE00087950895121613061406551FF2CF4695CF
:101DF000F1DF08C0161617061806991FF1CF869551
:101E00007105610508940895E894BB276627772734
:101E1000CB0197F908950BD0C4CFB5DF28F0BADF16
:101E200018F0952309F0A6CFABCF1124EECFCADF6F
:101E3000A0F3959FD1F3950F50E0551F629FF001DD
:101E4000729FBB27F00DB11D639FAA27F00DB11D36
:101E5000AA1F649F6627B00DA11D661F829F2227BF
:101E6000B00DA11D621F739FB00DA11D621F839F46
:101E7000A00D611D221F749F3327A00D611D231F1C
:101E8000849F600D211D822F762F6A2F11249F576A
:101E900050408AF0E1F088234AF0EE0FFF1FBB1F8D
:101EA000661F771F881F91505040A9F79E3F51052C
:101EB00070F060CFAACF5F3FECF3983EDCF38695DD
:101EC00077956795B795F795E7959F5FC1F7FE2BD7
:101ED000880F911D9695879597F9089597FB072E82
:101EE00016F4009407D077FD09D00E94820F07FCFA
:101EF00005D03EF4909581959F4F0895709561951A
:101F00007F4F0895AA1BBB1B51E107C0AA1FBB1F2F
:101F1000A617B70710F0A61BB70B881F991F5A9575
:101F2000A9F780959095BC01CD0108958F929F925D
:101F3000AF92BF92CF92DF92EF92FF92CF93DF9357
:101F4000EC01688179818A819B8161157105810528
:101F5000910521F464E279ED8BE597E02DE133EF13
:101F600041E050E00E94491449015A019B01AC0133
:101F7000A7EAB1E40E9468146B017C01ACEEB4EFF7
:101F8000A50194010E947614C60ED71EE81EF91E04
:101F9000F7FE06C081E0C81AD108E10880E8F80A17
:101FA000C882D982EA82FB82C6019F77DF91CF91F6
:101FB000FF90EF90DF90CF90BF90AF909F908F9069
:101FC00008950E94960F089580E091E00E94960F78
:101FD0000895A0E0B0E08093000190930101A093E8
:101FE0000201B09303010895FB01DC0105900D92FD
:101FF0000020E1F708950F931F93CF93DF93EC0137
:102000008B01009731F46115710519F480E090E0BF
:1020100038C06EE070E081E090E00E945912FC014F
:102020000097A1F380E883830115110571F01387F0
:10203000028781E883838091270490912804892B6B
:1020400021F4F0932804E09327042097C9F0D18766
:10205000C0878381826083838091290490912A04C0
:10206000892B71F4F0932A04E093290480912B04C6
:1020700090912C04892B21F4F0932C04E0932B04F1
:10208000CF01DF91CF911F910F910895A0E0B0E0B3
:10209000ECE4F0E10C948B14FE01359661917191A2
:1020A000AF018091290490912A040E948710E2E0F8
:1020B0000C94A7140F931F93CF93DF93E0912904FF
:1020C000F0912A04238121FF1BC0EC0100E010E005
:1020D00089916091290470912A04DB011896ED9191
:1020E000FC911997882331F00995892B89F30FEF1B
:1020F0001FEFEECF8AE00995892B11F4C80102C0C9
:102100008FEF9FEFDF91CF911F910F910895ACE07A
:10211000B0E0EDE8F0E10C947B147C016B018A01E6
:10212000FC0117821682838181FFBDC1CE01019619
:102130004C01F7019381F60193FD859193FF819105
:102140006F01882309F4ABC1853239F493FD859181
:1021500093FF81916F01853229F4B70190E00E94CD
:10216000B913E7CF512C312C20E02032A0F48B3270
:1021700069F030F4803259F0833269F420612CC068
:102180008D3239F0803339F4216026C0226024601A
:1021900023C0286021C027FD27C030ED380F3A301A
:1021A00078F426FF06C0FAE05F9E300D1124532E0E
:1021B00013C08AE0389E300D1124332E20620CC0EB
:1021C0008E3221F426FD6BC1206406C08C3611F4DA
:1021D000206802C0883641F4F60193FD859193FF93
:1021E00081916F018111C1CF982F9F7D95549330BC
:1021F00028F40C5F1F4FFFE3F9830DC0833631F0E5
:10220000833771F0833509F05BC022C0F80180810B
:1022100089830E5F1F4F44244394512C540115C0F1
:102220003801F2E06F0E711CF801A080B18026FF2A
:1022300003C0652D70E002C06FEF7FEFC5012C87F2
:102240000E94AE132C0183012C852F77222E17C0FC
:102250003801F2E06F0E711CF801A080B18026FFFA
:1022600003C0652D70E002C06FEF7FEFC5012C87C2
:102270000E949C132C012C852068222E830123FCB4
:102280001BC0832D90E048165906B0F4B70180E2D8
:1022900090E00E94B9133A94F4CFF50127FC8591A0
:1022A00027FE81915F01B70190E00E94B9133110C0
:1022B0003A94F1E04F1A51084114510471F7E5C006
:1022C000843611F0893639F5F80127FF07C060819F
:1022D0007181828193810C5F1F4F08C06081718181
:1022E000882777FD8095982F0E5F1F4F2F76B22E8F
:1022F00097FF09C090958095709561957F4F8F4F9E
:102300009F4F2068B22E2AE030E0A4010E94EB1318
:10231000A82EA81844C0853729F42F7EB22E2AE0B3
:1023200030E025C0F22FF97FBF2E8F36C1F018F4B0
:10233000883579F0B4C0803719F0883721F0AFC004
:102340002F2F2061B22EB4FE0DC08B2D8460B82ECD
:1023500009C024FF0AC09F2F9660B92E06C028E04E
:1023600030E005C020E130E002C020E132E0F801B9
:10237000B7FE07C060817181828193810C5F1F4F1E
:1023800006C06081718180E090E00E5F1F4FA40164
:102390000E94EB13A82EA818FB2DFF77BF2EB6FEC8
:1023A0000BC02B2D2E7FA51450F4B4FE0AC0B2FC36
:1023B00008C02B2D2E7E05C07A2C2B2D03C07A2C25
:1023C00001C0752C24FF0DC0FE01EA0DF11D8081B6
:1023D000803311F4297E09C022FF06C073947394E0
:1023E00004C0822F867809F0739423FD13C020FF68
:1023F00006C05A2C731418F4530C5718732C73140A
:1024000068F4B70180E290E02C870E94B9137394BE
:102410002C85F5CF731410F4371801C0312C24FF2C
:1024200012C0B70180E390E02C870E94B9132C857D
:1024300022FF17C021FF03C088E590E002C088E7B3
:1024400090E0B7010CC0822F867859F021FD02C0C0
:1024500080E201C08BE227FD8DE2B70190E00E948F
:10246000B913A51438F4B70180E390E00E94B913C2
:102470005A94F7CFAA94F401EA0DF11D8081B701B7
:1024800090E00E94B913A110F5CF332009F451CE8A
:10249000B70180E290E00E94B9133A94F6CFF701B9
:1024A0008681978102C08FEF9FEF2C96E2E10C941A
:1024B00097140F931F93CF93DF93869F8001879F7D
:1024C000100D969F100D1124C8010E947512EC0189
:1024D000009729F0A80160E070E00E94A713CE01E8
:1024E000DF91CF911F910F910895CF93DF938230A9
:1024F000910510F482E090E0E0912F04F091300417
:1025000020E030E0A0E0B0E0309739F14081518127
:1025100048175907B8F04817590771F48281938119
:10252000109729F013969C938E9312972CC090933A
:10253000300480932F0427C02115310531F0421754
:10254000530718F0A901DB0101C0EF019A01BD0199
:10255000DF010280F381E02DD7CF21153105F9F09D
:10256000281B390B2430310580F48A819B81611549
:10257000710521F0FB019383828304C090933004A2
:1025800080932F04FE01329644C0FE01E20FF31F38
:102590008193919322503109398328833AC0209145
:1025A0002D0430912E04232B41F42091060130910B
:1025B000070130932E0420932D04209104013091C3
:1025C00005012115310541F42DB73EB740910801B1
:1025D00050910901241B350BE0912D04F0912E043C
:1025E000E217F307A0F42E1B3F0B2817390778F0EA
:1025F000AC014E5F5F4F2417350748F04E0F5F1F49
:1026000050932E0440932D048193919302C0E0E0F7
:10261000F0E0CF01DF91CF910895CF93DF93009742
:1026200009F487C0FC01329713821282C0912F04F3
:10263000D0913004209781F420813181280F391FF7
:1026400080912D0490912E048217930779F5F093D1
:102650002E04E0932D046DC0DE0120E030E0AE17C3
:10266000BF0750F412964D915C9113979D0141154F
:10267000510509F1DA01F3CFB383A283408151817F
:10268000840F951F8A179B0771F48D919C91119768
:10269000840F951F02969183808312968D919C9151
:1026A0001397938382832115310529F4F093300425
:1026B000E0932F043EC0D9011396FC93EE9312973A
:1026C0004D915D91A40FB51FEA17FB0779F4808146
:1026D0009181840F951F0296D90111969C938E9338
:1026E0008281938113969C938E931297E0E0F0E0A1
:1026F0008A819B81009719F0FE01EC01F9CFCE0190
:10270000029628813981820F931F20912D043091E8
:102710002E042817390769F4309729F410923004F1
:1027200010922F0402C013821282D0932E04C09301
:102730002D04DF91CF910895FC0105906150704008
:102740000110D8F7809590958E0F9F1F0895DC019A
:1027500001C06D9341505040E0F70895FC01615075
:10276000704001900110D8F7809590958E0F9F1FB3
:1027700008950F931F93CF93DF93182F092FEB0129
:102780008B8181FD03C08FEF9FEF20C082FF10C0BF
:102790004E815F812C813D81421753077CF4E88193
:1027A000F9819F012F5F3F4F39832883108306C033
:1027B000E885F985812F0995892B29F72E813F819D
:1027C0002F5F3F4F3F832E83812F902FDF91CF913B
:1027D0001F910F910895FA01AA27283051F1203155
:1027E00081F1E8946F936E7F6E5F7F4F8F4F9F4FA5
:1027F000AF4FB1E03ED0B4E03CD0670F781F891FE7
:102800009A1FA11D680F791F8A1F911DA11D6A0FB4
:10281000711D811D911DA11D20D009F468943F9167
:102820002AE0269F11243019305D3193DEF6CF0166
:102830000895462F4770405D4193B3E00FD0C9F72C
:10284000F6CF462F4F70405D4A3318F0495D31FD99
:102850004052419302D0A9F7EACFB4E0A6959795EC
:10286000879577956795BA95C9F7009761057105C2
:1028700008959B01AC010A2E06945795479537950C
:102880002795BA95C9F7620F731F841F951FA01D66
:102890000895052E97FB1EF400940E94601457FDC6
:1028A00007D00E94B21407FC03D04EF40C946014BD
:1028B00050954095309521953F4F4F4F5F4F08956C
:1028C00090958095709561957F4F8F4F9F4F08959C
:1028D0000E94D414A59F900DB49F900DA49F800DCD
:1028E000911D11240895B7FF0C9468140E94681478
:1028F000821B930B08952F923F924F925F926F929B
:102900007F928F929F92AF92BF92CF92DF92EF927F
:10291000FF920F931F93CF93DF93CDB7DEB7CA1B00
:10292000DB0B0FB6F894DEBF0FBECDBF09942A882B
:10293000398848885F846E847D848C849B84AA84D3
:10294000B984C884DF80EE80FD800C811B81AA8160
:10295000B981CE0FD11D0FB6F894DEBF0FBECDBF2B
:10296000ED010895A1E21A2EAA1BBB1BFD010DC0AB
:10297000AA1FBB1FEE1FFF1FA217B307E407F5072F
:1029800020F0A21BB30BE40BF50B661F771F881F0B
:10299000991F1A9469F760957095809590959B01A1
:1029A000AC01BD01CF010895A29FB001B39FC0014A
:1029B000A39F700D811D1124911DB29F700D811D6B
:0A29C0001124911D0895F894FFCF33
:1029CA00010000000000310420000018001200106D
:1029DA00526967687420627574746F6E20707265CC
:1029EA00737365642C207072696E74696E672076E1
:1029FA00616C7565733A090900583A2025690959C5
:102A0A003A202569094C3A20256909523A20256954
:102A1A000A0043616C6962726174696F6E20766143
:102A2A006C7565733A200963616C5F583A202569B1
:102A3A000963616C5F593A25690A005265666572D5
:102A4A00656E63652056616C7565733A2009582076
:102A5A0025690959202569094C202569095220252B
:102A6A0069090A005374617274696E67205352418E
:102A7A004D20746573742E2E2E005772697465206A
:102A8A007068617365206572726F723A2065787436
:102A9A005F72616D5B2534645D203D2025303258BC
:102AAA00202873686F756C6420626520253032585F
:102ABA00290A0052657472696576616C20706861D2
:102ACA007365206572726F723A206578745F7261FD
:102ADA006D5B2534645D203D2025303258202873F3
:102AEA00686F756C642062652025303258290A00A7
:102AFA005352414D207465737420636F6D706C6519
:102B0A0074656420776974680A2534642065727272
:102B1A006F727320696E20777269746520706861BC
:102B2A00736520616E640A253464206572726F725F
:102B3A007309696E2072657472696576616C2070BA
:102B4A00686173650A0A0031383A30343A3136001E
:102B5A004F63742020352032303137006C346432B0
:102B6A00004C4F4144494E47206731375F25732057
:102B7A0025732025730A494E495449414C495A49FB
:102B8A004E472E2E2E0A0A554152542073756363FE
:102B9A0065737366756C6C7920696E697469616CAA
:102BAA00697A65640A0A004F4C4544207375636369
:102BBA0065737366756C6C7920696E697469616C8A
:102BCA00697A656400636F6E74726F6C20696E70E7
:102BDA007574207375636365737366756C6C79209D
:102BEA00696E697469616C697A65640A0053524155
:102BFA004D207375636365737366756C6C792069B0
:102C0A006E697469616C697A656400496E7465728B
:102C1A007275707473207375636365737366756C0C
:102C2A006C7920696E697469616C697A65640049B6
:102C3A006E746572727570747320616374697661FB
:102C4A00746564000A494E495449414C495A4154F1
:102C5A00494F4E20434F4D504C45544500202D209E
:0E2C6A004259474745524E202D204731370032
:00000001FF
