:100000000C9456000C94B0000C940E010C947300E8
:100010000C9473000C9473000C9473000C94730094
:100020000C9473000C9473000C9473000C94730084
:100030000C9473000C9473000C9473000C94730074
:100040000C9473000C9473000C9473000C94730064
:100050000C9473000C9473000C9473000C94730054
:100060000C9473000C9473000C9473000C94730044
:1000700043616C69627261746500666974207363C0
:100080007265656E00436F6E7472617374004D75B6
:10009000736963004F7074696F6E730044656275B5
:1000A00067004869676873636F72650011241FBE3B
:1000B000CFEFD4E0DEBFCDBF13E0A0E0B1E0E4EBD2
:1000C000FBE102C005900D92A03AB107D9F724E0F8
:1000D000A0EAB3E001C01D92A731B207E1F70E9488
:1000E00004040C94D80D0C9400008230910571F03A
:1000F0001CF4019739F01CC08330910559F0049726
:1001000069F016C084E1809300140BC085E18093F0
:10011000001407C086E18093001403C087E1809338
:10012000001482E58A95F1F78091001490E008951B
:1001300080E090E00895BA9ABB9A85B7816085BF48
:1001400085B7826085BF85B7846085BF85B78860C5
:1001500085BF8BB780648BBF8BB780688BBF0895DA
:100160001F920F920FB60F921124EF92FF920F93EE
:100170001F932F933F934F935F936F937F938F932F
:100180009F93AF93BF93CF93DF93EF93FF9380E160
:1001900091E09F938F930E943B0982E50E942F027A
:1001A000F82EE92E8CE40E942F02182F092F89E5E2
:1001B0000E942F02C82FD92F88E50E942F02EF92AC
:1001C000FF920F931F93DF93CF939F938F9389E3B6
:1001D00091E09F938F930E943B090E94E8048DB7A2
:1001E0009EB70C960FB6F8949EBF0FBE8DBFFF91C1
:1001F000EF91DF91CF91BF91AF919F918F917F91BF
:100200006F915F914F913F912F911F910F91FF90AF
:10021000EF900F900FBE0F901F9018951F920F92A6
:100220000FB60F9211242F933F934F935F936F93C9
:100230007F938F939F93AF93BF93EF93FF930E940E
:10024000E404FF91EF91BF91AF919F918F917F91C6
:100250006F915F914F913F912F910F900FBE0F9033
:100260001F9018950F931F93CF93DF93C4E6D0E0B0
:100270000091AA031091AB0381E090E00E94750009
:1002800001581F4F081B190B1093AB030093AA03CF
:100290000091A8031091A90382E090E00E947500EC
:1002A00001581F4F081B190B1093A9030093A803B3
:1002B00021972097E9F68091AA039091AB0324E659
:1002C00030E0B9010E946A087093AB036093AA03FF
:1002D0008091A8039091A903B9010E946A087093C4
:1002E000A9036093A803DF91CF911F910F91089507
:1002F0002F923F924F925F926F927F928F929F9236
:10030000AF92BF92CF92DF92EF92FF920F931F9323
:10031000CF93DF9300D000D000D0CDB7DEB73C0143
:100320007A8369835C834B833E832D831801850127
:10033000B901882777FD8095982F0E947B074B0194
:100340005C01B3016E0D7F1D29813A81621B730B25
:10035000882777FD8095982F0E947B072B013C0111
:10036000B1018D819E81681B790B882777FD80956F
:10037000982F0E947B079B01AC01C301B2010E9430
:1003800007082B013C016B817C81E981FA816E1B9E
:100390007F0B882777FD8095982F0E947B079B0114
:1003A000AC01C301B2010E94E0069B01AC01C50192
:1003B000B4010E947C060E944807C101801B910B7A
:1003C0006817790774F58D819E81800F911F8617BC
:1003D00097074CF5F80111230CF43196F595E79544
:1003E000D80112C08A0F9B1FAC014E0F5F1F64170C
:1003F000750714F069010BC0C6018E1B9F0B861791
:10040000970714F0C01AD10AC601801B910B960100
:10041000200F311F621773072CF78617970714F701
:1004200004C0610102C0CD80DE80C60126960FB6F1
:10043000F894DEBF0FBECDBFDF91CF911F910F911A
:10044000FF90EF90DF90CF90BF90AF909F908F90F4
:100450007F906F905F904F903F902F900895AF9254
:10046000BF92CF92DF92EF92FF920F931F9382354C
:1004700009F474C020F48C3409F44EC091C088355E
:1004800019F0893529F18CC0C090A603D090A7033C
:10049000E090AA03F090AB0381E090E00E94750029
:1004A0000F2EFAE0AF2EB12CF02D04E610E02CE96F
:1004B0003FEF4FEF50E060E070E00E9478019093D2
:1004C000A7038093A6038091A6039091A7036AC017
:1004D000C090A403D090A503E090A803F090A903D6
:1004E00082E090E00E9475000F2EFAE0AF2EB12C52
:1004F000F02D04E610E02CE93FEF4FEF50E060E014
:1005000070E00E9478019093A5038093A4038091EA
:10051000A4039091A50346C0C090A203D090A3036A
:1005200083E090E00E9475000F2EFAE0AF2EB12C10
:10053000F02DE12CF12C04E610E020E030E04FEF4C
:1005400050E060E070E00E9478019093A3038093F4
:10055000A2038091A2039091A30324C0C090A003A2
:10056000D090A10384E090E00E9475000F2EFAE085
:10057000AF2EB12CF02DE12CF12C04E610E020E0A0
:1005800030E04FEF50E060E070E00E94780190931F
:10059000A1038093A0038091A0039091A10302C0C6
:1005A00080E090E01F910F91FF90EF90DF90CF904F
:1005B000BF90AF9008950E94320188E50E942F02FB
:1005C0009093A7038093A60389E50E942F0290933E
:1005D000A5038093A4038CE40E942F029093A303AD
:1005E0008093A20382E50E942F029093A10380933F
:1005F000A0032091A8033091A9038091AA039091B0
:10060000AB033F932F939F938F9382E591E09F934A
:100610008F930E943B096091A0037091A1034091C8
:10062000A2035091A3032091A4033091A5038091CC
:10063000A6039091A7037F936F935F934F933F938C
:100640002F939F938F938BE791E09F938F930E94BB
:100650003B098DB79EB740960FB6F8949EBF0FBE6C
:100660008DBF0895CF92DF92EF92FF920F931F9369
:10067000CF93DF9384EA91E00E944F090E94E00843
:100680006C010E94E508C0E0D0E000E010E00F2E11
:10069000FAEBEF2EF1E0FF2EF02D0E94E008FE01B4
:1006A000F85E808320812817A9F099279F938F9364
:1006B0001F922F93DF93CF93FF92EF920E943B09FB
:1006C0000F5F1F4F8DB79EB708960FB6F8949EBF69
:1006D0000FBE8DBF2196C11598E0D907F1F6C6016E
:1006E0000E94E508C0E0D0E0E12CF12C0F2EF3EFE2
:1006F000CF2EF1E0DF2EF02D0E94E008FE01F85E23
:1007000020812817B1F099279F938F931F922F93E1
:10071000DF93CF93DF92CF920E943B098FEFE81ACD
:10072000F80A8DB79EB708960FB6F8949EBF0FBE15
:100730008DBF2196C11598E0D907F1F6FF92EF928F
:100740001F930F9380E392E09F938F930E943B0946
:100750000F900F900F900F900F900F90DF91CF910F
:100760001F910F91FF90EF90DF90CF900895F89434
:100770008FE190E00E94700687E892E09F938F934C
:1007800080E992E09F938F938CE992E09F938F93FF
:1007900081EA92E09F938F930E943B0985B780681E
:1007A00085BF80B7806280BF0E945B050E94E8051C
:1007B0000E94080687EE92E00E944F090E943604CC
:1007C0000E94DB0285E093E00E944F090E94320301
:1007D0008DE293E00E944F090E949B008BE493E01E
:1007E0000E944F098FE693E00E944F0984E893E04E
:1007F0000E944F0978948DB79EB708960FB6F8946B
:100800009EBF0FBE8DBF08950E94B7030E94E805EA
:1008100087E090E00E941705F8940E943F0680E16F
:1008200090E00E9454069F938F938DE993E09F93ED
:100830008F930E943B090F900F900F900F90CDE97E
:10084000D3E080E090E00E945406EFEFFFE23197A2
:10085000F1F700C000009F938F93DF93CF930E9426
:100860003B090F900F900F900F90EBCFCF93DF933A
:10087000C3E0D4E0D093EA03C093E9031092EC0301
:100880001092EB031092EE031092ED03E5EEF3E00D
:1008900082EA90E09183808383E090E09093E80384
:1008A0008093E70327EB33E0309308042093070499
:1008B0006FEE73E070930A046093090410920C04C5
:1008C00010920B044CE950E059834883909306043E
:1008D00080930504F093BC03E093BB03C1EDD3E028
:1008E000D093BE03C093BD031092C0031092BF0308
:1008F00044E950E0D9014D935C939093BA038093FF
:10090000B9032BED33E03093D6032093D503109237
:10091000D8031092D703F093DA03E093D9038EE85B
:1009200090E09983888382E090E09093D403809351
:10093000D303D093E003C093DF031092E20310923D
:10094000E103F093E403E093E30345E850E0D901C9
:100950004D935C939093DE038093DD03C9EFD3E066
:10096000D093F403C093F3031092F6031092F503AF
:10097000F093F803E093F7032AE730E0DB012D93CF
:100980003C939093F2038093F1037093FE03609382
:10099000FD03109200041092FF03F0930204E09311
:1009A000010420E730E0398328839093FC0380938F
:1009B000FB03F093B403E093B303F093B603E09327
:1009C000B503DF91CF91089581E08093AC03089542
:1009D00081E08093AD0308951092B2031092B103A9
:1009E0001092B0031092AF03E0910E01F0910F014D
:1009F00081E28083E0910E01F0910F011082E0917D
:100A00000E01F0910F018FE78083E0910E01F091CC
:100A10000F0182E28083E0910E01F0910F011082BC
:100A2000E0910E01F0910F0187E080830895CF934C
:100A3000DF93EC010E94EC04D093B203C093B103A6
:100A4000CE0187709927892B89F0E0910E01F091F2
:100A50000F011082E0910E01F0910F0180E180837F
:100A6000C06BE0910E01F0910F01C083DF91CF9137
:100A70000895CF93DF93EC010E941705289750F457
:100A800080E890E0E0910C01F0910D011082019757
:100A90000097C1F7DF91CF910895CF93DF93C0E026
:100AA000D0E0CE010E9439052196C830D105C9F7A2
:100AB000DF91CF91089585B7806885BF80B7806248
:100AC00080BFE0910E01F0910F018EEA8083E091EA
:100AD0000E01F0910F0181EA8083E0910E01F09107
:100AE0000F018AED8083E0910E01F0910F0182E108
:100AF0008083E0910E01F0910F0188EC8083E091FA
:100B00000E01F0910F0188EA8083E0910E01F091CF
:100B10000F018FE38083E0910E01F0910F0185EDCD
:100B20008083E0910E01F0910F0180E88083E091D5
:100B30000E01F0910F0181E88083E0910E01F091A8
:100B40000F0180E58083E0910E01F0910F0189EDA6
:100B50008083E0910E01F0910F0181E28083E091AA
:100B60000E01F0910F0180E28083E0910E01F0917F
:100B70000F011082E0910E01F0910F018BED808347
:100B8000E0910E01F0910F0180E38083E0910E016E
:100B9000F0910F018DEA8083E0910E01F0910F0139
:100BA0001082E0910E01F0910F0184EA8083E091C0
:100BB0000E01F0910F0186EA8083E0910E01F09121
:100BC0000F018FEA80830E944D050E94EC04089576
:100BD00040E050E070E060E014C09C01240F351F3D
:100BE000E0910A01F0910B01E20FF31F10820196D0
:100BF0008038910591F740585F4F411584E05807C0
:100C000019F0872F962FE9CF8FEF8093AE030895C9
:100C1000EF92FF920F931F93CF93DF93C0E0D0E04A
:100C200000E010E0E12CF12CC8010E9417052E2DE8
:100C30003F2DA9014C0F5D1FE0910A01F0910B01BE
:100C4000E40FF51F8081E0910C01F0910D0180838C
:100C50002F5F3F4F2038310561F70F5F1F4FC0589E
:100C6000DF4F0830110501F7DF91CF911F910F91F0
:100C7000FF90EF900895C4980895C49A089587B39B
:100C8000806B87BBBE98C49A6C9A6E9A0E943D0690
:100C900008958FB9779BFECF089580E00E944906A2
:100CA000779BFECF8FB10895CF93C82F0E943B064C
:100CB00083E00E9449068C2F0E9449060E944D063F
:100CC000C82F0E943D068C2F90E0CF9108955D9B28
:100CD000FECF8CB908955F9BFECF8CB190E0089554
:100CE00090BD89B988E18AB96BE676E087E696E03F
:100CF0000E94F00808955058BB27AA270ED04DC176
:100D00003ED130F043D120F031F49F3F11F41EF476
:100D100033C10EF4E095E7FB29C1E92F4FD180F3F1
:100D2000BA17620773078407950718F071F49EF5E8
:100D300067C10EF4E0950B2EBA2FA02D0B01B9015F
:100D400090010C01CA01A0011124FF27591B99F041
:100D5000593F50F4503E68F11A16F040A22F232F4D
:100D6000342F4427585FF3CF469537952795A7959D
:100D7000F0405395C9F77EF41F16BA0B620B730B44
:100D8000840BBAF09150A1F0FF0FBB1F661F771FB5
:100D9000881FC2F70EC0BA0F621F731F841F48F46A
:100DA000879577956795B795F7959E3F08F0B3CFF0
:100DB0009395880F08F09927EE0F979587950895DA
:100DC0000CD0EBC0E3D040F0DAD030F021F45F3F3C
:100DD00019F0CCC0511115C1CFC0F0D098F39923B0
:100DE000C9F35523B1F3951B550BBB27AA276217EF
:100DF0007307840738F09F5F5F4F220F331F441F34
:100E0000AA1FA9F333D00E2E3AF0E0E830D091506B
:100E10005040E695001CCAF729D0FE2F27D0660F58
:100E2000771F881FBB1F261737074807AB07B0E897
:100E300009F0BB0B802DBF01FF2793585F4F2AF0AD
:100E40009E3F510568F092C0DCC05F3FECF3983ED6
:100E5000DCF3869577956795B795F7959F5FC9F70A
:100E6000880F911D9695879597F90895E1E0660F93
:100E7000771F881FBB1F621773078407BA0720F00C
:100E8000621B730B840BBA0BEE1F88F7E095089575
:100E900004D06894B111B5C0089598D088F09F57D8
:100EA00090F0B92F9927B751A0F0D1F0660F771FB6
:100EB000881F991F1AF0BA95C9F712C0B13081F096
:100EC0009FD0B1E008959CC0672F782F8827B85F26
:100ED00039F0B93FCCF3869577956795B395D9F7F7
:100EE0003EF490958095709561957F4F8F4F9F4F01
:100EF0000895E89409C097FB3EF49095809570950D
:100F000061957F4F8F4F9F4F9923A9F0F92F96E955
:100F1000BB279395F695879577956795B795F111CA
:100F2000F8CFFAF4BB0F11F460FF1BC06F5F7F4F67
:100F30008F4F9F4F16C0882311F096E911C0772379
:100F400021F09EE8872F762F05C0662371F096E882
:100F5000862F70E060E02AF09A95660F771F881F51
:100F6000DAF7880F9695879597F9089597F99F670F
:100F700080E870E060E008959FEF80EC0895002421
:100F80000A941616170618060906089500240A94EE
:100F900012161306140605060895092E0394000C74
:100FA00011F4882352F0BB0F40F4BF2B11F460FF03
:100FB00004C06F5F7F4F8F4F9F4F089557FD90582C
:100FC000440F551F59F05F3F71F04795880F97FB0D
:100FD000991F61F09F3F79F08795089512161306C7
:100FE0001406551FF2CF4695F1DF08C016161706F6
:100FF0001806991FF1CF869571056105089408952B
:10100000E894BB2766277727CB0197F908950BD083
:10101000C4CFB5DF28F0BADF18F0952309F0A6CFCA
:10102000ABCF1124EECFCADFA0F3959FD1F3950F7C
:1010300050E0551F629FF001729FBB27F00DB11D5C
:10104000639FAA27F00DB11DAA1F649F6627B00DEC
:10105000A11D661F829F2227B00DA11D621F739FD5
:10106000B00DA11D621F839FA00D611D221F749FE3
:101070003327A00D611D231F849F600D211D822F2A
:10108000762F6A2F11249F5750408AF0E1F0882371
:101090004AF0EE0FFF1FBB1F661F771F881F91507E
:1010A0005040A9F79E3F510570F060CFAACF5F3F37
:1010B000ECF3983EDCF3869577956795B795F795B1
:1010C000E7959F5FC1F7FE2B880F911D9695879539
:1010D00097F9089597FB072E16F4009407D077FD33
:1010E00009D00E947E0807FC05D03EF490958195BA
:1010F0009F4F0895709561957F4F0895AA1BBB1B64
:1011000051E107C0AA1FBB1FA617B70710F0A61B07
:10111000B70B881F991F5A95A9F780959095BC0128
:10112000CD0108958F929F92AF92BF92CF92DF929E
:10113000EF92FF92CF93DF93EC01688179818A81EE
:101140009B81611571058105910521F464E279EDBA
:101150008BE597E02DE133EF41E050E00E943E0D3A
:1011600049015A019B01AC01A7EAB1E40E945D0D5F
:101170006B017C01ACEEB4EFA50194010E946B0DF4
:10118000C60ED71EE81EF91EF7FE06C081E0C81A7B
:10119000D108E10880E8F80AC882D982EA82FB8295
:1011A000C6019F77DF91CF91FF90EF90DF90CF90B6
:1011B000BF90AF909F908F9008950E9492080895DD
:1011C00080E091E00E9492080895A0E0B0E0809352
:1011D000000190930101A0930201B09303010895CF
:1011E0000F931F93CF93DF93EC018B01009731F4A2
:1011F0006115710519F480E090E038C06EE070E090
:1012000081E090E00E944E0BFC010097A1F380E882
:1012100083830115110571F01387028781E88383A9
:1012200080910D0490910E04892B21F4F0930E040B
:10123000E0930D042097C9F0D187C0878381826035
:10124000838380910F0490911004892B71F4F093A3
:101250001004E0930F048091110490911204892BE3
:1012600021F4F0931204E0931104CF01DF91CF91A8
:101270001F910F910895A0E0B0E0E1E4F9E00C9433
:10128000800DFE01359661917191AF0180910F043F
:10129000909110040E947C09E2E00C949C0D0F9345
:1012A0001F93CF93DF93E0910F04F09110042381FB
:1012B00021FF1BC0EC0100E010E0899160910F0458
:1012C00070911004DB011896ED91FC911997882319
:1012D00031F00995892B89F30FEF1FEFEECF8AE0EC
:1012E0000995892B11F4C80102C08FEF9FEFDF91A0
:1012F000CF911F910F910895ACE0B0E0E2E8F9E0E2
:101300000C94700D7C016B018A01FC01178216821E
:10131000838181FFBDC1CE0101964C01F70193810C
:10132000F60193FD859193FF81916F01882309F464
:10133000ABC1853239F493FD859193FF81916F01A3
:10134000853229F4B70190E00E94AE0CE7CF512C12
:10135000312C20E02032A0F48B3269F030F480325E
:1013600059F0833269F420612CC08D3239F080331A
:1013700039F4216026C02260246023C0286021C087
:1013800027FD27C030ED380F3A3078F426FF06C02D
:10139000FAE05F9E300D1124532E13C08AE0389E70
:1013A000300D1124332E20620CC08E3221F426FD24
:1013B0006BC1206406C08C3611F4206802C08836E8
:1013C00041F4F60193FD859193FF81916F018111A5
:1013D000C1CF982F9F7D9554933028F40C5F1F4FF9
:1013E000FFE3F9830DC0833631F0833771F0833525
:1013F00009F05BC022C0F801808189830E5F1F4F16
:1014000044244394512C540115C03801F2E06F0E6E
:10141000711CF801A080B18026FF03C0652D70E02B
:1014200002C06FEF7FEFC5012C870E94A30C2C0137
:1014300083012C852F77222E17C03801F2E06F0E22
:10144000711CF801A080B18026FF03C0652D70E0FB
:1014500002C06FEF7FEFC5012C870E94910C2C0119
:101460002C852068222E830123FC1BC0832D90E055
:1014700048165906B0F4B70180E290E00E94AE0C25
:101480003A94F4CFF50127FC859127FE81915F0105
:10149000B70190E00E94AE0C31103A94F1E04F1A7F
:1014A00051084114510471F7E5C0843611F08936B2
:1014B00039F5F80127FF07C060817181828193812E
:1014C0000C5F1F4F08C060817181882777FD809570
:1014D000982F0E5F1F4F2F76B22E97FF09C0909561
:1014E0008095709561957F4F8F4F9F4F2068B22EEA
:1014F0002AE030E0A4010E94E00CA82EA81844C005
:10150000853729F42F7EB22E2AE030E025C0F22F55
:10151000F97FBF2E8F36C1F018F4883579F0B4C04A
:10152000803719F0883721F0AFC02F2F2061B22EFD
:10153000B4FE0DC08B2D8460B82E09C024FF0AC0F4
:101540009F2F9660B92E06C028E030E005C020E14C
:1015500030E002C020E132E0F801B7FE07C0608150
:101560007181828193810C5F1F4F06C06081718100
:1015700080E090E00E5F1F4FA4010E94E00CA82EB7
:10158000A818FB2DFF77BF2EB6FE0BC02B2D2E7F8C
:10159000A51450F4B4FE0AC0B2FC08C02B2D2E7E58
:1015A00005C07A2C2B2D03C07A2C01C0752C24FF8A
:1015B0000DC0FE01EA0DF11D8081803311F4297EFA
:1015C00009C022FF06C07394739404C0822F8678EA
:1015D00009F0739423FD13C020FF06C05A2C731426
:1015E00018F4530C5718732C731468F4B70180E285
:1015F00090E02C870E94AE0C73942C85F5CF731469
:1016000010F4371801C0312C24FF12C0B70180E359
:1016100090E02C870E94AE0C2C8522FF17C021FF82
:1016200003C088E590E002C088E790E0B7010CC0F5
:10163000822F867859F021FD02C080E201C08BE242
:1016400027FD8DE2B70190E00E94AE0CA51438F49E
:10165000B70180E390E00E94AE0C5A94F7CFAA94B1
:10166000F401EA0DF11D8081B70190E00E94AE0CFB
:10167000A110F5CF332009F451CEB70180E290E0FC
:101680000E94AE0C3A94F6CFF7018681978102C092
:101690008FEF9FEF2C96E2E10C948C0D0F931F932C
:1016A000CF93DF93869F8001879F100D969F100D2B
:1016B0001124C8010E946A0BEC01009729F0A801CF
:1016C00060E070E00E949C0CCE01DF91CF911F91F1
:1016D0000F910895CF93DF938230910510F482E04B
:1016E00090E0E0911504F091160420E030E0A0E0D5
:1016F000B0E0309739F14081518148175907B8F06F
:101700004817590771F482819381109729F0139635
:101710009C938E9312972CC090931604809315047B
:1017200027C02115310531F04217530718F0A901E0
:10173000DB0101C0EF019A01BD01DF010280F381ED
:10174000E02DD7CF21153105F9F0281B390B2430B6
:10175000310580F48A819B816115710521F0FB01BF
:101760009383828304C09093160480931504FE0132
:10177000329644C0FE01E20FF31F819391932250F1
:101780003109398328833AC020911304309114041D
:10179000232B41F42091060130910701309314046A
:1017A0002093130420910401309105012115310586
:1017B00041F42DB73EB74091080150910901241B17
:1017C000350BE0911304F0911404E217F307A0F431
:1017D0002E1B3F0B2817390778F0AC014E5F5F4F87
:1017E0002417350748F04E0F5F1F509314044093A1
:1017F00013048193919302C0E0E0F0E0CF01DF9108
:10180000CF910895CF93DF93009709F487C0FC012F
:10181000329713821282C0911504D091160420973A
:1018200081F420813181280F391F80911304909118
:1018300014048217930779F5F0931404E0931304CA
:101840006DC0DE0120E030E0AE17BF0750F4129605
:101850004D915C9113979D014115510509F1DA01F4
:10186000F3CFB383A28340815181840F951F8A17E0
:101870009B0771F48D919C911197840F951F02968F
:101880009183808312968D919C9113979383828389
:101890002115310529F4F0931604E09315043EC098
:1018A000D9011396FC93EE9312974D915D91A40F7D
:1018B000B51FEA17FB0779F480819181840F951F8A
:1018C0000296D90111969C938E93828193811396EF
:1018D0009C938E931297E0E0F0E08A819B810097C1
:1018E00019F0FE01EC01F9CFCE0102962881398171
:1018F000820F931F20911304309114042817390785
:1019000069F4309729F4109216041092150402C05D
:1019100013821282D0931404C0931304DF91CF91E9
:101920000895FC010590615070400110D8F7809532
:1019300090958E0F9F1F0895DC0101C06D9341505B
:101940005040E0F70895FC01615070400190011093
:10195000D8F7809590958E0F9F1F08950F931F9332
:10196000CF93DF93182F092FEB018B8181FD03C0EB
:101970008FEF9FEF20C082FF10C04E815F812C81CE
:101980003D81421753077CF4E881F9819F012F5F65
:101990003F4F39832883108306C0E885F985812F5E
:1019A0000995892B29F72E813F812F5F3F4F3F8378
:1019B0002E83812F902FDF91CF911F910F9108954A
:1019C000FA01AA27283051F1203181F1E8946F9370
:1019D0006E7F6E5F7F4F8F4F9F4FAF4FB1E03ED016
:1019E000B4E03CD0670F781F891F9A1FA11D680FB4
:1019F000791F8A1F911DA11D6A0F711D811D911DE7
:101A0000A11D20D009F468943F912AE0269F11245B
:101A10003019305D3193DEF6CF010895462F4770BF
:101A2000405D4193B3E00FD0C9F7F6CF462F4F701A
:101A3000405D4A3318F0495D31FD4052419302D078
:101A4000A9F7EACFB4E0A69597958795779567951E
:101A5000BA95C9F700976105710508959B01AC011E
:101A60000A2E06945795479537952795BA95C9F745
:101A7000620F731F841F951FA01D0895052E97FBED
:101A80001EF400940E94550D57FD07D00E94A70D2B
:101A900007FC03D04EF40C94550D509540953095AD
:101AA00021953F4F4F4F5F4F0895909580957095CA
:101AB00061957F4F8F4F9F4F08950E94C90DA59F3D
:101AC000900DB49F900DA49F800D911D1124089539
:101AD000B7FF0C945D0D0E945D0D821B930B089562
:101AE0002F923F924F925F926F927F928F929F922E
:101AF000AF92BF92CF92DF92EF92FF920F931F931C
:101B0000CF93DF93CDB7DEB7CA1BDB0B0FB6F894CC
:101B1000DEBF0FBECDBF09942A88398848885F840C
:101B20006E847D848C849B84AA84B984C884DF807D
:101B3000EE80FD800C811B81AA81B981CE0FD11D61
:101B40000FB6F894DEBF0FBECDBFED010895A1E240
:101B50001A2EAA1BBB1BFD010DC0AA1FBB1FEE1F27
:101B6000FF1FA217B307E407F50720F0A21BB30B72
:101B7000E40BF50B661F771F881F991F1A9469F7EE
:101B800060957095809590959B01AC01BD01CF014A
:101B90000895A29FB001B39FC001A39F700D811D46
:101BA0001124911DB29F700D811D1124911D089566
:041BB000F894FFCFD7
:101BB40001000000000017042000001800120010AB
:101BC400526967687420627574746F6E20707265F0
:101BD400737365642C207072696E74696E67207605
:101BE400616C7565733A090900583A2025690959E9
:101BF4003A202569094C3A20256909523A20256979
:101C04000A0043616C6962726174696F6E20766167
:101C14006C7565733A200963616C5F583A202569D5
:101C24000963616C5F593A25690A005265666572F9
:101C3400656E63652056616C7565733A200958209A
:101C440025690959202569094C202569095220254F
:101C540069090A005374617274696E6720535241B2
:101C64004D20746573742E2E2E005772697465208E
:101C74007068617365206572726F723A206578745A
:101C84005F72616D5B2534645D203D2025303258E0
:101C9400202873686F756C64206265202530325883
:101CA400290A0052657472696576616C20706861F6
:101CB4007365206572726F723A206578745F726121
:101CC4006D5B2534645D203D202530325820287317
:101CD400686F756C642062652025303258290A00CB
:101CE4005352414D207465737420636F6D706C653D
:101CF40074656420776974680A2534642065727297
:101D04006F727320696E20777269746520706861E0
:101D1400736520616E640A253464206572726F7283
:101D24007309696E2072657472696576616C2070DE
:101D3400686173650A0A0031373A34343A3336003D
:101D44004F63742031302032303137006C346432C8
:101D5400004C4F4144494E47206731375F2573207B
:101D640025732025730A494E495449414C495A491F
:101D74004E472E2E2E0A0A55415254207375636322
:101D840065737366756C6C7920696E697469616CCE
:101D9400697A65640A0A004F4C454420737563638D
:101DA40065737366756C6C7920696E697469616CAE
:101DB400697A656400636F6E74726F6C20696E700B
:101DC4007574207375636365737366756C6C7920C1
:101DD400696E697469616C697A65640A0053524179
:101DE4004D207375636365737366756C6C792069D4
:101DF4006E697469616C697A656400496E746572B0
:101E04007275707473207375636365737366756C30
:101E14006C7920696E697469616C697A65640049DA
:101E24006E7465727275707473206163746976611F
:101E3400746564000A494E495449414C495A415415
:101E4400494F4E20434F4D504C45544500256900A1
:00000001FF
