:100000000C9456000C94B0000C940E010C94300229
:100010000C9473000C9473000C9473000C94730094
:100020000C9473000C9473000C9473000C94730084
:100030000C9473000C9473000C9473000C94730074
:100040000C9473000C9473000C9473000C94730064
:100050000C9473000C9473000C9473000C94730054
:100060000C9473000C9473000C9473000C94730044
:1000700043616C69627261746500666974207363C0
:100080007265656E00436F6E7472617374004D75B6
:10009000736963004F7074696F6E730044656275B5
:1000A00067004869676873636F72650011241FBE3B
:1000B000CFEFD4E0DEBFCDBF13E0A0E0B1E0E8EDCC
:1000C000FBE102C005900D92A43CB107D9F724E0F2
:1000D000A4ECB3E001C01D92A135B207E1F70E9484
:1000E0009E040C94EA0D0C9400008230910571F08E
:1000F0001CF4019739F01CC08330910559F0049726
:1001000069F016C084E1809300140BC085E18093F0
:10011000001407C086E18093001403C087E1809338
:10012000001482E58A95F1F78091001490E008951B
:1001300080E090E00895BA9ABB9A85B7816085BF48
:1001400085B7826085BF85B7846085BF85B78860C5
:1001500085BF8BB780648BBF8BB780688BBF0895DA
:100160001F920F920FB60F921124EF92FF920F93EE
:100170001F932F933F934F935F936F937F938F932F
:100180009F93AF93BF93CF93DF93EF93FF938CE055
:1001900091E09F938F930E94B00982E50E945203E1
:1001A000F82EE92E8CE40E945203182F092F89E5BE
:1001B0000E945203C82FD92F88E50E945203EF9264
:1001C000FF920F931F93DF93CF939F938F9385E3BA
:1001D00091E09F938F930E94B0090E9401068DB712
:1001E0009EB70C960FB6F8949EBF0FBE8DBFFF91C1
:1001F000EF91DF91CF91BF91AF919F918F917F91BF
:100200006F915F914F913F912F911F910F91FF90AF
:10021000EF900F900FBE0F901F9018951F920F92A6
:100220000FB60F9211242F933F934F935F936F93C9
:100230007F938F939F93AF93BF93EF93FF930E940E
:10024000FD05FF91EF91BF91AF919F918F917F91AC
:100250006F915F914F913F912F910F900FBE0F9033
:100260001F90189586B78E7F86BF8BB780628BBF35
:1002700041E061E08BE20E94220508959093C5035E
:100280008093C4036093C603662359F0942FA7ECB0
:10029000B3E0E42FF52F81918D938E2F891B861764
:1002A000D0F30895FF920F931F93CF93DF93EC0148
:1002B000F62E062F0295007F28813981B9017595A8
:1002C0006795759567957595679581E3800F0E9491
:1002D000E90468816295660F607E82E3800F0E9468
:1002E000E9046A816F7085E3800F0E94E9048A81C6
:1002F000882371F010E00A5CFE01E10FF11D6381BB
:10030000802F810F0E94E9041F5F9A811917A0F3C3
:1003100081E090E002C0880F991FFA94E2F78058BC
:100320000E940F05DF91CF911F910F91FF900895CB
:100330002091C603222359F0382FA7ECB3E0E82F11
:10034000F92F81918D938E2F831B8217D0F360E05C
:1003500084EC93E00E94520108950E94FD040895E8
:10036000EF92FF920F931F93CF93DF93E82EC82F46
:10037000C295C07F82E68C0F0E94AD0181E68C0F92
:100380000E94AD0128E0829FC00111249093D00308
:100390008093CF0385E68C0F0E94AD018F70E1ED55
:1003A000F3E080838081882381F0F12C8F01CF2DB1
:1003B000D0E086E68F0D0E94AD01C153DC4F8B83E8
:1003C000F394F8019081F91690F321E030E0B9013F
:1003D00002C0660F771FEA94E2F740E08CE20E94C9
:1003E00022058091CE031F928F938091CD031F929F
:1003F0008F938091CC031F928F938091CB031F9298
:100400008F938091CA031F928F938091C9031F928B
:100410008F938091C8031F928F938091C7031F927F
:100420008F938091C6031F928F93E4ECF3E0818158
:100430008F9380818F938EE491E09F938F930E949E
:10044000B0098DB79EB746960FB6F8949EBF0FBE03
:100450008DBFDF91CF911F910F91FF90EF90089585
:100460001F920F920FB60F9211242F933F934F9329
:100470005F936F937F938F939F93AF93BF93EF930C
:10048000FF9380E00E94B001FF91EF91BF91AF9187
:100490009F918F917F916F915F914F913F912F919C
:1004A0000F900FBE0F901F9018950F931F93CF932F
:1004B000DF93C4E6D0E00091E4031091E50381E00E
:1004C00090E00E94750001581F4F081B190B1093F4
:1004D000E5030093E4030091E2031091E30382E05B
:1004E00090E00E94750001581F4F081B190B1093D4
:1004F000E3030093E20321972097E9F68091E40358
:100500009091E50324E630E0B9010E943D09709323
:10051000E5036093E4038091E2039091E303B90162
:100520000E943D097093E3036093E203DF91CF9152
:100530001F910F9108952F923F924F925F926F9269
:100540007F928F929F92AF92BF92CF92DF92EF9263
:10055000FF920F931F93CF93DF9300D000D000D072
:10056000CDB7DEB73C017A8369835C834B833E83DE
:100570002D8318018501B901882777FD8095982F73
:100580000E944E084B015C01B3016E0D7F1D298155
:100590003A81621B730B882777FD8095982F0E9404
:1005A0004E082B013C01B1018D819E81681B790BA6
:1005B000882777FD8095982F0E944E089B01AC01FB
:1005C000C301B2010E94DA082B013C016B817C81DE
:1005D000E981FA816E1B7F0B882777FD8095982F24
:1005E0000E944E089B01AC01C301B2010E94B307F7
:1005F0009B01AC01C501B4010E944F070E941B087A
:10060000C101801B910B6817790774F58D819E815C
:10061000800F911F861797074CF5F80111230CF4F2
:100620003196F595E795D80112C08A0F9B1FAC0152
:100630004E0F5F1F6417750714F069010BC0C601E8
:100640008E1B9F0B8617970714F0C01AD10AC6019C
:10065000801B910B9601200F311F621773072CF737
:100660008617970714F704C0610102C0CD80DE80B1
:10067000C60126960FB6F894DEBF0FBECDBFDF9140
:10068000CF911F910F91FF90EF90DF90CF90BF908F
:10069000AF909F908F907F906F905F904F903F9022
:1006A0002F900895AF92BF92CF92DF92EF92FF9278
:1006B0000F931F93823509F474C020F48C3409F42D
:1006C0004EC091C0883519F0893529F18CC0C09091
:1006D000E003D090E103E090E403F090E50381E0D3
:1006E00090E00E9475000F2EFAE0AF2EB12CF02D95
:1006F00004E610E02CE93FEF4FEF50E060E070E0DF
:100700000E949B029093E1038093E0038091E003B9
:100710009091E1036AC0C090DE03D090DF03E090C7
:10072000E203F090E30382E090E00E9475000F2E58
:10073000FAE0AF2EB12CF02D04E610E02CE93FEFEB
:100740004FEF50E060E070E00E949B029093DF0367
:100750008093DE038091DE039091DF0346C0C0905A
:10076000DC03D090DD0383E090E00E9475000F2E43
:10077000FAE0AF2EB12CF02DE12CF12C04E610E0C4
:1007800020E030E04FEF50E060E070E00E949B021C
:100790009093DD038093DC038091DC039091DD0373
:1007A00024C0C090DA03D090DB0384E090E00E9484
:1007B00075000F2EFAE0AF2EB12CF02DE12CF12CAC
:1007C00004E610E020E030E04FEF50E060E070E041
:1007D0000E949B029093DB038093DA038091DA03FB
:1007E0009091DB0302C080E090E01F910F91FF9099
:1007F000EF90DF90CF90BF90AF9008950E94550288
:1008000088E50E9452039093E1038093E00389E519
:100810000E9452039093DF038093DE038CE40E94D6
:1008200052039093DD038093DC0382E50E94520320
:100830009093DB038093DA032091E2033091E3038A
:100840008091E4039091E5033F932F939F938F93BF
:1008500089E791E09F938F930E94B0096091DA033A
:100860007091DB034091DC035091DD032091DE03A6
:100870003091DF038091E0039091E1037F936F93C8
:100880005F934F933F932F939F938F9382EA91E0CF
:100890009F938F930E94B0098DB79EB740960FB675
:1008A000F8949EBF0FBE8DBF0895F8948FE190E03D
:1008B0000E9443078BEC91E09F938F9384ED91E02E
:1008C0009F938F9380EE91E09F938F9385EE91E0BD
:1008D0009F938F930E94B00985B7806885BF80B7CA
:1008E000806280BF0E9474060E9401078BE292E042
:1008F0000E94C4090E944F050E94FE0389E492E011
:100900000E94C40981E792E00E94C4090E949B00F2
:100910008FE892E00E94C40983EB92E00E94C40930
:1009200088EC92E00E94C40978948DB79EB708962F
:100930000FB6F8949EBF0FBE8DBF0895CF93DF937F
:10094000CDB7DEB728970FB6F894DEBF0FBECDBF88
:100950000E9455040E94010787E090E00E94300643
:100960000E943C050E94320183E0898384E08A83EF
:1009700085E08B8386E08C8387E08D8388E08E839F
:1009800089E08F838AE08887AE014F5F5F4F68E020
:1009900086E090E00E943E017894CE0101960E948C
:1009A000980184EA8A95F1F784E6898385E68A834B
:1009B00086E68B8387E68C8388E68D8389E68E8343
:1009C0008AE68F838BE68887CE0101960E94980184
:1009D000FFCFCF93DF93D82FC62F0E942C0782E042
:1009E0000E9421078D2F0E9421078C2F0E94210732
:1009F0000E942E07DF91CF910895CF93C82F0E94B8
:100A00002C0783E00E9421078C2F0E9421070E945F
:100A10002507C82F0E942E078C2FCF910895CF93C2
:100A2000C82F0E942C0721E030E0C90102C0880FC6
:100A3000991FCA95E2F780680E9421070E942E073D
:100A4000CF9108951F93CF93DF93182FD62FC42FE4
:100A50000E942C0785E00E942107812F0E94210718
:100A60008D2F0E9421078C2F0E9421070E942E07A4
:100A7000DF91CF911F9108950E9430070E942C07AB
:100A800080EC0E9421070E942E070E942C0740E460
:100A900060EE8FE00E9422050E942E070895CF93FA
:100AA000DF93CDE3D4E0D0932404C09323041092C9
:100AB0002604109225041092280410922704EFE1D6
:100AC000F4E082EA90E09183808383E090E0909369
:100AD00022048093210421EF33E0309342042093D9
:100AE000410469E274E070934404609343041092FB
:100AF0004604109245044CE950E059834883909392
:100B0000400480933F04F093F603E093F503CBE0B9
:100B1000D4E0D093F803C093F7031092FA03109235
:100B2000F90344E950E0D9014D935C939093F403A9
:100B30008093F30325E134E03093100420930F04F5
:100B40001092120410921104F0931404E093130411
:100B50008EE890E09983888382E090E090930E0481
:100B600080930D04D0931A04C093190410921C04AE
:100B700010921B04F0931E04E0931D0445E850E01E
:100B8000D9014D935C939093180480931704C3E3A9
:100B9000D4E0D0932E04C0932D0410923004109210
:100BA0002F04F0933204E09331042AE730E0DB01B4
:100BB0002D933C9390932C0480932B0470933804D2
:100BC0006093370410923A0410923904F0933C0475
:100BD000E0933B0420E730E0398328839093360488
:100BE00080933504F093EE03E093ED03F093F0036C
:100BF000E093EF03DF91CF91089581E08093E603C6
:100C0000089581E08093E70308951092EC03109219
:100C1000EB031092EA031092E903E0910A01F091CC
:100C20000B0181E28083E0910A01F0910B011082B7
:100C3000E0910A01F0910B018FE78083E0910A01B6
:100C4000F0910B0182E28083E0910A01F0910B01A7
:100C50001082E0910A01F0910B0187E080830895F2
:100C6000CF93DF93EC010E940506D093EC03C09371
:100C7000EB03CE0187709927892B89F0E0910A0157
:100C8000F0910B011082E0910A01F0910B0180E1DB
:100C90008083C06BE0910A01F0910B01C083DF916A
:100CA000CF910895CF93DF93EC010E9430062897EF
:100CB00050F480E890E0E0910801F0910901108281
:100CC00001970097C1F7DF91CF910895CF93DF93FC
:100CD000C0E0D0E0CE010E9452062196C830D10576
:100CE000C9F7DF91CF91089585B7806885BF80B738
:100CF000806280BFE0910A01F0910B018EEA80834F
:100D0000E0910A01F0910B0181EA8083E0910A01F0
:100D1000F0910B018AED8083E0910A01F0910B01C3
:100D200082E18083E0910A01F0910B0188EC8083DD
:100D3000E0910A01F0910B0188EA8083E0910A01B9
:100D4000F0910B018FE38083E0910A01F0910B0198
:100D500085ED8083E0910A01F0910B0180E88083AA
:100D6000E0910A01F0910B0181E88083E0910A0192
:100D7000F0910B0180E58083E0910A01F0910B0175
:100D800089ED8083E0910A01F0910B0181E280837B
:100D9000E0910A01F0910B0180E28083E0910A0169
:100DA000F0910B011082E0910A01F0910B018BEDA3
:100DB0008083E0910A01F0910B0180E38083E09150
:100DC0000A01F0910B018DEA8083E0910A01F09114
:100DD0000B011082E0910A01F0910B0184EA8083FB
:100DE000E0910A01F0910B0186EA8083E0910A010B
:100DF000F0910B018FEA80830E9466060E9405062F
:100E0000089540E050E070E060E014C09C01240FC1
:100E1000351FE0910601F0910701E20FF31F1082E8
:100E200001968038910591F740585F4F411584E055
:100E3000580719F0872F962FE9CF8FEF8093E8039B
:100E400008958FB9779BFECF089580E00E94210717
:100E5000779BFECF8FB10895C4980895C49A0895E2
:100E600087B3806B87BBBE986C9A6E9A709A0E940B
:100E70002E0708955D9BFECF8CB908955F9BFECF32
:100E80008CB190E0089590BD89B988E18AB96EE38C
:100E900077E08AE397E00E94650908955058BB27E0
:100EA000AA270ED04DC13ED130F043D120F031F40D
:100EB0009F3F11F41EF433C10EF4E095E7FB29C106
:100EC000E92F4FD180F3BA1762077307840795079C
:100ED00018F071F49EF567C10EF4E0950B2EBA2F51
:100EE000A02D0B01B90190010C01CA01A001112430
:100EF000FF27591B99F0593F50F4503E68F11A16DC
:100F0000F040A22F232F342F4427585FF3CF46956C
:100F100037952795A795F0405395C9F77EF41F168E
:100F2000BA0B620B730B840BBAF09150A1F0FF0F58
:100F3000BB1F661F771F881FC2F70EC0BA0F621F44
:100F4000731F841F48F4879577956795B795F79534
:100F50009E3F08F0B3CF9395880F08F09927EE0FC6
:100F60009795879508950CD0EBC0E3D040F0DAD088
:100F700030F021F45F3F19F0CCC0511115C1CFC042
:100F8000F0D098F39923C9F35523B1F3951B550B72
:100F9000BB27AA2762177307840738F09F5F5F4F4C
:100FA000220F331F441FAA1FA9F333D00E2E3AF08D
:100FB000E0E830D091505040E695001CCAF729D0A7
:100FC000FE2F27D0660F771F881FBB1F26173707F6
:100FD0004807AB07B0E809F0BB0B802DBF01FF2726
:100FE00093585F4F2AF09E3F510568F092C0DCC0D5
:100FF0005F3FECF3983EDCF3869577956795B79560
:10100000F7959F5FC9F7880F911D9695879597F97A
:101010000895E1E0660F771F881FBB1F62177307F3
:101020008407BA0720F0621B730B840BBA0BEE1F08
:1010300088F7E095089504D06894B111B5C008957B
:1010400098D088F09F5790F0B92F9927B751A0F00A
:10105000D1F0660F771F881F991F1AF0BA95C9F74C
:1010600012C0B13081F09FD0B1E008959CC0672FCD
:10107000782F8827B85F39F0B93FCCF386957795FC
:101080006795B395D9F73EF49095809570956195E5
:101090007F4F8F4F9F4F0895E89409C097FB3EF410
:1010A00090958095709561957F4F8F4F9F4F9923B5
:1010B000A9F0F92F96E9BB279395F6958795779533
:1010C0006795B795F111F8CFFAF4BB0F11F460FFF3
:1010D0001BC06F5F7F4F8F4F9F4F16C0882311F04B
:1010E00096E911C0772321F09EE8872F762F05C05F
:1010F000662371F096E8862F70E060E02AF09A95FA
:10110000660F771F881FDAF7880F9695879597F9EE
:10111000089597F99F6780E870E060E008959FEF79
:1011200080EC089500240A9416161706180609067E
:10113000089500240A94121613061406050608954D
:10114000092E0394000C11F4882352F0BB0F40F4D5
:10115000BF2B11F460FF04C06F5F7F4F8F4F9F4F15
:10116000089557FD9058440F551F59F05F3F71F097
:101170004795880F97FB991F61F09F3F79F08795FE
:101180000895121613061406551FF2CF4695F1DF87
:1011900008C0161617061806991FF1CF8695710517
:1011A000610508940895E894BB2766277727CB014B
:1011B00097F908950BD0C4CFB5DF28F0BADF18F047
:1011C000952309F0A6CFABCF1124EECFCADFA0F351
:1011D000959FD1F3950F50E0551F629FF001729FCC
:1011E000BB27F00DB11D639FAA27F00DB11DAA1FEB
:1011F000649F6627B00DA11D661F829F2227B00D38
:10120000A11D621F739FB00DA11D621F839FA00DC2
:10121000611D221F749F3327A00D611D231F849F12
:10122000600D211D822F762F6A2F11249F57504069
:101230008AF0E1F088234AF0EE0FFF1FBB1F661F04
:10124000771F881F91505040A9F79E3F510570F0BD
:1012500060CFAACF5F3FECF3983EDCF3869577959D
:101260006795B795F795E7959F5FC1F7FE2B880FB8
:10127000911D9695879597F9089597FB072E16F47B
:10128000009407D077FD09D00E94510907FC05D0D2
:101290003EF4909581959F4F0895709561957F4F8D
:1012A0000895AA1BBB1B51E107C0AA1FBB1FA617AD
:1012B000B70710F0A61BB70B881F991F5A95A9F7FF
:1012C00080959095BC01CD0108950F931F93CF9306
:1012D000DF93EC018B01009731F46115710519F46E
:1012E00080E090E038C06EE070E081E090E00E9425
:1012F000C30BFC010097A1F380E88383011511055E
:1013000071F01387028781E883838091470490916D
:101310004804892B21F4F0934804E0934704209774
:10132000C9F0D187C087838182608383809149041B
:1013300090914A04892B71F4F0934A04E093490494
:1013400080914B0490914C04892B21F4F0934C0430
:10135000E0934B04CF01DF91CF911F910F9108953E
:10136000A0E0B0E0E6EBF9E00C94C30DFE01359689
:1013700061917191AF018091490490914A040E945A
:10138000F109E2E00C94DF0D0F931F93CF93DF93ED
:10139000E0914904F0914A04238121FF1BC0EC0134
:1013A00000E010E089916091490470914A04DB01EA
:1013B0001896ED91FC911997882331F00995892BA6
:1013C00089F30FEF1FEFEECF8AE00995892B11F417
:1013D000C80102C08FEF9FEFDF91CF911F910F9156
:1013E0000895ACE0B0E0E7EFF9E00C94B30D7C01B8
:1013F0006B018A01FC0117821682838181FFBDC1C6
:10140000CE0101964C01F7019381F60193FD859180
:1014100093FF81916F01882309F4ABC1853239F4C0
:1014200093FD859193FF81916F01853229F4B70176
:1014300090E00E94230DE7CF512C312C20E0203288
:10144000A0F48B3269F030F4803259F0833269F4C1
:1014500020612CC08D3239F0803339F4216026C0F0
:101460002260246023C0286021C027FD27C030ED02
:10147000380F3A3078F426FF06C0FAE05F9E300D50
:101480001124532E13C08AE0389E300D1124332EC0
:1014900020620CC08E3221F426FD6BC1206406C090
:1014A0008C3611F4206802C0883641F4F60193FDB1
:1014B000859193FF81916F018111C1CF982F9F7DFD
:1014C0009554933028F40C5F1F4FFFE3F9830DC050
:1014D000833631F0833771F0833509F05BC022C069
:1014E000F801808189830E5F1F4F44244394512C5F
:1014F000540115C03801F2E06F0E711CF801A08094
:10150000B18026FF03C0652D70E002C06FEF7FEF52
:10151000C5012C870E94180D2C0183012C852F7783
:10152000222E17C03801F2E06F0E711CF801A08066
:10153000B18026FF03C0652D70E002C06FEF7FEF22
:10154000C5012C870E94060D2C012C852068222EB7
:10155000830123FC1BC0832D90E048165906B0F48C
:10156000B70180E290E00E94230D3A94F4CFF50198
:1015700027FC859127FE81915F01B70190E00E94D1
:10158000230D31103A94F1E04F1A510841145104DF
:1015900071F7E5C0843611F0893639F5F80127FF77
:1015A00007C060817181828193810C5F1F4F08C0E9
:1015B00060817181882777FD8095982F0E5F1F4F7E
:1015C0002F76B22E97FF09C0909580957095619502
:1015D0007F4F8F4F9F4F2068B22E2AE030E0A4014A
:1015E0000E94550DA82EA81844C0853729F42F7ED7
:1015F000B22E2AE030E025C0F22FF97FBF2E8F36C1
:10160000C1F018F4883579F0B4C0803719F0883704
:1016100021F0AFC02F2F2061B22EB4FE0DC08B2D54
:101620008460B82E09C024FF0AC09F2F9660B92E8F
:1016300006C028E030E005C020E130E002C020E133
:1016400032E0F801B7FE07C0608171818281938129
:101650000C5F1F4F06C06081718180E090E00E5FDB
:101660001F4FA4010E94550DA82EA818FB2DFF772F
:10167000BF2EB6FE0BC02B2D2E7FA51450F4B4FE4A
:101680000AC0B2FC08C02B2D2E7E05C07A2C2B2D53
:1016900003C07A2C01C0752C24FF0DC0FE01EA0D99
:1016A000F11D8081803311F4297E09C022FF06C01C
:1016B0007394739404C0822F867809F0739423FD89
:1016C00013C020FF06C05A2C731418F4530C57187B
:1016D000732C731468F4B70180E290E02C870E94A9
:1016E000230D73942C85F5CF731410F4371801C0B3
:1016F000312C24FF12C0B70180E390E02C870E94B8
:10170000230D2C8522FF17C021FF03C088E590E040
:1017100002C088E790E0B7010CC0822F867859F0AC
:1017200021FD02C080E201C08BE227FD8DE2B701FE
:1017300090E00E94230DA51438F4B70180E390E0F7
:101740000E94230D5A94F7CFAA94F401EA0DF11DDB
:101750008081B70190E00E94230DA110F5CF3320C6
:1017600009F451CEB70180E290E00E94230D3A9433
:10177000F6CFF7018681978102C08FEF9FEF2C96FD
:10178000E2E10C94CF0D0F931F93CF93DF93869FCD
:101790008001879F100D969F100D1124C8010E9493
:1017A000DF0BEC01009729F0A80160E070E00E94D7
:1017B000110DCE01DF91CF911F910F910895CF931D
:1017C000DF938230910510F482E090E0E0914F04C5
:1017D000F091500420E030E0A0E0B0E0309739F123
:1017E0004081518148175907B8F04817590771F4DB
:1017F00082819381109729F013969C938E93129770
:101800002CC09093500480934F0427C021153105BC
:1018100031F04217530718F0A901DB0101C0EF01B5
:101820009A01BD01DF010280F381E02DD7CF2115A0
:101830003105F9F0281B390B2430310580F48A81F9
:101840009B816115710521F0FB019383828304C0A4
:101850009093500480934F04FE01329644C0FE01E1
:10186000E20FF31F8193919322503109398328832A
:101870003AC020914D0430914E04232B41F4209125
:1018800002013091030130934E0420934D042091C6
:101890000001309101012115310541F42DB73EB70A
:1018A0004091040150910501241B350BE0914D043A
:1018B000F0914E04E217F307A0F42E1B3F0B2817FC
:1018C000390778F0AC014E5F5F4F2417350748F0B9
:1018D0004E0F5F1F50934E0440934D04819391939C
:1018E00002C0E0E0F0E0CF01DF91CF910895CF9307
:1018F000DF93009709F487C0FC01329713821282AC
:10190000C0914F04D0915004209781F420813181FF
:10191000280F391F80914D0490914E048217930730
:1019200079F5F0934E04E0934D046DC0DE0120E0A4
:1019300030E0AE17BF0750F412964D915C911397AB
:101940009D014115510509F1DA01F3CFB383A2835B
:1019500040815181840F951F8A179B0771F48D91E7
:101960009C911197840F951F029691838083129604
:101970008D919C911397938382832115310529F4CE
:10198000F0935004E0934F043EC0D9011396FC93AA
:10199000EE9312974D915D91A40FB51FEA17FB07C7
:1019A00079F480819181840F951F0296D901119657
:1019B0009C938E938281938113969C938E9312971E
:1019C000E0E0F0E08A819B81009719F0FE01EC01D4
:1019D000F9CFCE01029628813981820F931F209181
:1019E0004D0430914E042817390769F4309729F4D3
:1019F0001092500410924F0402C013821282D093AE
:101A00004E04C0934D04DF91CF910895FC010590E1
:101A1000615070400110D8F7809590958E0F9F1FF0
:101A20000895DC0101C06D9341505040E0F70895E6
:101A3000FC016150704001900110D8F7809590959D
:101A40008E0F9F1F08950F931F93CF93DF93182F2F
:101A5000092FEB018B8181FD03C08FEF9FEF20C029
:101A600082FF10C04E815F812C813D814217530758
:101A70007CF4E881F9819F012F5F3F4F39832883F0
:101A8000108306C0E885F985812F0995892B29F7F0
:101A90002E813F812F5F3F4F3F832E83812F902FD9
:101AA000DF91CF911F910F910895FA01AA27283055
:101AB00051F1203181F1E8946F936E7F6E5F7F4F1B
:101AC0008F4F9F4FAF4FB1E03ED0B4E03CD0670F97
:101AD000781F891F9A1FA11D680F791F8A1F911DEA
:101AE000A11D6A0F711D811D911DA11D20D009F43A
:101AF00068943F912AE0269F11243019305D31937C
:101B0000DEF6CF010895462F4770405D4193B3E064
:101B10000FD0C9F7F6CF462F4F70405D4A3318F00B
:101B2000495D31FD4052419302D0A9F7EACFB4E0BC
:101B3000A6959795879577956795BA95C9F7009774
:101B40006105710508959B01AC010A2E0694579515
:101B5000479537952795BA95C9F7620F731F841F6C
:101B6000951FA01D08952F923F924F925F926F9202
:101B70007F928F929F92AF92BF92CF92DF92EF921D
:101B8000FF920F931F93CF93DF93CDB7DEB7CA1B9E
:101B9000DB0B0FB6F894DEBF0FBECDBF09942A88C9
:101BA000398848885F846E847D848C849B84AA8471
:101BB000B984C884DF80EE80FD800C811B81AA81FE
:101BC000B981CE0FD11D0FB6F894DEBF0FBECDBFC9
:081BD000ED010895F894FFCF28
:101BD80000005104200000180012001052696768C4
:101BE8007420627574746F6E2070726573736564A7
:101BF8002C207072696E74696E672076616C7565E9
:101C0800733A090900583A20256909593A20256983
:101C1800094C3A20256909523A2025690A004944A5
:101C2800202569204C3A20256920444154413A2016
:101C38002569202569202569202569202569202511
:101C4800692025692025690A0043616C696272610F
:101C580074696F6E2076616C7565733A20096361EB
:101C68006C5F583A2025690963616C5F593A2569A8
:101C78000A005265666572656E63652056616C750B
:101C880065733A2009582025690959202569094CA6
:101C98002025690952202569090A0031363A31356B
:101CA8003A3433004F6374203136203230313700F4
:101CB8006C346432004C4F4144494E4720673137F9
:101CC8005F25732025732025730A494E49544941DD
:101CD8004C495A494E472E2E2E0A0A554152542035
:101CE8007375636365737366756C6C7920696E6967
:101CF8007469616C697A65640A0A004F4C4544202E
:101D08007375636365737366756C6C7920696E6946
:101D18007469616C697A656400636F6E74726F6C64
:101D280020696E7075742073756363657373667567
:101D38006C6C7920696E697469616C697A65640A8A
:101D4800005352414D207375636365737366756CF8
:101D58006C7920696E697469616C697A6564004997
:101D68006E746572727570747320737563636573CE
:101D78007366756C6C7920696E697469616C697ACF
:101D8800656400496E74657272757074732061635E
:101D980074697661746564000A494E495449414C36
:101DA800495A4154494F4E20434F4D504C45544594
:101DB800005374617274696E67205352414D2074E8
:101DC8006573742E2E2E00577269746520706861D1
:101DD8007365206572726F723A206578745F7261FC
:101DE8006D5B2534645D203D2025303258202873F2
:101DF800686F756C642062652025303258290A00A6
:101E080052657472696576616C20706861736520CB
:101E18006572726F723A206578745F72616D5B25C6
:101E280034645D203D2025303258202873686F7552
:101E38006C642062652025303258290A00535241CB
:101E48004D207465737420636F6D706C6574656480
:101E580020776974680A253464206572726F72731A
:101E680020696E20777269746520706861736520D7
:101E7800616E640A253464206572726F7273096931
:101E88006E2072657472696576616C207068617322
:041E9800650A0A00CD
:00000001FF
