:100000000C940A020C9464020C94C2020C9408032F
:100010000C9427020C9427020C9427020C942702BC
:100020000C9427020C9427020C9427020C942702AC
:100030000C9427020C9427020C9427020C9427029C
:100040000C94250D0C9427020C9427020C94270283
:100050000C9427020C9427020C9427020C9427027C
:100060000C9427020C9427020C9427020C9427026C
:10007000880083007E0078005249474854004C4570
:10008000465400444F574E00555000486F6C642052
:100090004A6F79737469636B004C657420676F00F5
:1000A000557365206C65667420736C6964657200B5
:1000B0002D3E525F42544E0043616C69627261741E
:1000C00065006669742073637265656E00436F6EC8
:1000D0007472617374004D75736963004F70746955
:1000E0006F6E730044656275670048696768736383
:1000F0006F726500000000000000000000065F5FF6
:10010000060000000007070007070000147F7F14A7
:100110007F7F1400242E6B6B3A1200004666301865
:100120000C666200307A4F5D377A4800040703009E
:1001300000000000001C3E63410000000041633EDF
:100140001C000000082A3E1C1C3E2A0808083E3EEF
:100150000808000000A0E06000000000080808088F
:100160000808000000006060000000006030180C0B
:10017000060301003E7F594D7F3E000042427F7FD3
:1001800040400000627359496F660000226349498C
:100190007F360000181C16137F7F10002767454527
:1001A0007D3900003C7E4B497930000003637119B2
:1001B0000F070000367F49497F360000064F496926
:1001C0003F1E000000006C6C0000000000A0EC6C02
:1001D00000000000081C36634100000014141414D1
:1001E00014140000004163361C080000020351593A
:1001F0000F0600003E7F415D5D1F1E007C7E1313D5
:100200007E7C0000417F7F49497F36001C3E634170
:1002100041632200417F7F41637F1C00417F7F4912
:100220005D416300417F7F491D0103001C3E634126
:10023000517372007F7F08087F7F000000417F7F3D
:1002400041000000307040417F3F0100417F7F0846
:100250001C776300417F7F41406070007F7F060C08
:10026000067F7F007F7F060C187F7F001C3E634166
:10027000633E1C00417F7F49090F06001E3F21712C
:100280007F5E0000417F7F19396F460026674D5918
:100290007B32000003417F7F410300007F7F4040AD
:1002A0007F7F00001F3F60603F1F00007F7F30188E
:1002B000307F7F0063771C081C776300074F7878D6
:1002C0004F0700006773594D47637100007F7F41FE
:1002D000410000000103060C183060000041417F1E
:1002E0007F000000080C0603060C08008080808058
:1002F00080808080000003070400000020745454B4
:100300003C784000413F7F44447C3800387C444482
:100310006C280000307848493F7F4000387C5454B6
:100320005C180000487E7F490302000098BCA4A42A
:10033000F87C0400417F7F08047C780000447D7DC8
:100340004000000040C484FD7D000000417F7F101C
:10035000386C440000417F7F400000007C7C0C181A
:100360000C7C78007C7C04047C780000387C44445D
:100370007C38000084FCF8A4243C1800183C24A419
:10038000F8FC8400447C78441C180000485C5454F9
:100390007424000000043E7F442400003C7C404064
:1003A0003C7C40001C3C60603C1C00003C7C60309D
:1003B000607C3C00446C3810386C44009CBCA0A0AD
:1003C000FC7C00004C64745C4C64000008083E77C0
:1003D0004141000000000077770000004141773E76
:1003E0000808000002030103020301006686B070E2
:1003F00070B08666007E424242427E00007E7E7E73
:100400007E7E7E00FF8080808080808001010101EF
:10041000010101FF11241FBECFEFD4E0DEBFCDBF2D
:1004200012E0A0E0B1E0E2E5F8E202C005900D9232
:10043000A43FB107D9F723E0A4EFB2E001C01D92B9
:10044000A638B207E1F70E9417060C9427140C9403
:1004500000008230910571F01CF4019739F01CC046
:100460008330910559F0049769F016C084E18093B8
:1004700000140BC085E18093001407C086E18093CF
:10048000001403C087E18093001482E58A95F1F798
:100490008091001490E0089580E090E00895BA9A69
:1004A000BB9A85B7816085BF85B7826085BF85B7F8
:1004B000846085BF85B7886085BF8BB780648BBF3C
:1004C0008BB780688BBF08951F920F920FB60F9263
:1004D0001124EF92FF920F931F932F933F934F930B
:1004E0005F936F937F938F939F93AF93BF93CF93BC
:1004F000DF93EF93FF938CE091E09F938F930E94A3
:100500001A1082E50E941604F82EE92E8CE40E944F
:100510001604182F092F89E50E941604C82FD92F19
:1005200088E50E941604EF92FF920F931F93DF93CA
:10053000CF939F938F9385E391E09F938F930E9436
:100540001A100E9408078DB79EB70C960FB6F89444
:100550009EBF0FBE8DBFFF91EF91DF91CF91BF91F5
:10056000AF919F918F917F916F915F914F913F914B
:100570002F911F910F91FF90EF900F900FBE0F9052
:100580001F9018951F920F920FB60F9211242F9360
:100590003F934F935F936F937F938F939F93AF930B
:1005A000BF93EF93FF930E940407FF91EF91BF91D8
:1005B000AF919F918F917F916F915F914F913F91FB
:1005C0002F910F900FBE0F901F9018959093F602E9
:1005D0008093F5026093F702662341F088EF92E082
:1005E000FC0111922E2F281B2617D8F3089586B7E9
:1005F0008E7F86BF8BB780628BBF41E061E08BE26C
:100600000E94290668E088E290E00E94E6020895D0
:100610001F920F920FB60F9211248F93F89481E0DE
:100620008093F40278948F910F900FBE0F901F90DB
:1006300018950F931F93CF93DF93C4E6D0E00091FA
:100640000A0310910B0381E090E00E9429020158F7
:100650001F4F081B190B10930B0300930A03009103
:1006600008031091090382E090E00E9429020158DA
:100670001F4F081B190B10930903009308032197C0
:100680002097E9F680910A0390910B0324E630E06D
:10069000B9010E945F0F70930B0360930A0380916E
:1006A000080390910903B9010E945F0F7093090339
:1006B00060930803DF91CF911F910F9108952F92BE
:1006C0003F924F925F926F927F928F929F92AF92E2
:1006D000BF92CF92DF92EF92FF920F931F93CF932F
:1006E000DF9300D000D000D0CDB7DEB73C017A83D5
:1006F00069835C834B833E832D8318018501B90197
:10070000882777FD8095982F0E944C0E4B015C0145
:10071000B3016E0D7F1D29813A81621B730B8827FF
:1007200077FD8095982F0E944C0E2B013C01B10162
:100730008D819E81681B790B882777FD8095982F86
:100740000E944C0E9B01AC01C301B2010E94FC0E41
:100750002B013C016B817C81E981FA816E1B7F0B4F
:10076000882777FD8095982F0E944C0E9B01AC0145
:10077000C301B2010E94B10D9B01AC01C501B401DE
:100780000E94490D0E94190EC101801B910B681730
:10079000790774F58D819E81800F911F86179707C9
:1007A0004CF5F80111230CF43196F595E795D80135
:1007B00012C08A0F9B1FAC014E0F5F1F6417750795
:1007C00014F069010BC0C6018E1B9F0B861797079B
:1007D00014F0C01AD10AC601801B910B9601200F9C
:1007E000311F621773072CF78617970714F704C099
:1007F000610102C0CD80DE80C60126960FB6F89456
:10080000DEBF0FBECDBFDF91CF911F910F91FF9043
:10081000EF90DF90CF90BF90AF909F908F907F90A0
:100820006F905F904F903F902F900895AF92BF923E
:10083000CF92DF92EF92FF920F931F93823509F4CC
:1008400074C020F48C3409F44EC091C0883519F07E
:10085000893529F18CC0C0900603D0900703E09041
:100860000A03F0900B0381E090E00E9429020F2E12
:10087000FAE0AF2EB12CF02D04E610E02CE93FEFAA
:100880004FEF50E060E070E00E945F039093070339
:100890008093060380910603909107036AC0C0907D
:1008A0000403D0900503E0900803F090090382E070
:1008B00090E00E9429020F2EFAE0AF2EB12CF02D0D
:1008C00004E610E02CE93FEF4FEF50E060E070E00D
:1008D0000E945F03909305038093040380910403B7
:1008E0009091050346C0C0900203D090030383E0BB
:1008F00090E00E9429020F2EFAE0AF2EB12CF02DCD
:10090000E12CF12C04E610E020E030E04FEF50E065
:1009100060E070E00E945F03909303038093020302
:10092000809102039091030324C0C0900003D090F3
:10093000010384E090E00E9429020F2EFAE0AF2E1E
:10094000B12CF02DE12CF12C04E610E020E030E099
:100950004FEF50E060E070E00E945F03909301036E
:1009600080930003809100039091010302C080E016
:1009700090E01F910F91FF90EF90DF90CF90BF908C
:10098000AF9008950E94190388E50E941604909381
:1009900007038093060389E50E94160490930503DC
:1009A000809304038CE40E941604909303038093C5
:1009B000020382E50E9416049093010380930003D2
:1009C000209108033091090380910A0390910B0351
:1009D0003F932F939F938F938EE491E09F938F93F8
:1009E0000E941A106091000370910103409102036C
:1009F0005091030320910403309105038091060375
:100A0000909107037F936F935F934F933F932F933F
:100A10009F938F9387E791E09F938F930E941A1083
:100A20008DB79EB740960FB6F8949EBF0FBE8DBF90
:100A3000089521E030E049E050E06DE370E088E1A6
:100A400090E00E94940A21E030E047E250E061E04B
:100A500070E089E090E00E94940A2DE030E044E2EA
:100A600050E061E070E087E290E00E94940A2DE09F
:100A700030E042E150E06DE070E084E290E00E94FE
:100A8000940A25E230E048E150E06DE070E082E158
:100A900090E00E94940A29E130E04BE150E065E2E9
:100AA00070E088E190E00E94940A29E130E041E2A0
:100AB00050E069E170E08BE190E00E94940A2DE340
:100AC00030E048E150E069E170E081E290E00E94AE
:100AD000940A21E045E46DE38BE30E94C70C21E01A
:100AE00030E047E750E06DE370E088E690E00E9478
:100AF000940A21E030E047E750E061E070E089E5EA
:100B000090E00E94940A2DE030E04CE550E061E076
:100B100070E089E590E00E94940A2DE030E04EE616
:100B200050E06DE070E08CE590E00E94940A29E1CD
:100B300030E04BE650E06DE070E08EE690E00E9421
:100B4000940A29E130E04FE550E069E170E08BE67E
:100B500090E00E94940A25E230E042E650E069E12C
:100B600070E08FE590E00E94940A25E230E048E6CC
:100B700050E065E270E082E690E00E94940A21E392
:100B800030E045E650E065E270E088E690E00E94E3
:100B9000940A2DE330E048E650E061E370E085E63A
:100BA00090E00E94940A0E94C40B2FEF8FEF9EE00A
:100BB000215080409040E1F700C000000895F89473
:100BC0008FE190E00E943D0D83E892E09F938F9328
:100BD0008CE892E09F938F9388E992E09F938F93A4
:100BE0008DE992E09F938F930E941A1085B78068D9
:100BF00085BF80B7806280BF0E943B090E94F70BCF
:100C00000E9419050E94C40B0E9456060E94C2044D
:100C10000E944F028CE30E940A0D78948DB79EB714
:100C200008960FB6F8949EBF0FBE8DBF08950E9420
:100C3000DF0587E090E00E94F00883EE92E00E94DA
:100C4000250A0E9443060E94F70278940E945908E0
:100C5000FDCF1F93CF93DF93182FD62FC42F0E9461
:100C6000FC0C85E00E94F80C812F0E94F80C8D2F5F
:100C70000E94F80C8C2F0E94F80C0E94FE0CDF9151
:100C8000CF911F9108950E94000D0E94FC0C80ECF2
:100C90000E94F80C0E94FE0C0E94FC0C40E460EEE6
:100CA0008FE00E9429060E94FE0C0895CF93DF93E7
:100CB000C5E6D3E0D0934C03C0934B0310924E0390
:100CC00010924D031092500310924F03E7E4F3E0AB
:100CD0008AEE90E09183808383E090E090934A03D2
:100CE0008093490329E133E030936A032093690339
:100CF00061E573E070936C0360936B0310926E0375
:100D000010926D0344EE50E059834883909368033A
:100D100080936703F0931E03E0931D03C3E3D3E0C6
:100D2000D0932003C0931F0310922203109221033B
:100D30004CED50E0D9014D935C9390931C0380934C
:100D40001B032DE333E030933803209337031092D5
:100D50003A0310923903F0933C03E0933B0386ED92
:100D600090E09983888382E090E0909336038093AB
:100D70003503D0934203C093410310924403109271
:100D80004303F0934603E09345034DEC50E0D90153
:100D90004D935C939093400380933F03CBE5D3E066
:100DA000D0935603C09355031092580310925703E3
:100DB000F0935A03E093590322EC30E0DB012D93CA
:100DC0003C93909354038093530370936003609318
:100DD0005F031092620310926103F0936403E09347
:100DE000630328EB30E03983288390935E0380937C
:100DF0005D03F0931603E0931503F0931803E0935B
:100E00001703DF91CF91089581E080930E03089539
:100E100081E080930F03089580E090E00E94F00845
:100E200060EA70E083E293E00E94C80F83E293E0FF
:100E30000E94250A81E090E00E94190C82E090E077
:100E40000E94F00860EB70E083E293E00E94C80F1C
:100E500083E293E00E94250A0E94C40B80910F0355
:100E600081110FC081E80E94BF0883E090E00E94DA
:100E70002902969587950E94BF0880910F038823C9
:100E800089F310920F0308950F931F93CF93DF936D
:100E9000C0E0D0E0CE010E94190C2196C730D105E8
:100EA000C9F780E090E00E94F00869E970E083E211
:100EB00093E00E94C80F83E293E00E94250A82E03B
:100EC00090E00E94F00860EB70E083E293E00E9403
:100ED000C80F83E293E00E94250A0E94C40B809110
:100EE0000F0381110AC08CEC94E00197F1F700C068
:100EF000000080910F038823B1F310920F0380E06C
:100F000090E00E9419096BE870E083E293E00E9490
:100F1000C80F83E293E00E94250AC0E7D0E008E70B
:100F200010E081E090E00E941909FE016591749142
:100F300083E293E00E94C80F83E293E00E94250AB7
:100F40000E94C40B80910F0381110AC08CEC94E0C5
:100F50000197F1F700C0000080910F038823B1F3DF
:100F600010920F032296C017D107D9F6DF91CF91C7
:100F70001F910F910895809117039091180323E01A
:100F80008D33920719F40E940C0708958B559340F6
:100F900011F40E944407089589E50E9416048734DD
:100FA00091054CF120910C0330910D03273431054C
:100FB00014F5E0911703F091180382819381019752
:100FC000181619068CF480E090E00480F581E02D7D
:100FD0000196228133812150310982179307ACF3A6
:100FE000F0931803E093170384E690E090930D03C9
:100FF00080930C0325C08A3B2FEF9207C4F4209105
:101000000C0330910D032A3B3F4F8CF0E091170306
:10101000F0911803848195819093180380931703AE
:101020008CE99FEF90930D0380930C0309C08B5BB9
:101030009F4F8B38910520F410920D0310920C03F2
:1010400080910F038130B1F410920F03E0911703E8
:10105000F091180386819781009749F090931603C9
:101060008093150390931803809317031FC00E9469
:10107000BB071CC080910E038130C1F410920E0397
:10108000E0911703F091180380859185009771F026
:10109000E0911503F09116032085318530931603F6
:1010A00020931503909318038093170380E090E03A
:1010B00008950F931F93CF93DF930E94CC07892B42
:1010C00009F04CC0C0E0D0E0CE010E94190C21967E
:1010D000C730D105C9F7E0911503F091160382815D
:1010E000938118161906D4F5C0E0D0E010E801E8A5
:1010F000CE010E94F00880E090E00E941209E09189
:101100001503F09116036081718183E293E00E94E0
:10111000C80F209115033091160380911703909109
:1011200018032817390711F4802F01C0812F0E945E
:10113000C80983E293E00E94250AE0911503F0912B
:1011400016030480F581E02DF0931603E093150358
:10115000219682819381C817D90754F20E941F0DEE
:10116000882341F00E94C40B0E94220D61E087E0B9
:101170000E94490CDF91CF911F910F910895E0914A
:101180000A01F0910B0180830895109214031092CC
:1011900013031092120310921103E0910A01F091CF
:1011A0000B0181E28083E0910A01F0910B01108232
:1011B000E0910A01F0910B018FE78083E0910A0131
:1011C000F0910B0182E28083E0910A01F0910B0122
:1011D0001082E0910A01F0910B0187E0808308956D
:1011E000CF93DF93EC010E94C508D0931403C09302
:1011F0001303CE0187709927892B89F0E0910A01AA
:10120000F0910B011082E0910A01F0910B0180E155
:101210008083C06BE0910A01F0910B01C083DF91E4
:10122000CF9108958F77992790931203809311039C
:101230000895CF93DF93EC010E94F008289750F4B3
:1012400080E890E0E0910801F09109011082019797
:101250000097C1F7DF91CF910895CF93DF93C0E05E
:10126000D0E0CE010E9419092196C830D105C9F7F6
:10127000DF91CF91089585B7806885BF80B7806280
:1012800080BFE0910A01F0910B018EEA8083E0912A
:101290000A01F0910B0181EA8083E0910A01F0914B
:1012A0000B018AED8083E0910A01F0910B0182E14C
:1012B0008083E0910A01F0910B0188EC8083E0913A
:1012C0000A01F0910B0188EA8083E0910A01F09114
:1012D0000B018FE38083E0910A01F0910B0185ED12
:1012E0008083E0910A01F0910B0180E88083E09116
:1012F0000A01F0910B0181E88083E0910A01F091ED
:101300000B0180E58083E0910A01F0910B0189EDEA
:101310008083E0910A01F0910B0181E28083E091EA
:101320000A01F0910B0180E28083E0910A01F091C3
:101330000B011082E0910A01F0910B018BED80838B
:10134000E0910A01F0910B0180E38083E0910A01B2
:10135000F0910B018DEA8083E0910A01F0910B017D
:101360001082E0910A01F0910B0184EA8083E09100
:101370000A01F0910B0186EA8083E0910A01F09165
:101380000B018FEA80830E942D090E94C5080895F1
:101390008A3091F480911303909114030196877021
:1013A00099279093140380931303109212031092C1
:1013B000110381E090E00895882309F443C0E82FE9
:1013C000F0E0EE0FFF1FEE0FFF1FEE0FFF1FEC50C0
:1013D000F04080E090E0A0911303B0911403B69523
:1013E000BA2FAA27B795A795209111033091120320
:1013F000A20FB31F2091060130910701A20FB31F66
:1014000024912C9320911103309112032F5F3F4FB1
:101410003093120320931103019631968830910581
:10142000D1F681E090E00090130302C0880F991F6D
:101430000A94E2F790911003892B8093100381E0C6
:1014400090E0089580E090E00895CF93DF93EC0161
:1014500089910E94C809892BD9F7DF91CF9108950E
:101460009C0127703078332334F421503109286FE0
:101470003F6F2F5F3F4FF901F695FE2FEE27F7954F
:10148000E7956F777078772334F46150710960685D
:101490007F6F6F5F7F4F6E0F7F1FE0910601F091AE
:1014A0000701E60FF71F9081492B408321E030E0D0
:1014B000A90102C0440F551F8A95E2F7CA01909115
:1014C0001003892B8093100308958038910530F51F
:1014D0006034710530F59B0127703078332334F484
:1014E00021503109286F3F6F2F5F3F4F41E050E09F
:1014F00002C0440F551F2A95E2F7FB01FF230CF4AD
:101500003796BC01CF0195958795959587959595CB
:1015100087950E94300A81E090E0089580E090E095
:10152000089580E090E008952F923F924F925F924D
:101530006F927F928F929F92AF92BF92CF92DF92E3
:10154000EF92FF920F931F93CF93DF93CDB7DEB748
:1015500060970FB6F894DEBF0FBECDBF1C017A872F
:1015600069875C874B8738872F83481759070CF4A6
:10157000C0C08417950709F493C0B90129853A853D
:10158000621B730B882777FD8095982F0E944C0E65
:101590006B017C016B857C8562197309882777FD57
:1015A0008095982F0E944C0E9B01AC01C701B6019B
:1015B0000E94B10D6B837C838D839E83B10188274C
:1015C00077FD8095982F0E944C0E69837A83E82ED0
:1015D000F92EEB85FC85BF01882777FD8095982F34
:1015E0000E944C0E4B015C019B01AC0169817A8128
:1015F0008E2D9F2D0E94AD0D88230CF051C01981B6
:10160000CA800F2D29853A852901662457FC6094EC
:10161000762C3E862D862E2C3F2CC88AEF8629817B
:101620003A81422D532D612F78898F85902F0E940A
:10163000480D2B813C814D815E810E94FC0E6B0127
:101640007C01C301B2010E944C0E9B01AC01C70199
:10165000B6010E94490D0E94190E6B017C01612F99
:1016600078898F85902F0E94190EDC01CB01B6017D
:101670000E94650A2DEC3CEC4CEC5DE3612F78890F
:101680008F85902F0E94490D162F788B8F87092FF9
:10169000A50194010E94AD0D88230CF22D843E8497
:1016A00089859A85EF81F885E817F90734F49985DB
:1016B0008A85FA87E9879F8388872B853C85221650
:1016C000330699F4F98469857A8577278F8198851F
:1016D0006817790754F48C01C1010E94650AF394DC
:1016E0006F2D70E060177107BCF38FEF80931003CC
:1016F00032C069857A85EF81F8856E1B7F0B88275C
:1017000077FD8095982F0E944C0E6B017C01B101F2
:101710002B853C85621B730B882777FD8095982F5E
:101720000E944C0E9B01AC01C701B6010E94B10D95
:101730006B837C838D839E8399858A85EF81F88571
:10174000FA87E9879F838887922D832D2B843C8499
:101750009B878C8733CF60960FB6F894DEBF0FBEA1
:10176000CDBFDF91CF911F910F91FF90EF90DF9050
:10177000CF90BF90AF909F908F907F906F905F9031
:101780004F903F902F900895EF92FF920F931F93E9
:10179000CF93DF93C0E0D0E000E010E0E12CF12C2B
:1017A000C8010E94F0082E2D3F2DA9014C0F5D1F8E
:1017B000E0910601F0910701E40FF51F8081E091AF
:1017C0000801F091090180832F5F3F4F20383105D8
:1017D00061F70F5F1F4FC058DF4F0830110501F749
:1017E000DF91CF911F910F91FF90EF90089540E00E
:1017F00050E070E060E014C09C01240F351FE091C0
:101800000601F0910701E20FF31F10820196803864
:10181000910591F740585F4F411584E0580719F042
:10182000872F962FE9CF8FEF809310030E94C40B70
:101830000895CF93DF93EC010E94F008C830D105E2
:1018400028F5BE017695762F66277795679520E077
:1018500030E0A901460F571FE0910601F091070102
:10186000E40FF51F10822F5F3F4F2038310589F7B5
:1018700081E090E09C0102C0220F331FCA95E2F77D
:10188000E90180911003C82BC0931003DF91CF9121
:101890000895EF92FF921F93CF93DF93D82FC62F17
:1018A000693020F0C8506C2F0E94490CCC2309F4F9
:1018B0005CC0A0910601B091070120E8D29FA00D65
:1018C000B11D11248FE693E0FC012D9121932E2F61
:1018D000281B2C17D0F38C2F90E060E870E0681B79
:1018E000790B161617060CF444C018C04091060177
:1018F000509107012E0D3F1DFA01E20FF31F280F33
:10190000391F420F531FDA012C9120831F5F212FB3
:1019100030E02617370754F3CC23D1F0B0E8DB9F33
:1019200090011124281B390B4FE653E0FA01205F88
:101930003240C9018E0F9F1FA0910601B09107018F
:10194000A80FB91F81918C938E2F841B8C1788F35D
:1019500081E090E002C0880F991FDA95E2F7D091FC
:1019600010038D2B809310030CC060E870E080E0C2
:1019700090E020E8D29F7001112420E030E010E0D8
:10198000B5CFDF91CF911F91FF90EF900895CF9247
:10199000DF92EF92FF920F931F93CF93DF93C42FA9
:1019A000E22EF12C062F10E0C82ED12C9701A601B3
:1019B000B801C6010E94940AD0E09801AE01B801B6
:1019C000C6010E94940A9701AE01B701C6010E94A8
:1019D000940A9701AE01B801CE010E94940ADF91EA
:1019E000CF911F910F91FF90EF90DF90CF900895CE
:1019F0008FB9779BFECF0895C4980895C49A08952F
:101A000087B3806B87BBBE986C9A6E9A709A0E945F
:101A1000FE0C0895282F89B7816089BF83B78D6038
:101A200083BF30E040E050E060EC72E180E090E0A5
:101A30000E94730F21BF81E080937B030895809102
:101A40007B03089510927B0308951F920F920FB6A7
:101A50000F9211248F9381E080937B038F910F90DD
:101A60000FBE0F901F9018955D9BFECF8CB9089507
:101A70005F9BFECF8CB190E0089590BD89B988E15D
:101A80008AB968E37DE084E39DE00E94CF0F08956A
:101A90005058BB27AA270ED075C166D130F06BD144
:101AA00020F031F49F3F11F41EF45BC10EF4E09579
:101AB000E7FB51C1E92F77D180F3BA1762077307AB
:101AC0008407950718F071F49EF58FC10EF4E09528
:101AD0000B2EBA2FA02D0B01B90190010C01CA01E8
:101AE000A0011124FF27591B99F0593F50F4503E93
:101AF00068F11A16F040A22F232F342F4427585F85
:101B0000F3CF469537952795A795F0405395C9F79C
:101B10007EF41F16BA0B620B730B840BBAF0915054
:101B2000A1F0FF0FBB1F661F771F881FC2F70EC0F3
:101B3000BA0F621F731F841F48F4879577956795C6
:101B4000B795F7959E3F08F0B3CF9395880F08F0AF
:101B50009927EE0F979587950895D9D008F481E0DD
:101B600008950CD00FC107D140F0FED030F021F421
:101B70005F3F19F0F0C0511139C1F3C014D198F38F
:101B80009923C9F35523B1F3951B550BBB27AA27FE
:101B900062177307840738F09F5F5F4F220F331F70
:101BA000441FAA1FA9F333D00E2E3AF0E0E830D03C
:101BB00091505040E695001CCAF729D0FE2F27D03F
:101BC000660F771F881FBB1F261737074807AB070D
:101BD000B0E809F0BB0B802DBF01FF2793585F4F82
:101BE0002AF09E3F510568F0B6C000C15F3FECF39C
:101BF000983EDCF3869577956795B795F7959F5F47
:101C0000C9F7880F911D9695879597F90895E1E09A
:101C1000660F771F881FBB1F621773078407BA07F9
:101C200020F0621B730B840BBA0BEE1F88F7E09554
:101C3000089504D06894B111D9C00895BCD088F03B
:101C40009F5790F0B92F9927B751A0F0D1F0660FA8
:101C5000771F881F991F1AF0BA95C9F712C0B130C3
:101C600081F0C3D0B1E00895C0C0672F782F8827D6
:101C7000B85F39F0B93FCCF3869577956795B39502
:101C8000D9F73EF490958095709561957F4F8F4F71
:101C90009F4F0895E89409C097FB3EF49095809576
:101CA000709561957F4F8F4F9F4F9923A9F0F92F22
:101CB00096E9BB279395F695879577956795B795A0
:101CC000F111F8CFFAF4BB0F11F460FF1BC06F5F86
:101CD0007F4F8F4F9F4F16C0882311F096E911C098
:101CE000772321F09EE8872F762F05C0662371F0B9
:101CF00096E8862F70E060E02AF09A95660F771FCD
:101D0000881FDAF7880F9695879597F90895990FA8
:101D10000008550FAA0BE0E8FEEF16161706E807B5
:101D2000F907C0F012161306E407F50798F0621BD6
:101D3000730B840B950B39F40A2661F0232B242BAB
:101D4000252B21F408950A2609F4A140A6958FEFCA
:101D5000811D811D089597F99F6780E870E060E01C
:101D600008959FEF80EC089500240A941616170634
:101D700018060906089500240A941216130614067C
:101D800005060895092E0394000C11F4882352F0DF
:101D9000BB0F40F4BF2B11F460FF04C06F5F7F4F97
:101DA0008F4F9F4F089557FD9058440F551F59F07E
:101DB0005F3F71F04795880F97FB991F61F09F3F38
:101DC00079F087950895121613061406551FF2CF61
:101DD0004695F1DF08C0161617061806991FF1CFB1
:101DE00086957105610508940895E894BB276627D8
:101DF0007727CB0197F908950BD0C4CFB5DF28F032
:101E0000BADF18F0952309F0A6CFABCF1124EECF9F
:101E1000CADFA0F3959FD1F3950F50E0551F629F45
:101E2000F001729FBB27F00DB11D639FAA27F00D33
:101E3000B11DAA1F649F6627B00DA11D661F829F5A
:101E40002227B00DA11D621F739FB00DA11D621F3F
:101E5000839FA00D611D221F749F3327A00D611D5C
:101E6000231F849F600D211D822F762F6A2F11243E
:101E70009F5750408AF0E1F088234AF0EE0FFF1F91
:101E8000BB1F661F771F881F91505040A9F79E3FC8
:101E9000510570F060CFAACF5F3FECF3983EDCF3C2
:101EA000869577956795B795F795E7959F5FC1F705
:101EB000FE2B880F911D9695879597F9089597FBAE
:101EC000072E16F4009407D077FD09D00E94920FD8
:101ED00007FC05D03EF4909581959F4F089570952D
:101EE00061957F4F0895052E97FB1EF400940E9484
:101EF0008A0F57FD07D00E94A60F07FC03D04EF4AF
:101F00000C948A0F50954095309521953F4F4F4F37
:101F10005F4F089590958095709561957F4F8F4F95
:101F20009F4F0895AA1BBB1B51E107C0AA1FBB1FEF
:101F3000A617B70710F0A61BB70B881F991F5A9555
:101F4000A9F780959095BC01CD010895A1E21A2EC4
:101F5000AA1BBB1BFD010DC0AA1FBB1FEE1FFF1F4D
:101F6000A217B307E407F50720F0A21BB30BE40B9D
:101F7000F50B661F771F881F991F1A9469F76095E4
:101F80007095809590959B01AC01BD01CF0108959E
:101F9000FB01DC0105900D920020E1F708950F93FD
:101FA0001F93CF93DF93EC018B01009731F4611500
:101FB000710519F480E090E038C06EE070E081E0D7
:101FC00090E00E940012FC010097A1F380E8838357
:101FD0000115110571F01387028781E883838091D1
:101FE0007C0390917D03892B21F4F0937D03E09392
:101FF0007C032097C9F0D187C08783818260838367
:1020000080917E0390917F03892B71F4F0937F037D
:10201000E0937E038091800390918103892B21F4CA
:10202000F0938103E0938003CF01DF91CF911F9163
:102030000F910895A0E0B0E0E0E2F0E10C9400140C
:10204000FE01359661917191AF0180917E0390916F
:102050007F030E942E10E2E00C941C14ACE0B0E070
:10206000E4E3F0E10C94F0137C016B018A01FC01C4
:1020700017821682838181FFBDC1CE0101964C017A
:10208000F7019381F60193FD859193FF81916F0193
:10209000882309F4ABC1853239F493FD859193FF10
:1020A00081916F01853229F4B70190E00E9460139D
:1020B000E7CF512C312C20E02032A0F48B3269F094
:1020C00030F4803259F0833269F420612CC08D32B3
:1020D00039F0803339F4216026C02260246023C0A7
:1020E000286021C027FD27C030ED380F3A3078F442
:1020F00026FF06C0FAE05F9E300D1124532E13C058
:102100008AE0389E300D1124332E20620CC08E32AE
:1021100021F426FD6BC1206406C08C3611F42068C2
:1021200002C0883641F4F60193FD859193FF8191B9
:102130006F018111C1CF982F9F7D9554933028F462
:102140000C5F1F4FFFE3F9830DC0833631F08337F7
:1021500071F0833509F05BC022C0F801808189836A
:102160000E5F1F4F44244394512C540115C0380175
:10217000F2E06F0E711CF801A080B18026FF03C051
:10218000652D70E002C06FEF7FEFC5012C870E94C4
:1021900055132C0183012C852F77222E17C038016F
:1021A000F2E06F0E711CF801A080B18026FF03C021
:1021B000652D70E002C06FEF7FEFC5012C870E9494
:1021C00043132C012C852068222E830123FC1BC085
:1021D000832D90E048165906B0F4B70180E290E0F4
:1021E0000E9460133A94F4CFF50127FC859127FEF5
:1021F00081915F01B70190E00E94601331103A9421
:10220000F1E04F1A51084114510471F7E5C08436CA
:1022100011F0893639F5F80127FF07C06081718117
:10222000828193810C5F1F4F08C060817181882774
:1022300077FD8095982F0E5F1F4F2F76B22E97FF58
:1022400009C090958095709561957F4F8F4F9F4FF6
:102250002068B22E2AE030E0A4010E949213A82E3A
:10226000A81844C0853729F42F7EB22E2AE030E02A
:1022700025C0F22FF97FBF2E8F36C1F018F48835B4
:1022800079F0B4C0803719F0883721F0AFC02F2F14
:102290002061B22EB4FE0DC08B2D8460B82E09C013
:1022A00024FF0AC09F2F9660B92E06C028E030E0B8
:1022B00005C020E130E002C020E132E0F801B7FEC5
:1022C00007C060817181828193810C5F1F4F06C0BE
:1022D0006081718180E090E00E5F1F4FA4010E9439
:1022E0009213A82EA818FB2DFF77BF2EB6FE0BC0A9
:1022F0002B2D2E7FA51450F4B4FE0AC0B2FC08C0EA
:102300002B2D2E7E05C07A2C2B2D03C07A2C01C0DC
:10231000752C24FF0DC0FE01EA0DF11D8081803374
:1023200011F4297E09C022FF06C07394739404C07F
:10233000822F867809F0739423FD13C020FF06C016
:102340005A2C731418F4530C5718732C731468F424
:10235000B70180E290E02C870E94601373942C8573
:10236000F5CF731410F4371801C0312C24FF12C0BC
:10237000B70180E390E02C870E9460132C8522FF38
:1023800017C021FF03C088E590E002C088E790E015
:10239000B7010CC0822F867859F021FD02C080E27F
:1023A00001C08BE227FD8DE2B70190E00E9460132F
:1023B000A51438F4B70180E390E00E9460135A94AA
:1023C000F7CFAA94F401EA0DF11D8081B70190E0E6
:1023D0000E946013A110F5CF332009F451CEB7014C
:1023E00080E290E00E9460133A94F6CFF701868174
:1023F000978102C08FEF9FEF2C96E2E10C940C14B2
:102400000F931F93CF93DF93869F8001879F100DBB
:10241000969F100D1124C8010E941C12EC01009718
:1024200029F0A80160E070E00E944E13CE01DF9118
:10243000CF911F910F910895CF93DF938230910533
:1024400010F482E090E0E0918403F091850320E0B5
:1024500030E0A0E0B0E0309739F140815181481779
:102460005907B8F04817590771F482819381109782
:1024700029F013969C938E9312972CC0909385030A
:102480008093840327C02115310531F0421753078B
:1024900018F0A901DB0101C0EF019A01BD01DF01C4
:1024A0000280F381E02DD7CF21153105F9F0281BEB
:1024B000390B2430310580F48A819B8161157105C7
:1024C00021F0FB019383828304C090938503809362
:1024D0008403FE01329644C0FE01E20FF31F819394
:1024E000919322503109398328833AC02091820385
:1024F00030918303232B41F4209102013091030199
:1025000030938303209382032091000130910101D5
:102510002115310541F42DB73EB74091040150918A
:102520000501241B350BE0918203F0918303E21730
:10253000F307A0F42E1B3F0B2817390778F0AC01E6
:102540004E5F5F4F2417350748F04E0F5F1F5093C3
:102550008303409382038193919302C0E0E0F0E013
:10256000CF01DF91CF910895CF93DF93009709F4C6
:1025700087C0FC01329713821282C0918403D091EC
:102580008503209781F420813181280F391F8091A4
:102590008203909183038217930779F5F093830365
:1025A000E09382036DC0DE0120E030E0AE17BF078C
:1025B00050F412964D915C9113979D014115510570
:1025C00009F1DA01F3CFB383A28340815181840FF3
:1025D000951F8A179B0771F48D919C911197840F19
:1025E000951F02969183808312968D919C911397EB
:1025F000938382832115310529F4F0938503E093B9
:1026000084033EC0D9011396FC93EE9312974D912B
:102610005D91A40FB51FEA17FB0779F480819181C2
:10262000840F951F0296D90111969C938E938281F7
:10263000938113969C938E931297E0E0F0E08A8149
:102640009B81009719F0FE01EC01F9CFCE010296B3
:1026500028813981820F931F209182033091830357
:102660002817390769F4309729F4109285031092DE
:10267000840302C013821282D0938303C093820327
:10268000DF91CF910895FC010590615070400110D9
:10269000D8F7809590958E0F9F1F0895DC0101C09B
:1026A0006D9341505040E0F70895FC016150704037
:1026B00001900110D8F7809590958E0F9F1F089577
:1026C0000F931F93CF93DF93182F092FEB018B816B
:1026D00081FD03C08FEF9FEF20C082FF10C04E81AD
:1026E0005F812C813D81421753077CF4E881F98199
:1026F0009F012F5F3F4F39832883108306C0E885F1
:10270000F985812F0995892B29F72E813F812F5F2C
:102710003F4F3F832E83812F902FDF91CF911F91C9
:102720000F910895FA01AA27283051F1203181F143
:10273000E8946F936E7F6E5F7F4F8F4F9F4FAF4FC9
:10274000B1E03ED0B4E03CD0670F781F891F9A1FDC
:10275000A11D680F791F8A1F911DA11D6A0F711D90
:10276000811D911DA11D20D009F468943F912AE09C
:10277000269F11243019305D3193DEF6CF01089584
:10278000462F4770405D4193B3E00FD0C9F7F6CFB5
:10279000462F4F70405D4A3318F0495D31FD40527D
:1027A000419302D0A9F7EACFB4E0A6959795879513
:1027B00077956795BA95C9F70097610571050895F2
:1027C0009B01AC010A2E069457954795379527959E
:1027D000BA95C9F7620F731F841F951FA01D089536
:1027E0002F923F924F925F926F927F928F929F9221
:1027F000AF92BF92CF92DF92EF92FF920F931F930F
:10280000CF93DF93CDB7DEB7CA1BDB0B0FB6F894BF
:10281000DEBF0FBECDBF09942A88398848885F84FF
:102820006E847D848C849B84AA84B984C884DF8070
:10283000EE80FD800C811B81AA81B981CE0FD11D54
:102840000FB6F894DEBF0FBECDBFED010895F8942A
:02285000FFCFB8
:102852000000860320000018001200105269676809
:102862007420627574746F6E207072657373656420
:102872002C207072696E74696E672076616C756562
:10288200733A090900583A20256909593A202569FD
:10289200094C3A20256909523A2025690A00436108
:1028A2006C6962726174696F6E2076616C756573B2
:1028B2003A200963616C5F583A2025690963616CAB
:1028C2005F593A25690A005265666572656E6365ED
:1028D2002056616C7565733A20095820256909599B
:1028E200202569094C2025690952202569090A0019
:1028F2005374617274696E67205352414D2074653E
:1029020073742E2E2E00577269746520706861737D
:1029120065206572726F723A206578745F72616DBC
:102922005B2534645D203D202530325820287368B1
:102932006F756C642062652025303258290A005276
:10294200657472696576616C207068617365206573
:1029520072726F723A206578745F72616D5B2534B2
:10296200645D203D2025303258202873686F756CD5
:10297200642062652025303258290A005352414DA5
:10298200207465737420636F6D706C657465642068
:10299200776974680A253464206572726F727320D5
:1029A200696E207772697465207068617365206151
:1029B2006E640A253464206572726F727309696EDF
:1029C2002072657472696576616C207068617365E6
:1029D2000A0A0032303A32303A3430004F637420FF
:1029E20031382032303137006C366432004C4F417E
:1029F20044494E47206731375F25732025732025D0
:102A0200730A494E495449414C495A494E472E2E60
:102A12002E0A0A55415254207375636365737366B7
:102A2200756C6C7920696E697469616C697A656428
:102A32000A0A00574F572053554348204650532007
:042A42002020200030
:00000001FF
